{
  "_format": "hh-sol-artifact-1",
  "contractName": "Studentmngmt",
  "sourceName": "solidity/contracts/Studentmngmt.sol",
  "abi": [
    {
      "inputs": [],
      "stateMutability": "nonpayable",
      "type": "constructor"
    },
    {
      "inputs": [
        {
          "internalType": "int256[]",
          "name": "_requiredCourses",
          "type": "int256[]"
        },
        {
          "internalType": "string",
          "name": "_name",
          "type": "string"
        },
        {
          "internalType": "int256",
          "name": "_memberLimit",
          "type": "int256"
        },
        {
          "internalType": "string",
          "name": "_degree",
          "type": "string"
        },
        {
          "internalType": "int256",
          "name": "_semester",
          "type": "int256"
        },
        {
          "internalType": "bool",
          "name": "_isCourseRequired",
          "type": "bool"
        },
        {
          "internalType": "address",
          "name": "_createdByProf",
          "type": "address"
        },
        {
          "internalType": "bool",
          "name": "_available",
          "type": "bool"
        }
      ],
      "name": "addNewCourse",
      "outputs": [],
      "stateMutability": "nonpayable",
      "type": "function"
    },
    {
      "inputs": [
        {
          "internalType": "address",
          "name": "_profAddress",
          "type": "address"
        },
        {
          "internalType": "string",
          "name": "_fName",
          "type": "string"
        },
        {
          "internalType": "string",
          "name": "_lName",
          "type": "string"
        }
      ],
      "name": "addNewProfessor",
      "outputs": [],
      "stateMutability": "nonpayable",
      "type": "function"
    },
    {
      "inputs": [
        {
          "internalType": "address",
          "name": "_studentAddress",
          "type": "address"
        },
        {
          "internalType": "string",
          "name": "_fName",
          "type": "string"
        },
        {
          "internalType": "string",
          "name": "_lName",
          "type": "string"
        },
        {
          "internalType": "string",
          "name": "_regAddress",
          "type": "string"
        },
        {
          "internalType": "string",
          "name": "_degree",
          "type": "string"
        },
        {
          "internalType": "int256",
          "name": "_semester",
          "type": "int256"
        }
      ],
      "name": "addNewStudent",
      "outputs": [],
      "stateMutability": "nonpayable",
      "type": "function"
    },
    {
      "inputs": [
        {
          "internalType": "address",
          "name": "_student",
          "type": "address"
        },
        {
          "internalType": "string",
          "name": "_semester",
          "type": "string"
        }
      ],
      "name": "addSemesterToPay",
      "outputs": [],
      "stateMutability": "nonpayable",
      "type": "function"
    },
    {
      "inputs": [],
      "name": "courseCount",
      "outputs": [
        {
          "internalType": "int256",
          "name": "",
          "type": "int256"
        }
      ],
      "stateMutability": "view",
      "type": "function"
    },
    {
      "inputs": [
        {
          "internalType": "int256",
          "name": "",
          "type": "int256"
        }
      ],
      "name": "courses",
      "outputs": [
        {
          "internalType": "int256",
          "name": "ID",
          "type": "int256"
        },
        {
          "internalType": "string",
          "name": "name",
          "type": "string"
        },
        {
          "internalType": "int256",
          "name": "memberLimit",
          "type": "int256"
        },
        {
          "internalType": "int256",
          "name": "memberCount",
          "type": "int256"
        },
        {
          "internalType": "string",
          "name": "degree",
          "type": "string"
        },
        {
          "internalType": "int256",
          "name": "semester",
          "type": "int256"
        },
        {
          "internalType": "bool",
          "name": "isCourseRequired",
          "type": "bool"
        },
        {
          "internalType": "address",
          "name": "createdByProf",
          "type": "address"
        },
        {
          "internalType": "bool",
          "name": "available",
          "type": "bool"
        }
      ],
      "stateMutability": "view",
      "type": "function"
    },
    {
      "inputs": [
        {
          "internalType": "address",
          "name": "",
          "type": "address"
        },
        {
          "internalType": "uint256",
          "name": "",
          "type": "uint256"
        }
      ],
      "name": "eCourses",
      "outputs": [
        {
          "internalType": "int256",
          "name": "ID",
          "type": "int256"
        },
        {
          "internalType": "address",
          "name": "student",
          "type": "address"
        },
        {
          "internalType": "string",
          "name": "mark",
          "type": "string"
        },
        {
          "internalType": "bool",
          "name": "takesPart",
          "type": "bool"
        },
        {
          "internalType": "bool",
          "name": "passed",
          "type": "bool"
        }
      ],
      "stateMutability": "view",
      "type": "function"
    },
    {
      "inputs": [
        {
          "internalType": "int256",
          "name": "_courseID",
          "type": "int256"
        }
      ],
      "name": "enrollInCourse",
      "outputs": [],
      "stateMutability": "nonpayable",
      "type": "function"
    },
    {
      "inputs": [],
      "name": "getAllCourses",
      "outputs": [
        {
          "components": [
            {
              "internalType": "int256",
              "name": "ID",
              "type": "int256"
            },
            {
              "internalType": "string",
              "name": "name",
              "type": "string"
            },
            {
              "internalType": "int256",
              "name": "memberLimit",
              "type": "int256"
            },
            {
              "internalType": "int256",
              "name": "memberCount",
              "type": "int256"
            },
            {
              "internalType": "string",
              "name": "degree",
              "type": "string"
            },
            {
              "internalType": "int256",
              "name": "semester",
              "type": "int256"
            },
            {
              "internalType": "bool",
              "name": "isCourseRequired",
              "type": "bool"
            },
            {
              "internalType": "address",
              "name": "createdByProf",
              "type": "address"
            },
            {
              "internalType": "bool",
              "name": "available",
              "type": "bool"
            }
          ],
          "internalType": "struct Studentmngmt.Course[]",
          "name": "",
          "type": "tuple[]"
        }
      ],
      "stateMutability": "view",
      "type": "function"
    },
    {
      "inputs": [],
      "name": "getAllProfessorAddresses",
      "outputs": [
        {
          "internalType": "address[]",
          "name": "",
          "type": "address[]"
        }
      ],
      "stateMutability": "view",
      "type": "function"
    },
    {
      "inputs": [],
      "name": "getAllStudentAddresses",
      "outputs": [
        {
          "internalType": "address[]",
          "name": "",
          "type": "address[]"
        }
      ],
      "stateMutability": "view",
      "type": "function"
    },
    {
      "inputs": [
        {
          "internalType": "int256",
          "name": "_courseID",
          "type": "int256"
        }
      ],
      "name": "getCourse",
      "outputs": [
        {
          "components": [
            {
              "internalType": "int256",
              "name": "ID",
              "type": "int256"
            },
            {
              "internalType": "string",
              "name": "name",
              "type": "string"
            },
            {
              "internalType": "int256",
              "name": "memberLimit",
              "type": "int256"
            },
            {
              "internalType": "int256",
              "name": "memberCount",
              "type": "int256"
            },
            {
              "internalType": "string",
              "name": "degree",
              "type": "string"
            },
            {
              "internalType": "int256",
              "name": "semester",
              "type": "int256"
            },
            {
              "internalType": "bool",
              "name": "isCourseRequired",
              "type": "bool"
            },
            {
              "internalType": "address",
              "name": "createdByProf",
              "type": "address"
            },
            {
              "internalType": "bool",
              "name": "available",
              "type": "bool"
            }
          ],
          "internalType": "struct Studentmngmt.Course",
          "name": "",
          "type": "tuple"
        }
      ],
      "stateMutability": "view",
      "type": "function"
    },
    {
      "inputs": [
        {
          "internalType": "int256",
          "name": "_courseID",
          "type": "int256"
        }
      ],
      "name": "getCourseDetails",
      "outputs": [
        {
          "internalType": "int256",
          "name": "",
          "type": "int256"
        },
        {
          "internalType": "string",
          "name": "",
          "type": "string"
        },
        {
          "internalType": "int256",
          "name": "",
          "type": "int256"
        },
        {
          "internalType": "int256",
          "name": "",
          "type": "int256"
        },
        {
          "internalType": "string",
          "name": "",
          "type": "string"
        },
        {
          "internalType": "int256",
          "name": "",
          "type": "int256"
        },
        {
          "internalType": "bool",
          "name": "",
          "type": "bool"
        },
        {
          "internalType": "address",
          "name": "",
          "type": "address"
        },
        {
          "internalType": "bool",
          "name": "",
          "type": "bool"
        }
      ],
      "stateMutability": "view",
      "type": "function"
    },
    {
      "inputs": [
        {
          "internalType": "address",
          "name": "_student",
          "type": "address"
        }
      ],
      "name": "getEnrolledCourses",
      "outputs": [
        {
          "components": [
            {
              "internalType": "int256",
              "name": "ID",
              "type": "int256"
            },
            {
              "internalType": "address",
              "name": "student",
              "type": "address"
            },
            {
              "internalType": "string",
              "name": "mark",
              "type": "string"
            },
            {
              "internalType": "bool",
              "name": "takesPart",
              "type": "bool"
            },
            {
              "internalType": "bool",
              "name": "passed",
              "type": "bool"
            }
          ],
          "internalType": "struct Studentmngmt.EnrolledCourse[]",
          "name": "",
          "type": "tuple[]"
        }
      ],
      "stateMutability": "view",
      "type": "function"
    },
    {
      "inputs": [
        {
          "internalType": "address",
          "name": "_student",
          "type": "address"
        }
      ],
      "name": "getSemesterFees",
      "outputs": [
        {
          "components": [
            {
              "internalType": "uint256",
              "name": "tokenID",
              "type": "uint256"
            },
            {
              "internalType": "string",
              "name": "semester",
              "type": "string"
            },
            {
              "internalType": "address",
              "name": "student",
              "type": "address"
            },
            {
              "internalType": "bool",
              "name": "isPayed",
              "type": "bool"
            }
          ],
          "internalType": "struct Studentmngmt.SemesterRegistration[]",
          "name": "",
          "type": "tuple[]"
        }
      ],
      "stateMutability": "view",
      "type": "function"
    },
    {
      "inputs": [
        {
          "internalType": "address",
          "name": "_student",
          "type": "address"
        }
      ],
      "name": "getStudentDetails",
      "outputs": [
        {
          "internalType": "address",
          "name": "",
          "type": "address"
        },
        {
          "internalType": "string",
          "name": "",
          "type": "string"
        },
        {
          "internalType": "string",
          "name": "",
          "type": "string"
        },
        {
          "internalType": "string",
          "name": "",
          "type": "string"
        },
        {
          "internalType": "string",
          "name": "",
          "type": "string"
        },
        {
          "internalType": "int256",
          "name": "",
          "type": "int256"
        }
      ],
      "stateMutability": "view",
      "type": "function"
    },
    {
      "inputs": [
        {
          "internalType": "string",
          "name": "_semester",
          "type": "string"
        }
      ],
      "name": "paySemester",
      "outputs": [],
      "stateMutability": "payable",
      "type": "function"
    },
    {
      "inputs": [
        {
          "internalType": "address",
          "name": "",
          "type": "address"
        }
      ],
      "name": "profs",
      "outputs": [
        {
          "internalType": "address",
          "name": "profAddress",
          "type": "address"
        },
        {
          "internalType": "string",
          "name": "fName",
          "type": "string"
        },
        {
          "internalType": "string",
          "name": "lName",
          "type": "string"
        }
      ],
      "stateMutability": "view",
      "type": "function"
    },
    {
      "inputs": [
        {
          "internalType": "int256",
          "name": "",
          "type": "int256"
        },
        {
          "internalType": "uint256",
          "name": "",
          "type": "uint256"
        }
      ],
      "name": "requiredCourses",
      "outputs": [
        {
          "internalType": "int256",
          "name": "",
          "type": "int256"
        }
      ],
      "stateMutability": "view",
      "type": "function"
    },
    {
      "inputs": [
        {
          "internalType": "address",
          "name": "",
          "type": "address"
        },
        {
          "internalType": "uint256",
          "name": "",
          "type": "uint256"
        }
      ],
      "name": "semesterFees",
      "outputs": [
        {
          "internalType": "uint256",
          "name": "tokenID",
          "type": "uint256"
        },
        {
          "internalType": "string",
          "name": "semester",
          "type": "string"
        },
        {
          "internalType": "address",
          "name": "student",
          "type": "address"
        },
        {
          "internalType": "bool",
          "name": "isPayed",
          "type": "bool"
        }
      ],
      "stateMutability": "view",
      "type": "function"
    },
    {
      "inputs": [
        {
          "internalType": "address",
          "name": "",
          "type": "address"
        }
      ],
      "name": "students",
      "outputs": [
        {
          "internalType": "address",
          "name": "studentAddress",
          "type": "address"
        },
        {
          "internalType": "string",
          "name": "fName",
          "type": "string"
        },
        {
          "internalType": "string",
          "name": "lName",
          "type": "string"
        },
        {
          "internalType": "string",
          "name": "regAddress",
          "type": "string"
        },
        {
          "internalType": "string",
          "name": "degree",
          "type": "string"
        },
        {
          "internalType": "int256",
          "name": "semester",
          "type": "int256"
        }
      ],
      "stateMutability": "view",
      "type": "function"
    },
    {
      "inputs": [],
      "name": "tokenCount",
      "outputs": [
        {
          "internalType": "uint256",
          "name": "",
          "type": "uint256"
        }
      ],
      "stateMutability": "view",
      "type": "function"
    },
    {
      "inputs": [
        {
          "internalType": "int256",
          "name": "_courseID",
          "type": "int256"
        }
      ],
      "name": "unsubscribeFromCourse",
      "outputs": [],
      "stateMutability": "nonpayable",
      "type": "function"
    },
    {
      "inputs": [
        {
          "internalType": "string",
          "name": "_regAddress",
          "type": "string"
        }
      ],
      "name": "updateRegAddressStudent",
      "outputs": [],
      "stateMutability": "nonpayable",
      "type": "function"
    }
  ],
  "bytecode": "0x6080604052604051620000129062000084565b604051809103906000f0801580156200002f573d6000803e3d6000fd5b50600260006101000a81548173ffffffffffffffffffffffffffffffffffffffff021916908373ffffffffffffffffffffffffffffffffffffffff1602179055503480156200007d57600080fd5b5062000092565b6129958062005b6383390190565b615ac180620000a26000396000f3fe60806040526004361061014b5760003560e01c806366278e39116100b6578063c839e9b51161006f578063c839e9b5146104e3578063d0b371bd14610520578063e08a99cf14610562578063e70cc6eb1461058b578063ee6fdb3f146105b6578063fb7f563a146105fb5761014b565b806366278e39146103af578063770dbe16146103d85780638d48f7d21461041d5780639f181b5e14610439578063a6c807a914610464578063c7ce2a4a146104a65761014b565b80633b31cf6d116101085780633b31cf6d1461029d578063420c017d146102c657806345667721146102ef57806351c1a771146103305780635345c9121461035957806366055159146103845761014b565b806304e48bd114610150578063060c34881461017b5780630993031e146101bb57806313fdb0a8146101f857806319a3df83146102375780632791095914610274575b600080fd5b34801561015c57600080fd5b50610165610624565b6040516101729190614f18565b60405180910390f35b34801561018757600080fd5b506101a2600480360381019061019d91906144d7565b61085c565b6040516101b2949392919061524b565b60405180910390f35b3480156101c757600080fd5b506101e260048036038101906101dd91906142f2565b61095e565b6040516101ef9190614f3a565b60405180910390f35b34801561020457600080fd5b5061021f600480360381019061021a91906142f2565b610b24565b60405161022e93929190614e0b565b60405180910390f35b34801561024357600080fd5b5061025e600480360381019061025991906142f2565b610c7e565b60405161026b9190614f5c565b60405180910390f35b34801561028057600080fd5b5061029b6004803603810190610296919061460d565b610efb565b005b3480156102a957600080fd5b506102c460048036038101906102bf91906143ee565b61146b565b005b3480156102d257600080fd5b506102ed60048036038101906102e89190614672565b611620565b005b3480156102fb57600080fd5b50610316600480360381019061031191906144d7565b61174c565b604051610327959493929190614f99565b60405180910390f35b34801561033c57600080fd5b506103576004803603810190610352919061460d565b611861565b005b34801561036557600080fd5b5061036e612497565b60405161037b9190614ef6565b60405180910390f35b34801561039057600080fd5b50610399612525565b6040516103a69190614f7e565b60405180910390f35b3480156103bb57600080fd5b506103d660048036038101906103d1919061431b565b61252b565b005b3480156103e457600080fd5b506103ff60048036038101906103fa919061460d565b61273a565b60405161041499989796959493929190614ff3565b60405180910390f35b61043760048036038101906104329190614672565b6128d2565b005b34801561044557600080fd5b5061044e612f32565b60405161045b9190615230565b60405180910390f35b34801561047057600080fd5b5061048b600480360381019061048691906142f2565b612f38565b60405161049d96959493929190614e50565b60405180910390f35b3480156104b257600080fd5b506104cd60048036038101906104c89190614636565b6131b4565b6040516104da9190614f7e565b60405180910390f35b3480156104ef57600080fd5b5061050a6004803603810190610505919061460d565b6131e5565b604051610517919061520e565b60405180910390f35b34801561052c57600080fd5b50610547600480360381019061054291906142f2565b6133eb565b60405161055996959493929190614e50565b60405180910390f35b34801561056e57600080fd5b5061058960048036038101906105849190614513565b61371a565b005b34801561059757600080fd5b506105a0613b0d565b6040516105ad9190614ef6565b60405180910390f35b3480156105c257600080fd5b506105dd60048036038101906105d8919061460d565b613b9b565b6040516105f299989796959493929190614ff3565b60405180910390f35b34801561060757600080fd5b50610622600480360381019061061d919061436f565b613def565b005b60606005805480602002602001604051908101604052809291908181526020016000905b8282101561085357838290600052602060002090600702016040518061012001604052908160008201548152602001600182018054610686906155a6565b80601f01602080910402602001604051908101604052809291908181526020018280546106b2906155a6565b80156106ff5780601f106106d4576101008083540402835291602001916106ff565b820191906000526020600020905b8154815290600101906020018083116106e257829003601f168201915b50505050508152602001600282015481526020016003820154815260200160048201805461072c906155a6565b80601f0160208091040260200160405190810160405280929190818152602001828054610758906155a6565b80156107a55780601f1061077a576101008083540402835291602001916107a5565b820191906000526020600020905b81548152906001019060200180831161078857829003601f168201915b50505050508152602001600582015481526020016006820160009054906101000a900460ff161515151581526020016006820160019054906101000a900473ffffffffffffffffffffffffffffffffffffffff1673ffffffffffffffffffffffffffffffffffffffff1673ffffffffffffffffffffffffffffffffffffffff1681526020016006820160159054906101000a900460ff16151515158152505081526020019060010190610648565b50505050905090565b600b602052816000526040600020818154811061087857600080fd5b9060005260206000209060030201600091509150508060000154908060010180546108a2906155a6565b80601f01602080910402602001604051908101604052809291908181526020018280546108ce906155a6565b801561091b5780601f106108f05761010080835404028352916020019161091b565b820191906000526020600020905b8154815290600101906020018083116108fe57829003601f168201915b5050505050908060020160009054906101000a900473ffffffffffffffffffffffffffffffffffffffff16908060020160149054906101000a900460ff16905084565b6060600960008373ffffffffffffffffffffffffffffffffffffffff1673ffffffffffffffffffffffffffffffffffffffff168152602001908152602001600020805480602002602001604051908101604052809291908181526020016000905b82821015610b1957838290600052602060002090600402016040518060a0016040529081600082015481526020016001820160009054906101000a900473ffffffffffffffffffffffffffffffffffffffff1673ffffffffffffffffffffffffffffffffffffffff1673ffffffffffffffffffffffffffffffffffffffff168152602001600282018054610a52906155a6565b80601f0160208091040260200160405190810160405280929190818152602001828054610a7e906155a6565b8015610acb5780601f10610aa057610100808354040283529160200191610acb565b820191906000526020600020905b815481529060010190602001808311610aae57829003601f168201915b505050505081526020016003820160009054906101000a900460ff161515151581526020016003820160019054906101000a900460ff161515151581525050815260200190600101906109bf565b505050509050919050565b60076020528060005260406000206000915090508060000160009054906101000a900473ffffffffffffffffffffffffffffffffffffffff1690806001018054610b6d906155a6565b80601f0160208091040260200160405190810160405280929190818152602001828054610b99906155a6565b8015610be65780601f10610bbb57610100808354040283529160200191610be6565b820191906000526020600020905b815481529060010190602001808311610bc957829003601f168201915b505050505090806002018054610bfb906155a6565b80601f0160208091040260200160405190810160405280929190818152602001828054610c27906155a6565b8015610c745780601f10610c4957610100808354040283529160200191610c74565b820191906000526020600020905b815481529060010190602001808311610c5757829003601f168201915b5050505050905083565b6060600073ffffffffffffffffffffffffffffffffffffffff16600660003373ffffffffffffffffffffffffffffffffffffffff1673ffffffffffffffffffffffffffffffffffffffff16815260200190815260200160002060000160009054906101000a900473ffffffffffffffffffffffffffffffffffffffff1673ffffffffffffffffffffffffffffffffffffffff161415610d52576040517f08c379a0000000000000000000000000000000000000000000000000000000008152600401610d499061514e565b60405180910390fd5b600b60008373ffffffffffffffffffffffffffffffffffffffff1673ffffffffffffffffffffffffffffffffffffffff168152602001908152602001600020805480602002602001604051908101604052809291908181526020016000905b82821015610ef0578382906000526020600020906003020160405180608001604052908160008201548152602001600182018054610dee906155a6565b80601f0160208091040260200160405190810160405280929190818152602001828054610e1a906155a6565b8015610e675780601f10610e3c57610100808354040283529160200191610e67565b820191906000526020600020905b815481529060010190602001808311610e4a57829003601f168201915b505050505081526020016002820160009054906101000a900473ffffffffffffffffffffffffffffffffffffffff1673ffffffffffffffffffffffffffffffffffffffff1673ffffffffffffffffffffffffffffffffffffffff1681526020016002820160149054906101000a900460ff16151515158152505081526020019060010190610db1565b505050509050919050565b600073ffffffffffffffffffffffffffffffffffffffff16600660003373ffffffffffffffffffffffffffffffffffffffff1673ffffffffffffffffffffffffffffffffffffffff16815260200190815260200160002060000160009054906101000a900473ffffffffffffffffffffffffffffffffffffffff1673ffffffffffffffffffffffffffffffffffffffff161415610fcd576040517f08c379a0000000000000000000000000000000000000000000000000000000008152600401610fc49061514e565b60405180910390fd5b6000600960003373ffffffffffffffffffffffffffffffffffffffff1673ffffffffffffffffffffffffffffffffffffffff168152602001908152602001600020805480602002602001604051908101604052809291908181526020016000905b8282101561118857838290600052602060002090600402016040518060a0016040529081600082015481526020016001820160009054906101000a900473ffffffffffffffffffffffffffffffffffffffff1673ffffffffffffffffffffffffffffffffffffffff1673ffffffffffffffffffffffffffffffffffffffff1681526020016002820180546110c1906155a6565b80601f01602080910402602001604051908101604052809291908181526020018280546110ed906155a6565b801561113a5780601f1061110f5761010080835404028352916020019161113a565b820191906000526020600020905b81548152906001019060200180831161111d57829003601f168201915b505050505081526020016003820160009054906101000a900460ff161515151581526020016003820160019054906101000a900460ff1615151515815250508152602001906001019061102e565b50505050905060005b815181101561137157828282815181106111d4577f4e487b7100000000000000000000000000000000000000000000000000000000600052603260045260246000fd5b60200260200101516000015114801561125c57503373ffffffffffffffffffffffffffffffffffffffff16828281518110611238577f4e487b7100000000000000000000000000000000000000000000000000000000600052603260045260246000fd5b60200260200101516020015173ffffffffffffffffffffffffffffffffffffffff16145b1561135e5781818151811061129a577f4e487b7100000000000000000000000000000000000000000000000000000000600052603260045260246000fd5b602002602001015160800151156112e6576040517f08c379a00000000000000000000000000000000000000000000000000000000081526004016112dd9061512e565b60405180910390fd5b60086000848152602001908152602001600020600301600081548092919061130d9061555d565b919050555081818151811061134b577f4e487b7100000000000000000000000000000000000000000000000000000000600052603260045260246000fd5b6020026020010161135a613fa4565b8152505b808061136990615652565b915050611191565b50600960003373ffffffffffffffffffffffffffffffffffffffff1673ffffffffffffffffffffffffffffffffffffffff1681526020019081526020016000208054806113e7577f4e487b7100000000000000000000000000000000000000000000000000000000600052603160045260246000fd5b60019003818190600052602060002090600402016000808201600090556001820160006101000a81549073ffffffffffffffffffffffffffffffffffffffff021916905560028201600061143b9190613fed565b6003820160006101000a81549060ff02191690556003820160016101000a81549060ff0219169055505090555050565b6040518060c001604052808773ffffffffffffffffffffffffffffffffffffffff16815260200186815260200185815260200184815260200183815260200182815250600660008873ffffffffffffffffffffffffffffffffffffffff1673ffffffffffffffffffffffffffffffffffffffff16815260200190815260200160002060008201518160000160006101000a81548173ffffffffffffffffffffffffffffffffffffffff021916908373ffffffffffffffffffffffffffffffffffffffff160217905550602082015181600101908051906020019061155092919061402d565b50604082015181600201908051906020019061156d92919061402d565b50606082015181600301908051906020019061158a92919061402d565b5060808201518160040190805190602001906115a792919061402d565b5060a082015181600501559050506003869080600181540180825580915050600190039060005260206000200160009091909190916101000a81548173ffffffffffffffffffffffffffffffffffffffff021916908373ffffffffffffffffffffffffffffffffffffffff160217905550505050505050565b600073ffffffffffffffffffffffffffffffffffffffff16600660003373ffffffffffffffffffffffffffffffffffffffff1673ffffffffffffffffffffffffffffffffffffffff16815260200190815260200160002060000160009054906101000a900473ffffffffffffffffffffffffffffffffffffffff1673ffffffffffffffffffffffffffffffffffffffff1614156116f2576040517f08c379a00000000000000000000000000000000000000000000000000000000081526004016116e99061514e565b60405180910390fd5b80600660003373ffffffffffffffffffffffffffffffffffffffff1673ffffffffffffffffffffffffffffffffffffffff168152602001908152602001600020600301908051906020019061174892919061402d565b5050565b6009602052816000526040600020818154811061176857600080fd5b9060005260206000209060040201600091509150508060000154908060010160009054906101000a900473ffffffffffffffffffffffffffffffffffffffff16908060020180546117b8906155a6565b80601f01602080910402602001604051908101604052809291908181526020018280546117e4906155a6565b80156118315780601f1061180657610100808354040283529160200191611831565b820191906000526020600020905b81548152906001019060200180831161181457829003601f168201915b5050505050908060030160009054906101000a900460ff16908060030160019054906101000a900460ff16905085565b600073ffffffffffffffffffffffffffffffffffffffff16600660003373ffffffffffffffffffffffffffffffffffffffff1673ffffffffffffffffffffffffffffffffffffffff16815260200190815260200160002060000160009054906101000a900473ffffffffffffffffffffffffffffffffffffffff1673ffffffffffffffffffffffffffffffffffffffff161415611933576040517f08c379a000000000000000000000000000000000000000000000000000000000815260040161192a9061514e565b60405180910390fd5b806008600082815260200190815260200160002060060160159054906101000a900460ff16611997576040517f08c379a000000000000000000000000000000000000000000000000000000000815260040161198e906151ce565b60405180910390fd5b600860008281526020019081526020016000206003015460086000838152602001908152602001600020600201541215611a06576040517f08c379a00000000000000000000000000000000000000000000000000000000081526004016119fd9061510e565b60405180910390fd5b611b78600660003373ffffffffffffffffffffffffffffffffffffffff1673ffffffffffffffffffffffffffffffffffffffff1681526020019081526020016000206004018054611a56906155a6565b80601f0160208091040260200160405190810160405280929190818152602001828054611a82906155a6565b8015611acf5780601f10611aa457610100808354040283529160200191611acf565b820191906000526020600020905b815481529060010190602001808311611ab257829003601f168201915b5050505050600860008481526020019081526020016000206004018054611af5906155a6565b80601f0160208091040260200160405190810160405280929190818152602001828054611b21906155a6565b8015611b6e5780601f10611b4357610100808354040283529160200191611b6e565b820191906000526020600020905b815481529060010190602001808311611b5157829003601f168201915b5050505050613f4b565b611bb7576040517f08c379a0000000000000000000000000000000000000000000000000000000008152600401611bae906150ee565b60405180910390fd5b6008600082815260200190815260200160002060050154600660003373ffffffffffffffffffffffffffffffffffffffff1673ffffffffffffffffffffffffffffffffffffffff1681526020019081526020016000206005015414611c51576040517f08c379a0000000000000000000000000000000000000000000000000000000008152600401611c48906151ae565b60405180910390fd5b6000600960003373ffffffffffffffffffffffffffffffffffffffff1673ffffffffffffffffffffffffffffffffffffffff168152602001908152602001600020805480602002602001604051908101604052809291908181526020016000905b82821015611e0c57838290600052602060002090600402016040518060a0016040529081600082015481526020016001820160009054906101000a900473ffffffffffffffffffffffffffffffffffffffff1673ffffffffffffffffffffffffffffffffffffffff1673ffffffffffffffffffffffffffffffffffffffff168152602001600282018054611d45906155a6565b80601f0160208091040260200160405190810160405280929190818152602001828054611d71906155a6565b8015611dbe5780601f10611d9357610100808354040283529160200191611dbe565b820191906000526020600020905b815481529060010190602001808311611da157829003601f168201915b505050505081526020016003820160009054906101000a900460ff161515151581526020016003820160019054906101000a900460ff16151515158152505081526020019060010190611cb2565b5050505090506008600083815260200190815260200160002060060160009054906101000a900460ff161561218f57600081511415611e80576040517f08c379a0000000000000000000000000000000000000000000000000000000008152600401611e779061518e565b60405180910390fd5b6000600a6000848152602001908152602001600020805480602002602001604051908101604052809291908181526020018280548015611edf57602002820191906000526020600020905b815481526020019060010190808311611ecb575b5050505050905060005b815181101561218c5760005b8351811015612178573373ffffffffffffffffffffffffffffffffffffffff16848281518110611f4e577f4e487b7100000000000000000000000000000000000000000000000000000000600052603260045260246000fd5b60200260200101516020015173ffffffffffffffffffffffffffffffffffffffff161480156120005750828281518110611fb1577f4e487b7100000000000000000000000000000000000000000000000000000000600052603260045260246000fd5b6020026020010151848281518110611ff2577f4e487b7100000000000000000000000000000000000000000000000000000000600052603260045260246000fd5b602002602001015160000151145b156120dd5783818151811061203e577f4e487b7100000000000000000000000000000000000000000000000000000000600052603260045260246000fd5b6020026020010151606001511580612098575083818151811061208a577f4e487b7100000000000000000000000000000000000000000000000000000000600052603260045260246000fd5b602002602001015160800151155b156120d8576040517f08c379a00000000000000000000000000000000000000000000000000000000081526004016120cf906150ce565b60405180910390fd5b612165565b84848281518110612117577f4e487b7100000000000000000000000000000000000000000000000000000000600052603260045260246000fd5b6020026020010151600001511415612164576040517f08c379a000000000000000000000000000000000000000000000000000000000815260040161215b906150ae565b60405180910390fd5b5b808061217090615652565b915050611ef5565b50808061218490615652565b915050611ee9565b50505b6008600084815260200190815260200160002060030160008154809291906121b690615609565b9190505550600583815481106121f5577f4e487b7100000000000000000000000000000000000000000000000000000000600052603260045260246000fd5b9060005260206000209060070201600301600081548092919061221790615609565b91905055506005805480612254577f4e487b7100000000000000000000000000000000000000000000000000000000600052603160045260246000fd5b60019003818190600052602060002090600702016000808201600090556001820160006122819190613fed565b600282016000905560038201600090556004820160006122a19190613fed565b60058201600090556006820160006101000a81549060ff02191690556006820160016101000a81549073ffffffffffffffffffffffffffffffffffffffff02191690556006820160156101000a81549060ff02191690555050905560006040518060a001604052808581526020013373ffffffffffffffffffffffffffffffffffffffff1681526020016040518060400160405280600381526020017f302e3000000000000000000000000000000000000000000000000000000000008152508152602001600115158152602001600015158152509050600960003373ffffffffffffffffffffffffffffffffffffffff1673ffffffffffffffffffffffffffffffffffffffff1681526020019081526020016000208190806001815401808255809150506001900390600052602060002090600402016000909190919091506000820151816000015560208201518160010160006101000a81548173ffffffffffffffffffffffffffffffffffffffff021916908373ffffffffffffffffffffffffffffffffffffffff160217905550604082015181600201908051906020019061244e92919061402d565b5060608201518160030160006101000a81548160ff02191690831515021790555060808201518160030160016101000a81548160ff021916908315150217905550505050505050565b6060600480548060200260200160405190810160405280929190818152602001828054801561251b57602002820191906000526020600020905b8160009054906101000a900473ffffffffffffffffffffffffffffffffffffffff1673ffffffffffffffffffffffffffffffffffffffff16815260200190600101908083116124d1575b5050505050905090565b60005481565b600073ffffffffffffffffffffffffffffffffffffffff16600760003373ffffffffffffffffffffffffffffffffffffffff1673ffffffffffffffffffffffffffffffffffffffff16815260200190815260200160002060000160009054906101000a900473ffffffffffffffffffffffffffffffffffffffff1673ffffffffffffffffffffffffffffffffffffffff1614156125fd576040517f08c379a00000000000000000000000000000000000000000000000000000000081526004016125f4906151ee565b60405180910390fd5b60006040518060800160405280600081526020018381526020018473ffffffffffffffffffffffffffffffffffffffff168152602001600015158152509050600b60008473ffffffffffffffffffffffffffffffffffffffff1673ffffffffffffffffffffffffffffffffffffffff1681526020019081526020016000208190806001815401808255809150506001900390600052602060002090600302016000909190919091506000820151816000015560208201518160010190805190602001906126cb92919061402d565b5060408201518160020160006101000a81548173ffffffffffffffffffffffffffffffffffffffff021916908373ffffffffffffffffffffffffffffffffffffffff16021790555060608201518160020160146101000a81548160ff0219169083151502179055505050505050565b6008602052806000526040600020600091509050806000015490806001018054612763906155a6565b80601f016020809104026020016040519081016040528092919081815260200182805461278f906155a6565b80156127dc5780601f106127b1576101008083540402835291602001916127dc565b820191906000526020600020905b8154815290600101906020018083116127bf57829003601f168201915b5050505050908060020154908060030154908060040180546127fd906155a6565b80601f0160208091040260200160405190810160405280929190818152602001828054612829906155a6565b80156128765780601f1061284b57610100808354040283529160200191612876565b820191906000526020600020905b81548152906001019060200180831161285957829003601f168201915b5050505050908060050154908060060160009054906101000a900460ff16908060060160019054906101000a900473ffffffffffffffffffffffffffffffffffffffff16908060060160159054906101000a900460ff16905089565b600073ffffffffffffffffffffffffffffffffffffffff16600660003373ffffffffffffffffffffffffffffffffffffffff1673ffffffffffffffffffffffffffffffffffffffff16815260200190815260200160002060000160009054906101000a900473ffffffffffffffffffffffffffffffffffffffff1673ffffffffffffffffffffffffffffffffffffffff1614156129a4576040517f08c379a000000000000000000000000000000000000000000000000000000000815260040161299b9061514e565b60405180910390fd5b66b1a2bc2ec5000034146129ed576040517f08c379a00000000000000000000000000000000000000000000000000000000081526004016129e49061508e565b60405180910390fd5b60016000815480929190612a0090615652565b91905055506000600b60003373ffffffffffffffffffffffffffffffffffffffff1673ffffffffffffffffffffffffffffffffffffffff168152602001908152602001600020805480602002602001604051908101604052809291908181526020016000905b82821015612ba5578382906000526020600020906003020160405180608001604052908160008201548152602001600182018054612aa3906155a6565b80601f0160208091040260200160405190810160405280929190818152602001828054612acf906155a6565b8015612b1c5780601f10612af157610100808354040283529160200191612b1c565b820191906000526020600020905b815481529060010190602001808311612aff57829003601f168201915b505050505081526020016002820160009054906101000a900473ffffffffffffffffffffffffffffffffffffffff1673ffffffffffffffffffffffffffffffffffffffff1673ffffffffffffffffffffffffffffffffffffffff1681526020016002820160149054906101000a900460ff16151515158152505081526020019060010190612a66565b50505050905060005b8151811015612dbb57612c05828281518110612bf3577f4e487b7100000000000000000000000000000000000000000000000000000000600052603260045260246000fd5b60200260200101516020015184613f4b565b8015612c8057503373ffffffffffffffffffffffffffffffffffffffff16828281518110612c5c577f4e487b7100000000000000000000000000000000000000000000000000000000600052603260045260246000fd5b60200260200101516040015173ffffffffffffffffffffffffffffffffffffffff16145b15612da857818181518110612cbe577f4e487b7100000000000000000000000000000000000000000000000000000000600052603260045260246000fd5b60200260200101516060015115612d0a576040517f08c379a0000000000000000000000000000000000000000000000000000000008152600401612d019061516e565b60405180910390fd5b6001828281518110612d45577f4e487b7100000000000000000000000000000000000000000000000000000000600052603260045260246000fd5b60200260200101516060019015159081151581525050600154828281518110612d97577f4e487b7100000000000000000000000000000000000000000000000000000000600052603260045260246000fd5b602002602001015160000181815250505b8080612db390615652565b915050612bae565b50600b60003373ffffffffffffffffffffffffffffffffffffffff1673ffffffffffffffffffffffffffffffffffffffff168152602001908152602001600020805480612e31577f4e487b7100000000000000000000000000000000000000000000000000000000600052603160045260246000fd5b6001900381819060005260206000209060030201600080820160009055600182016000612e5e9190613fed565b6002820160006101000a81549073ffffffffffffffffffffffffffffffffffffffff02191690556002820160146101000a81549060ff021916905550509055600260009054906101000a900473ffffffffffffffffffffffffffffffffffffffff1673ffffffffffffffffffffffffffffffffffffffff1663c4076876336001546040518363ffffffff1660e01b8152600401612efc929190614ecd565b600060405180830381600087803b158015612f1657600080fd5b505af1158015612f2a573d6000803e3d6000fd5b505050505050565b60015481565b60066020528060005260406000206000915090508060000160009054906101000a900473ffffffffffffffffffffffffffffffffffffffff1690806001018054612f81906155a6565b80601f0160208091040260200160405190810160405280929190818152602001828054612fad906155a6565b8015612ffa5780601f10612fcf57610100808354040283529160200191612ffa565b820191906000526020600020905b815481529060010190602001808311612fdd57829003601f168201915b50505050509080600201805461300f906155a6565b80601f016020809104026020016040519081016040528092919081815260200182805461303b906155a6565b80156130885780601f1061305d57610100808354040283529160200191613088565b820191906000526020600020905b81548152906001019060200180831161306b57829003601f168201915b50505050509080600301805461309d906155a6565b80601f01602080910402602001604051908101604052809291908181526020018280546130c9906155a6565b80156131165780601f106130eb57610100808354040283529160200191613116565b820191906000526020600020905b8154815290600101906020018083116130f957829003601f168201915b50505050509080600401805461312b906155a6565b80601f0160208091040260200160405190810160405280929190818152602001828054613157906155a6565b80156131a45780601f10613179576101008083540402835291602001916131a4565b820191906000526020600020905b81548152906001019060200180831161318757829003601f168201915b5050505050908060050154905086565b600a60205281600052604060002081815481106131d057600080fd5b90600052602060002001600091509150505481565b6131ed6140b3565b600860008381526020019081526020016000206040518061012001604052908160008201548152602001600182018054613226906155a6565b80601f0160208091040260200160405190810160405280929190818152602001828054613252906155a6565b801561329f5780601f106132745761010080835404028352916020019161329f565b820191906000526020600020905b81548152906001019060200180831161328257829003601f168201915b5050505050815260200160028201548152602001600382015481526020016004820180546132cc906155a6565b80601f01602080910402602001604051908101604052809291908181526020018280546132f8906155a6565b80156133455780601f1061331a57610100808354040283529160200191613345565b820191906000526020600020905b81548152906001019060200180831161332857829003601f168201915b50505050508152602001600582015481526020016006820160009054906101000a900460ff161515151581526020016006820160019054906101000a900473ffffffffffffffffffffffffffffffffffffffff1673ffffffffffffffffffffffffffffffffffffffff1673ffffffffffffffffffffffffffffffffffffffff1681526020016006820160159054906101000a900460ff1615151515815250509050919050565b6000606080606080600080600660008973ffffffffffffffffffffffffffffffffffffffff1673ffffffffffffffffffffffffffffffffffffffff1681526020019081526020016000206040518060c00160405290816000820160009054906101000a900473ffffffffffffffffffffffffffffffffffffffff1673ffffffffffffffffffffffffffffffffffffffff1673ffffffffffffffffffffffffffffffffffffffff1681526020016001820180546134a6906155a6565b80601f01602080910402602001604051908101604052809291908181526020018280546134d2906155a6565b801561351f5780601f106134f45761010080835404028352916020019161351f565b820191906000526020600020905b81548152906001019060200180831161350257829003601f168201915b50505050508152602001600282018054613538906155a6565b80601f0160208091040260200160405190810160405280929190818152602001828054613564906155a6565b80156135b15780601f10613586576101008083540402835291602001916135b1565b820191906000526020600020905b81548152906001019060200180831161359457829003601f168201915b505050505081526020016003820180546135ca906155a6565b80601f01602080910402602001604051908101604052809291908181526020018280546135f6906155a6565b80156136435780601f1061361857610100808354040283529160200191613643565b820191906000526020600020905b81548152906001019060200180831161362657829003601f168201915b5050505050815260200160048201805461365c906155a6565b80601f0160208091040260200160405190810160405280929190818152602001828054613688906155a6565b80156136d55780601f106136aa576101008083540402835291602001916136d5565b820191906000526020600020905b8154815290600101906020018083116136b857829003601f168201915b5050505050815260200160058201548152505090503381602001518260400151836060015184608001518560a001519650965096509650965096505091939550919395565b600073ffffffffffffffffffffffffffffffffffffffff16600760003373ffffffffffffffffffffffffffffffffffffffff1673ffffffffffffffffffffffffffffffffffffffff16815260200190815260200160002060000160009054906101000a900473ffffffffffffffffffffffffffffffffffffffff1673ffffffffffffffffffffffffffffffffffffffff1614156137ec576040517f08c379a00000000000000000000000000000000000000000000000000000000081526004016137e3906151ee565b60405180910390fd5b60016000546137fb9190615435565b60008190555060405180610120016040528060005481526020018881526020018781526020016000815260200186815260200185815260200184151581526020018373ffffffffffffffffffffffffffffffffffffffff168152602001821515815250600860008054815260200190815260200160002060008201518160000155602082015181600101908051906020019061389892919061402d565b50604082015181600201556060820151816003015560808201518160040190805190602001906138c992919061402d565b5060a0820151816005015560c08201518160060160006101000a81548160ff02191690831515021790555060e08201518160060160016101000a81548173ffffffffffffffffffffffffffffffffffffffff021916908373ffffffffffffffffffffffffffffffffffffffff1602179055506101008201518160060160156101000a81548160ff021916908315150217905550905050821561398f5787600a600080548152602001908152602001600020908051906020019061398d929190614119565b505b600560405180610120016040528060005481526020018981526020018881526020016000815260200187815260200186815260200185151581526020018473ffffffffffffffffffffffffffffffffffffffff1681526020018315158152509080600181540180825580915050600190039060005260206000209060070201600090919091909150600082015181600001556020820151816001019080519060200190613a3d92919061402d565b5060408201518160020155606082015181600301556080820151816004019080519060200190613a6e92919061402d565b5060a0820151816005015560c08201518160060160006101000a81548160ff02191690831515021790555060e08201518160060160016101000a81548173ffffffffffffffffffffffffffffffffffffffff021916908373ffffffffffffffffffffffffffffffffffffffff1602179055506101008201518160060160156101000a81548160ff02191690831515021790555050505050505050505050565b60606003805480602002602001604051908101604052809291908181526020018280548015613b9157602002820191906000526020600020905b8160009054906101000a900473ffffffffffffffffffffffffffffffffffffffff1673ffffffffffffffffffffffffffffffffffffffff1681526020019060010190808311613b47575b5050505050905090565b6000606060008060606000806000806000600860008c81526020019081526020016000206040518061012001604052908160008201548152602001600182018054613be5906155a6565b80601f0160208091040260200160405190810160405280929190818152602001828054613c11906155a6565b8015613c5e5780601f10613c3357610100808354040283529160200191613c5e565b820191906000526020600020905b815481529060010190602001808311613c4157829003601f168201915b505050505081526020016002820154815260200160038201548152602001600482018054613c8b906155a6565b80601f0160208091040260200160405190810160405280929190818152602001828054613cb7906155a6565b8015613d045780601f10613cd957610100808354040283529160200191613d04565b820191906000526020600020905b815481529060010190602001808311613ce757829003601f168201915b50505050508152602001600582015481526020016006820160009054906101000a900460ff161515151581526020016006820160019054906101000a900473ffffffffffffffffffffffffffffffffffffffff1673ffffffffffffffffffffffffffffffffffffffff1673ffffffffffffffffffffffffffffffffffffffff1681526020016006820160159054906101000a900460ff16151515158152505090508a81602001518260400151836060015184608001518560a001518660c001518760e00151886101000151995099509950995099509950995099509950509193959799909294969850565b60405180606001604052808473ffffffffffffffffffffffffffffffffffffffff16815260200183815260200182815250600760008573ffffffffffffffffffffffffffffffffffffffff1673ffffffffffffffffffffffffffffffffffffffff16815260200190815260200160002060008201518160000160006101000a81548173ffffffffffffffffffffffffffffffffffffffff021916908373ffffffffffffffffffffffffffffffffffffffff1602179055506020820151816001019080519060200190613ec292919061402d565b506040820151816002019080519060200190613edf92919061402d565b509050506004839080600181540180825580915050600190039060005260206000200160009091909190916101000a81548173ffffffffffffffffffffffffffffffffffffffff021916908373ffffffffffffffffffffffffffffffffffffffff160217905550505050565b600081604051602001613f5e9190614df4565b6040516020818303038152906040528051906020012083604051602001613f859190614df4565b6040516020818303038152906040528051906020012014905092915050565b6040518060a0016040528060008152602001600073ffffffffffffffffffffffffffffffffffffffff168152602001606081526020016000151581526020016000151581525090565b508054613ff9906155a6565b6000825580601f1061400b575061402a565b601f0160209004906000526020600020908101906140299190614166565b5b50565b828054614039906155a6565b90600052602060002090601f01602090048101928261405b57600085556140a2565b82601f1061407457805160ff19168380011785556140a2565b828001600101855582156140a2579182015b828111156140a1578251825591602001919060010190614086565b5b5090506140af9190614166565b5090565b604051806101200160405280600081526020016060815260200160008152602001600081526020016060815260200160008152602001600015158152602001600073ffffffffffffffffffffffffffffffffffffffff1681526020016000151581525090565b828054828255906000526020600020908101928215614155579160200282015b82811115614154578251825591602001919060010190614139565b5b5090506141629190614183565b5090565b5b8082111561417f576000816000905550600101614167565b5090565b5b8082111561419c576000816000905550600101614184565b5090565b60006141b36141ae846152bc565b615297565b905080838252602082019050828560208602820111156141d257600080fd5b60005b8581101561420257816141e8888261429e565b8452602084019350602083019250506001810190506141d5565b5050509392505050565b600061421f61421a846152e8565b615297565b90508281526020810184848401111561423757600080fd5b61424284828561551b565b509392505050565b60008135905061425981615a2f565b92915050565b600082601f83011261427057600080fd5b81356142808482602086016141a0565b91505092915050565b60008135905061429881615a46565b92915050565b6000813590506142ad81615a5d565b92915050565b600082601f8301126142c457600080fd5b81356142d484826020860161420c565b91505092915050565b6000813590506142ec81615a74565b92915050565b60006020828403121561430457600080fd5b60006143128482850161424a565b91505092915050565b6000806040838503121561432e57600080fd5b600061433c8582860161424a565b925050602083013567ffffffffffffffff81111561435957600080fd5b614365858286016142b3565b9150509250929050565b60008060006060848603121561438457600080fd5b60006143928682870161424a565b935050602084013567ffffffffffffffff8111156143af57600080fd5b6143bb868287016142b3565b925050604084013567ffffffffffffffff8111156143d857600080fd5b6143e4868287016142b3565b9150509250925092565b60008060008060008060c0878903121561440757600080fd5b600061441589828a0161424a565b965050602087013567ffffffffffffffff81111561443257600080fd5b61443e89828a016142b3565b955050604087013567ffffffffffffffff81111561445b57600080fd5b61446789828a016142b3565b945050606087013567ffffffffffffffff81111561448457600080fd5b61449089828a016142b3565b935050608087013567ffffffffffffffff8111156144ad57600080fd5b6144b989828a016142b3565b92505060a06144ca89828a0161429e565b9150509295509295509295565b600080604083850312156144ea57600080fd5b60006144f88582860161424a565b9250506020614509858286016142dd565b9150509250929050565b600080600080600080600080610100898b03121561453057600080fd5b600089013567ffffffffffffffff81111561454a57600080fd5b6145568b828c0161425f565b985050602089013567ffffffffffffffff81111561457357600080fd5b61457f8b828c016142b3565b97505060406145908b828c0161429e565b965050606089013567ffffffffffffffff8111156145ad57600080fd5b6145b98b828c016142b3565b95505060806145ca8b828c0161429e565b94505060a06145db8b828c01614289565b93505060c06145ec8b828c0161424a565b92505060e06145fd8b828c01614289565b9150509295985092959890939650565b60006020828403121561461f57600080fd5b600061462d8482850161429e565b91505092915050565b6000806040838503121561464957600080fd5b60006146578582860161429e565b9250506020614668858286016142dd565b9150509250929050565b60006020828403121561468457600080fd5b600082013567ffffffffffffffff81111561469e57600080fd5b6146aa848285016142b3565b91505092915050565b60006146bf8383614707565b60208301905092915050565b60006146d78383614b65565b905092915050565b60006146eb8383614cfd565b905092915050565b60006146ff8383614d73565b905092915050565b614710816154c9565b82525050565b61471f816154c9565b82525050565b600061473082615359565b61473a81856153c4565b935061474583615319565b8060005b8381101561477657815161475d88826146b3565b975061476883615390565b925050600181019050614749565b5085935050505092915050565b600061478e82615364565b61479881856153d5565b9350836020820285016147aa85615329565b8060005b858110156147e657848403895281516147c785826146cb565b94506147d28361539d565b925060208a019950506001810190506147ae565b50829750879550505050505092915050565b60006148038261536f565b61480d81856153e6565b93508360208202850161481f85615339565b8060005b8581101561485b578484038952815161483c85826146df565b9450614847836153aa565b925060208a01995050600181019050614823565b50829750879550505050505092915050565b60006148788261537a565b61488281856153f7565b93508360208202850161489485615349565b8060005b858110156148d057848403895281516148b185826146f3565b94506148bc836153b7565b925060208a01995050600181019050614898565b50829750879550505050505092915050565b6148eb816154db565b82525050565b6148fa816154db565b82525050565b614909816154e7565b82525050565b614918816154e7565b82525050565b600061492982615385565b6149338185615408565b935061494381856020860161552a565b61494c81615728565b840191505092915050565b600061496282615385565b61496c8185615419565b935061497c81856020860161552a565b61498581615728565b840191505092915050565b600061499b82615385565b6149a5818561542a565b93506149b581856020860161552a565b80840191505092915050565b60006149ce602183615419565b91506149d982615739565b604082019050919050565b60006149f1602783615419565b91506149fc82615788565b604082019050919050565b6000614a14602c83615419565b9150614a1f826157d7565b604082019050919050565b6000614a37602483615419565b9150614a4282615826565b604082019050919050565b6000614a5a601383615419565b9150614a6582615875565b602082019050919050565b6000614a7d603283615419565b9150614a888261589e565b604082019050919050565b6000614aa0601b83615419565b9150614aab826158ed565b602082019050919050565b6000614ac3601b83615419565b9150614ace82615916565b602082019050919050565b6000614ae6602783615419565b9150614af18261593f565b604082019050919050565b6000614b09602883615419565b9150614b148261598e565b604082019050919050565b6000614b2c601c83615419565b9150614b37826159dd565b602082019050919050565b6000614b4f601d83615419565b9150614b5a82615a06565b602082019050919050565b600061012083016000830151614b7e6000860182614900565b5060208301518482036020860152614b96828261491e565b9150506040830151614bab6040860182614900565b506060830151614bbe6060860182614900565b5060808301518482036080860152614bd6828261491e565b91505060a0830151614beb60a0860182614900565b5060c0830151614bfe60c08601826148e2565b5060e0830151614c1160e0860182614707565b50610100830151614c266101008601826148e2565b508091505092915050565b600061012083016000830151614c4a6000860182614900565b5060208301518482036020860152614c62828261491e565b9150506040830151614c776040860182614900565b506060830151614c8a6060860182614900565b5060808301518482036080860152614ca2828261491e565b91505060a0830151614cb760a0860182614900565b5060c0830151614cca60c08601826148e2565b5060e0830151614cdd60e0860182614707565b50610100830151614cf26101008601826148e2565b508091505092915050565b600060a083016000830151614d156000860182614900565b506020830151614d286020860182614707565b5060408301518482036040860152614d40828261491e565b9150506060830151614d5560608601826148e2565b506080830151614d6860808601826148e2565b508091505092915050565b6000608083016000830151614d8b6000860182614dd6565b5060208301518482036020860152614da3828261491e565b9150506040830151614db86040860182614707565b506060830151614dcb60608601826148e2565b508091505092915050565b614ddf81615511565b82525050565b614dee81615511565b82525050565b6000614e008284614990565b915081905092915050565b6000606082019050614e206000830186614716565b8181036020830152614e328185614957565b90508181036040830152614e468184614957565b9050949350505050565b600060c082019050614e656000830189614716565b8181036020830152614e778188614957565b90508181036040830152614e8b8187614957565b90508181036060830152614e9f8186614957565b90508181036080830152614eb38185614957565b9050614ec260a083018461490f565b979650505050505050565b6000604082019050614ee26000830185614716565b614eef6020830184614de5565b9392505050565b60006020820190508181036000830152614f108184614725565b905092915050565b60006020820190508181036000830152614f328184614783565b905092915050565b60006020820190508181036000830152614f5481846147f8565b905092915050565b60006020820190508181036000830152614f76818461486d565b905092915050565b6000602082019050614f93600083018461490f565b92915050565b600060a082019050614fae600083018861490f565b614fbb6020830187614716565b8181036040830152614fcd8186614957565b9050614fdc60608301856148f1565b614fe960808301846148f1565b9695505050505050565b600061012082019050615009600083018c61490f565b818103602083015261501b818b614957565b905061502a604083018a61490f565b615037606083018961490f565b81810360808301526150498188614957565b905061505860a083018761490f565b61506560c08301866148f1565b61507260e0830185614716565b6150806101008301846148f1565b9a9950505050505050505050565b600060208201905081810360008301526150a7816149c1565b9050919050565b600060208201905081810360008301526150c7816149e4565b9050919050565b600060208201905081810360008301526150e781614a07565b9050919050565b6000602082019050818103600083015261510781614a2a565b9050919050565b6000602082019050818103600083015261512781614a4d565b9050919050565b6000602082019050818103600083015261514781614a70565b9050919050565b6000602082019050818103600083015261516781614a93565b9050919050565b6000602082019050818103600083015261518781614ab6565b9050919050565b600060208201905081810360008301526151a781614ad9565b9050919050565b600060208201905081810360008301526151c781614afc565b9050919050565b600060208201905081810360008301526151e781614b1f565b9050919050565b6000602082019050818103600083015261520781614b42565b9050919050565b600060208201905081810360008301526152288184614c31565b905092915050565b60006020820190506152456000830184614de5565b92915050565b60006080820190506152606000830187614de5565b81810360208301526152728186614957565b90506152816040830185614716565b61528e60608301846148f1565b95945050505050565b60006152a16152b2565b90506152ad82826155d8565b919050565b6000604051905090565b600067ffffffffffffffff8211156152d7576152d66156f9565b5b602082029050602081019050919050565b600067ffffffffffffffff821115615303576153026156f9565b5b61530c82615728565b9050602081019050919050565b6000819050602082019050919050565b6000819050602082019050919050565b6000819050602082019050919050565b6000819050602082019050919050565b600081519050919050565b600081519050919050565b600081519050919050565b600081519050919050565b600081519050919050565b6000602082019050919050565b6000602082019050919050565b6000602082019050919050565b6000602082019050919050565b600082825260208201905092915050565b600082825260208201905092915050565b600082825260208201905092915050565b600082825260208201905092915050565b600082825260208201905092915050565b600082825260208201905092915050565b600081905092915050565b6000615440826154e7565b915061544b836154e7565b9250817f7fffffffffffffffffffffffffffffffffffffffffffffffffffffffffffffff038313600083121516156154865761548561569b565b5b817f80000000000000000000000000000000000000000000000000000000000000000383126000831216156154be576154bd61569b565b5b828201905092915050565b60006154d4826154f1565b9050919050565b60008115159050919050565b6000819050919050565b600073ffffffffffffffffffffffffffffffffffffffff82169050919050565b6000819050919050565b82818337600083830152505050565b60005b8381101561554857808201518184015260208101905061552d565b83811115615557576000848401525b50505050565b6000615568826154e7565b91507f800000000000000000000000000000000000000000000000000000000000000082141561559b5761559a61569b565b5b600182039050919050565b600060028204905060018216806155be57607f821691505b602082108114156155d2576155d16156ca565b5b50919050565b6155e182615728565b810181811067ffffffffffffffff82111715615600576155ff6156f9565b5b80604052505050565b6000615614826154e7565b91507f7fffffffffffffffffffffffffffffffffffffffffffffffffffffffffffffff8214156156475761564661569b565b5b600182019050919050565b600061565d82615511565b91507fffffffffffffffffffffffffffffffffffffffffffffffffffffffffffffffff8214156156905761568f61569b565b5b600182019050919050565b7f4e487b7100000000000000000000000000000000000000000000000000000000600052601160045260246000fd5b7f4e487b7100000000000000000000000000000000000000000000000000000000600052602260045260246000fd5b7f4e487b7100000000000000000000000000000000000000000000000000000000600052604160045260246000fd5b6000601f19601f8301169050919050565b7f56616c756520646f6573206e6f74206d617463682053656d657374657246656560008201527f2100000000000000000000000000000000000000000000000000000000000000602082015250565b7f436f7572736520616c726561647920706173736564206f722074616b6573207060008201527f61727420696e2100000000000000000000000000000000000000000000000000602082015250565b7f526571756972656420436f75727365206e6f7420706173736564206f7220746160008201527f6b656e205061727420696e210000000000000000000000000000000000000000602082015250565b7f53747564656e7420686173206e6f74207468652072657175697265642064656760008201527f7265652100000000000000000000000000000000000000000000000000000000602082015250565b7f436f7572736520616c72656164792066756c6c00000000000000000000000000600082015250565b7f436f7572736520616c7265616479207061737365642c20556e7375627363726960008201527f7074696f6e206e6f7420706f737369626c650000000000000000000000000000602082015250565b7f4f6e6c792053747564656e742063616e2063616c6c2074686973210000000000600082015250565b7f53656d65737465722046656520616c7265616479207061796564210000000000600082015250565b7f53747564656e7420646f6573206e6f742068617665207265717569726564206360008201527f6f75727365732100000000000000000000000000000000000000000000000000602082015250565b7f53747564656e74206973206e6f7420696e20746865207265717569726564207360008201527f656d657374657221000000000000000000000000000000000000000000000000602082015250565b7f436f75727365206973206e6f742079657420617661696c61626c652100000000600082015250565b7f4f6e6c792050726f666573736f722063616e2063616c6c207468697321000000600082015250565b615a38816154c9565b8114615a4357600080fd5b50565b615a4f816154db565b8114615a5a57600080fd5b50565b615a66816154e7565b8114615a7157600080fd5b50565b615a7d81615511565b8114615a8857600080fd5b5056fea2646970667358221220731c58aad9b93f814c5a49a246fdb94c21e4e68bea227a3e4b241b8b7f5936e064736f6c63430008040033608060405266b1a2bc2ec500006006556040518060400160405280601581526020017f53656d657374657220526567697374726174696f6e00000000000000000000008152506040518060400160405280600281526020017f5352000000000000000000000000000000000000000000000000000000000000815250816000908051906020019062000093929190620000bd565b508060019080519060200190620000ac929190620000bd565b5050506002600881905550620001d2565b828054620000cb906200016d565b90600052602060002090601f016020900481019282620000ef57600085556200013b565b82601f106200010a57805160ff19168380011785556200013b565b828001600101855582156200013b579182015b828111156200013a5782518255916020019190600101906200011d565b5b5090506200014a91906200014e565b5090565b5b80821115620001695760008160009055506001016200014f565b5090565b600060028204905060018216806200018657607f821691505b602082108114156200019d576200019c620001a3565b5b50919050565b7f4e487b7100000000000000000000000000000000000000000000000000000000600052602260045260246000fd5b6127b380620001e26000396000f3fe6080604052600436106101145760003560e01c80636817c76c116100a0578063b88d4fde11610064578063b88d4fde146103c5578063c4076876146103ee578063c87b56dd1461040a578063d5abeb0114610447578063e985e9c51461047257610114565b80636817c76c146102cc57806370a08231146102f757806395d89b4114610334578063a22cb4651461035f578063ada7c4ed1461038857610114565b806318160ddd116100e757806318160ddd146101e757806323b872dd14610212578063346de50a1461023b57806342842e0e146102665780636352211e1461028f57610114565b806301ffc9a71461011957806306fdde0314610156578063081812fc14610181578063095ea7b3146101be575b600080fd5b34801561012557600080fd5b50610140600480360381019061013b9190611d24565b6104af565b60405161014d919061207b565b60405180910390f35b34801561016257600080fd5b5061016b610591565b6040516101789190612096565b60405180910390f35b34801561018d57600080fd5b506101a860048036038101906101a39190611d76565b610623565b6040516101b59190612014565b60405180910390f35b3480156101ca57600080fd5b506101e560048036038101906101e09190611ce8565b610669565b005b3480156101f357600080fd5b506101fc610781565b6040516102099190612218565b60405180910390f35b34801561021e57600080fd5b5061023960048036038101906102349190611be2565b610787565b005b34801561024757600080fd5b506102506107e7565b60405161025d919061207b565b60405180910390f35b34801561027257600080fd5b5061028d60048036038101906102889190611be2565b6107fa565b005b34801561029b57600080fd5b506102b660048036038101906102b19190611d76565b61081a565b6040516102c39190612014565b60405180910390f35b3480156102d857600080fd5b506102e16108a1565b6040516102ee9190612218565b60405180910390f35b34801561030357600080fd5b5061031e60048036038101906103199190611b7d565b6108a7565b60405161032b9190612218565b60405180910390f35b34801561034057600080fd5b5061034961095f565b6040516103569190612096565b60405180910390f35b34801561036b57600080fd5b5061038660048036038101906103819190611cac565b6109f1565b005b34801561039457600080fd5b506103af60048036038101906103aa9190611b7d565b610a07565b6040516103bc9190612218565b60405180910390f35b3480156103d157600080fd5b506103ec60048036038101906103e79190611c31565b610a1f565b005b61040860048036038101906104039190611ce8565b610a81565b005b34801561041657600080fd5b50610431600480360381019061042c9190611d76565b610a8f565b60405161043e9190612096565b60405180910390f35b34801561045357600080fd5b5061045c610af7565b6040516104699190612218565b60405180910390f35b34801561047e57600080fd5b5061049960048036038101906104949190611ba6565b610afd565b6040516104a6919061207b565b60405180910390f35b60007f80ac58cd000000000000000000000000000000000000000000000000000000007bffffffffffffffffffffffffffffffffffffffffffffffffffffffff1916827bffffffffffffffffffffffffffffffffffffffffffffffffffffffff1916148061057a57507f5b5e139f000000000000000000000000000000000000000000000000000000007bffffffffffffffffffffffffffffffffffffffffffffffffffffffff1916827bffffffffffffffffffffffffffffffffffffffffffffffffffffffff1916145b8061058a575061058982610b91565b5b9050919050565b6060600080546105a090612382565b80601f01602080910402602001604051908101604052809291908181526020018280546105cc90612382565b80156106195780601f106105ee57610100808354040283529160200191610619565b820191906000526020600020905b8154815290600101906020018083116105fc57829003601f168201915b5050505050905090565b600061062e82610bfb565b6004600083815260200190815260200160002060009054906101000a900473ffffffffffffffffffffffffffffffffffffffff169050919050565b60006106748261081a565b90508073ffffffffffffffffffffffffffffffffffffffff168373ffffffffffffffffffffffffffffffffffffffff1614156106e5576040517f08c379a00000000000000000000000000000000000000000000000000000000081526004016106dc906121d8565b60405180910390fd5b8073ffffffffffffffffffffffffffffffffffffffff16610704610c46565b73ffffffffffffffffffffffffffffffffffffffff16148061073357506107328161072d610c46565b610afd565b5b610772576040517f08c379a0000000000000000000000000000000000000000000000000000000008152600401610769906121f8565b60405180910390fd5b61077c8383610c4e565b505050565b60075481565b610798610792610c46565b82610d07565b6107d7576040517f08c379a00000000000000000000000000000000000000000000000000000000081526004016107ce906120b8565b60405180910390fd5b6107e2838383610d9c565b505050565b600960009054906101000a900460ff1681565b61081583838360405180602001604052806000815250610a1f565b505050565b60008061082683611096565b9050600073ffffffffffffffffffffffffffffffffffffffff168173ffffffffffffffffffffffffffffffffffffffff161415610898576040517f08c379a000000000000000000000000000000000000000000000000000000000815260040161088f906121b8565b60405180910390fd5b80915050919050565b60065481565b60008073ffffffffffffffffffffffffffffffffffffffff168273ffffffffffffffffffffffffffffffffffffffff161415610918576040517f08c379a000000000000000000000000000000000000000000000000000000000815260040161090f90612178565b60405180910390fd5b600360008373ffffffffffffffffffffffffffffffffffffffff1673ffffffffffffffffffffffffffffffffffffffff168152602001908152602001600020549050919050565b60606001805461096e90612382565b80601f016020809104026020016040519081016040528092919081815260200182805461099a90612382565b80156109e75780601f106109bc576101008083540402835291602001916109e7565b820191906000526020600020905b8154815290600101906020018083116109ca57829003601f168201915b5050505050905090565b610a036109fc610c46565b83836110d3565b5050565b600a6020528060005260406000206000915090505481565b610a30610a2a610c46565b83610d07565b610a6f576040517f08c379a0000000000000000000000000000000000000000000000000000000008152600401610a66906120b8565b60405180910390fd5b610a7b84848484611240565b50505050565b610a8b828261129c565b5050565b6060610a9a82610bfb565b6000610aa46112ba565b90506000815111610ac45760405180602001604052806000815250610aef565b80610ace846112d1565b604051602001610adf929190611ff0565b6040516020818303038152906040525b915050919050565b60085481565b6000600560008473ffffffffffffffffffffffffffffffffffffffff1673ffffffffffffffffffffffffffffffffffffffff16815260200190815260200160002060008373ffffffffffffffffffffffffffffffffffffffff1673ffffffffffffffffffffffffffffffffffffffff16815260200190815260200160002060009054906101000a900460ff16905092915050565b60007f01ffc9a7000000000000000000000000000000000000000000000000000000007bffffffffffffffffffffffffffffffffffffffffffffffffffffffff1916827bffffffffffffffffffffffffffffffffffffffffffffffffffffffff1916149050919050565b610c04816113f5565b610c43576040517f08c379a0000000000000000000000000000000000000000000000000000000008152600401610c3a906121b8565b60405180910390fd5b50565b600033905090565b816004600083815260200190815260200160002060006101000a81548173ffffffffffffffffffffffffffffffffffffffff021916908373ffffffffffffffffffffffffffffffffffffffff160217905550808273ffffffffffffffffffffffffffffffffffffffff16610cc18361081a565b73ffffffffffffffffffffffffffffffffffffffff167f8c5be1e5ebec7d5bd14f71427d1e84f3dd0314c0f7b2291e5b200ac8c7c3b92560405160405180910390a45050565b600080610d138361081a565b90508073ffffffffffffffffffffffffffffffffffffffff168473ffffffffffffffffffffffffffffffffffffffff161480610d555750610d548185610afd565b5b80610d9357508373ffffffffffffffffffffffffffffffffffffffff16610d7b84610623565b73ffffffffffffffffffffffffffffffffffffffff16145b91505092915050565b8273ffffffffffffffffffffffffffffffffffffffff16610dbc8261081a565b73ffffffffffffffffffffffffffffffffffffffff1614610e12576040517f08c379a0000000000000000000000000000000000000000000000000000000008152600401610e09906120f8565b60405180910390fd5b600073ffffffffffffffffffffffffffffffffffffffff168273ffffffffffffffffffffffffffffffffffffffff161415610e82576040517f08c379a0000000000000000000000000000000000000000000000000000000008152600401610e7990612138565b60405180910390fd5b610e8f8383836001611436565b8273ffffffffffffffffffffffffffffffffffffffff16610eaf8261081a565b73ffffffffffffffffffffffffffffffffffffffff1614610f05576040517f08c379a0000000000000000000000000000000000000000000000000000000008152600401610efc906120f8565b60405180910390fd5b6004600082815260200190815260200160002060006101000a81549073ffffffffffffffffffffffffffffffffffffffff02191690556001600360008573ffffffffffffffffffffffffffffffffffffffff1673ffffffffffffffffffffffffffffffffffffffff168152602001908152602001600020600082825403925050819055506001600360008473ffffffffffffffffffffffffffffffffffffffff1673ffffffffffffffffffffffffffffffffffffffff16815260200190815260200160002060008282540192505081905550816002600083815260200190815260200160002060006101000a81548173ffffffffffffffffffffffffffffffffffffffff021916908373ffffffffffffffffffffffffffffffffffffffff160217905550808273ffffffffffffffffffffffffffffffffffffffff168473ffffffffffffffffffffffffffffffffffffffff167fddf252ad1be2c89b69c2b068fc378daa952ba7f163c4a11628f55a4df523b3ef60405160405180910390a4611091838383600161143c565b505050565b60006002600083815260200190815260200160002060009054906101000a900473ffffffffffffffffffffffffffffffffffffffff169050919050565b8173ffffffffffffffffffffffffffffffffffffffff168373ffffffffffffffffffffffffffffffffffffffff161415611142576040517f08c379a000000000000000000000000000000000000000000000000000000000815260040161113990612158565b60405180910390fd5b80600560008573ffffffffffffffffffffffffffffffffffffffff1673ffffffffffffffffffffffffffffffffffffffff16815260200190815260200160002060008473ffffffffffffffffffffffffffffffffffffffff1673ffffffffffffffffffffffffffffffffffffffff16815260200190815260200160002060006101000a81548160ff0219169083151502179055508173ffffffffffffffffffffffffffffffffffffffff168373ffffffffffffffffffffffffffffffffffffffff167f17307eab39ab6107e8899845ad3d59bd9653f200f220920489ca2b5937696c3183604051611233919061207b565b60405180910390a3505050565b61124b848484610d9c565b61125784848484611442565b611296576040517f08c379a000000000000000000000000000000000000000000000000000000000815260040161128d906120d8565b60405180910390fd5b50505050565b6112b68282604051806020016040528060008152506115d9565b5050565b606060405180602001604052806000815250905090565b6060600060016112e084611634565b01905060008167ffffffffffffffff811115611325577f4e487b7100000000000000000000000000000000000000000000000000000000600052604160045260246000fd5b6040519080825280601f01601f1916602001820160405280156113575781602001600182028036833780820191505090505b509050600082602001820190505b6001156113ea578080600190039150507f3031323334353637383961626364656600000000000000000000000000000000600a86061a8153600a85816113d4577f4e487b7100000000000000000000000000000000000000000000000000000000600052601260045260246000fd5b04945060008514156113e5576113ea565b611365565b819350505050919050565b60008073ffffffffffffffffffffffffffffffffffffffff1661141783611096565b73ffffffffffffffffffffffffffffffffffffffff1614159050919050565b50505050565b50505050565b60006114638473ffffffffffffffffffffffffffffffffffffffff1661186b565b156115cc578373ffffffffffffffffffffffffffffffffffffffff1663150b7a0261148c610c46565b8786866040518563ffffffff1660e01b81526004016114ae949392919061202f565b602060405180830381600087803b1580156114c857600080fd5b505af19250505080156114f957506040513d601f19601f820116820180604052508101906114f69190611d4d565b60015b61157c573d8060008114611529576040519150601f19603f3d011682016040523d82523d6000602084013e61152e565b606091505b50600081511415611574576040517f08c379a000000000000000000000000000000000000000000000000000000000815260040161156b906120d8565b60405180910390fd5b805181602001fd5b63150b7a0260e01b7bffffffffffffffffffffffffffffffffffffffffffffffffffffffff1916817bffffffffffffffffffffffffffffffffffffffffffffffffffffffff1916149150506115d1565b600190505b949350505050565b6115e3838361188e565b6115f06000848484611442565b61162f576040517f08c379a0000000000000000000000000000000000000000000000000000000008152600401611626906120d8565b60405180910390fd5b505050565b600080600090507a184f03e93ff9f4daa797ed6e38ed64bf6a1f01000000000000000083106116b8577a184f03e93ff9f4daa797ed6e38ed64bf6a1f01000000000000000083816116ae577f4e487b7100000000000000000000000000000000000000000000000000000000600052601260045260246000fd5b0492506040810190505b6d04ee2d6d415b85acef8100000000831061171b576d04ee2d6d415b85acef81000000008381611711577f4e487b7100000000000000000000000000000000000000000000000000000000600052601260045260246000fd5b0492506020810190505b662386f26fc10000831061177057662386f26fc100008381611766577f4e487b7100000000000000000000000000000000000000000000000000000000600052601260045260246000fd5b0492506010810190505b6305f5e10083106117bf576305f5e10083816117b5577f4e487b7100000000000000000000000000000000000000000000000000000000600052601260045260246000fd5b0492506008810190505b612710831061180a576127108381611800577f4e487b7100000000000000000000000000000000000000000000000000000000600052601260045260246000fd5b0492506004810190505b606483106118535760648381611849577f4e487b7100000000000000000000000000000000000000000000000000000000600052601260045260246000fd5b0492506002810190505b600a8310611862576001810190505b80915050919050565b6000808273ffffffffffffffffffffffffffffffffffffffff163b119050919050565b600073ffffffffffffffffffffffffffffffffffffffff168273ffffffffffffffffffffffffffffffffffffffff1614156118fe576040517f08c379a00000000000000000000000000000000000000000000000000000000081526004016118f590612198565b60405180910390fd5b611907816113f5565b15611947576040517f08c379a000000000000000000000000000000000000000000000000000000000815260040161193e90612118565b60405180910390fd5b611955600083836001611436565b61195e816113f5565b1561199e576040517f08c379a000000000000000000000000000000000000000000000000000000000815260040161199590612118565b60405180910390fd5b6001600360008473ffffffffffffffffffffffffffffffffffffffff1673ffffffffffffffffffffffffffffffffffffffff16815260200190815260200160002060008282540192505081905550816002600083815260200190815260200160002060006101000a81548173ffffffffffffffffffffffffffffffffffffffff021916908373ffffffffffffffffffffffffffffffffffffffff160217905550808273ffffffffffffffffffffffffffffffffffffffff16600073ffffffffffffffffffffffffffffffffffffffff167fddf252ad1be2c89b69c2b068fc378daa952ba7f163c4a11628f55a4df523b3ef60405160405180910390a4611aa860008383600161143c565b5050565b6000611abf611aba84612258565b612233565b905082815260208101848484011115611ad757600080fd5b611ae2848285612340565b509392505050565b600081359050611af981612721565b92915050565b600081359050611b0e81612738565b92915050565b600081359050611b238161274f565b92915050565b600081519050611b388161274f565b92915050565b600082601f830112611b4f57600080fd5b8135611b5f848260208601611aac565b91505092915050565b600081359050611b7781612766565b92915050565b600060208284031215611b8f57600080fd5b6000611b9d84828501611aea565b91505092915050565b60008060408385031215611bb957600080fd5b6000611bc785828601611aea565b9250506020611bd885828601611aea565b9150509250929050565b600080600060608486031215611bf757600080fd5b6000611c0586828701611aea565b9350506020611c1686828701611aea565b9250506040611c2786828701611b68565b9150509250925092565b60008060008060808587031215611c4757600080fd5b6000611c5587828801611aea565b9450506020611c6687828801611aea565b9350506040611c7787828801611b68565b925050606085013567ffffffffffffffff811115611c9457600080fd5b611ca087828801611b3e565b91505092959194509250565b60008060408385031215611cbf57600080fd5b6000611ccd85828601611aea565b9250506020611cde85828601611aff565b9150509250929050565b60008060408385031215611cfb57600080fd5b6000611d0985828601611aea565b9250506020611d1a85828601611b68565b9150509250929050565b600060208284031215611d3657600080fd5b6000611d4484828501611b14565b91505092915050565b600060208284031215611d5f57600080fd5b6000611d6d84828501611b29565b91505092915050565b600060208284031215611d8857600080fd5b6000611d9684828501611b68565b91505092915050565b611da8816122cc565b82525050565b611db7816122de565b82525050565b6000611dc882612289565b611dd2818561229f565b9350611de281856020860161234f565b611deb81612443565b840191505092915050565b6000611e0182612294565b611e0b81856122b0565b9350611e1b81856020860161234f565b611e2481612443565b840191505092915050565b6000611e3a82612294565b611e4481856122c1565b9350611e5481856020860161234f565b80840191505092915050565b6000611e6d602d836122b0565b9150611e7882612454565b604082019050919050565b6000611e906032836122b0565b9150611e9b826124a3565b604082019050919050565b6000611eb36025836122b0565b9150611ebe826124f2565b604082019050919050565b6000611ed6601c836122b0565b9150611ee182612541565b602082019050919050565b6000611ef96024836122b0565b9150611f048261256a565b604082019050919050565b6000611f1c6019836122b0565b9150611f27826125b9565b602082019050919050565b6000611f3f6029836122b0565b9150611f4a826125e2565b604082019050919050565b6000611f626020836122b0565b9150611f6d82612631565b602082019050919050565b6000611f856018836122b0565b9150611f908261265a565b602082019050919050565b6000611fa86021836122b0565b9150611fb382612683565b604082019050919050565b6000611fcb603d836122b0565b9150611fd6826126d2565b604082019050919050565b611fea81612336565b82525050565b6000611ffc8285611e2f565b91506120088284611e2f565b91508190509392505050565b60006020820190506120296000830184611d9f565b92915050565b60006080820190506120446000830187611d9f565b6120516020830186611d9f565b61205e6040830185611fe1565b81810360608301526120708184611dbd565b905095945050505050565b60006020820190506120906000830184611dae565b92915050565b600060208201905081810360008301526120b08184611df6565b905092915050565b600060208201905081810360008301526120d181611e60565b9050919050565b600060208201905081810360008301526120f181611e83565b9050919050565b6000602082019050818103600083015261211181611ea6565b9050919050565b6000602082019050818103600083015261213181611ec9565b9050919050565b6000602082019050818103600083015261215181611eec565b9050919050565b6000602082019050818103600083015261217181611f0f565b9050919050565b6000602082019050818103600083015261219181611f32565b9050919050565b600060208201905081810360008301526121b181611f55565b9050919050565b600060208201905081810360008301526121d181611f78565b9050919050565b600060208201905081810360008301526121f181611f9b565b9050919050565b6000602082019050818103600083015261221181611fbe565b9050919050565b600060208201905061222d6000830184611fe1565b92915050565b600061223d61224e565b905061224982826123b4565b919050565b6000604051905090565b600067ffffffffffffffff82111561227357612272612414565b5b61227c82612443565b9050602081019050919050565b600081519050919050565b600081519050919050565b600082825260208201905092915050565b600082825260208201905092915050565b600081905092915050565b60006122d782612316565b9050919050565b60008115159050919050565b60007fffffffff0000000000000000000000000000000000000000000000000000000082169050919050565b600073ffffffffffffffffffffffffffffffffffffffff82169050919050565b6000819050919050565b82818337600083830152505050565b60005b8381101561236d578082015181840152602081019050612352565b8381111561237c576000848401525b50505050565b6000600282049050600182168061239a57607f821691505b602082108114156123ae576123ad6123e5565b5b50919050565b6123bd82612443565b810181811067ffffffffffffffff821117156123dc576123db612414565b5b80604052505050565b7f4e487b7100000000000000000000000000000000000000000000000000000000600052602260045260246000fd5b7f4e487b7100000000000000000000000000000000000000000000000000000000600052604160045260246000fd5b6000601f19601f8301169050919050565b7f4552433732313a2063616c6c6572206973206e6f7420746f6b656e206f776e6560008201527f72206f7220617070726f76656400000000000000000000000000000000000000602082015250565b7f4552433732313a207472616e7366657220746f206e6f6e20455243373231526560008201527f63656976657220696d706c656d656e7465720000000000000000000000000000602082015250565b7f4552433732313a207472616e736665722066726f6d20696e636f72726563742060008201527f6f776e6572000000000000000000000000000000000000000000000000000000602082015250565b7f4552433732313a20746f6b656e20616c7265616479206d696e74656400000000600082015250565b7f4552433732313a207472616e7366657220746f20746865207a65726f2061646460008201527f7265737300000000000000000000000000000000000000000000000000000000602082015250565b7f4552433732313a20617070726f766520746f2063616c6c657200000000000000600082015250565b7f4552433732313a2061646472657373207a65726f206973206e6f74206120766160008201527f6c6964206f776e65720000000000000000000000000000000000000000000000602082015250565b7f4552433732313a206d696e7420746f20746865207a65726f2061646472657373600082015250565b7f4552433732313a20696e76616c696420746f6b656e2049440000000000000000600082015250565b7f4552433732313a20617070726f76616c20746f2063757272656e74206f776e6560008201527f7200000000000000000000000000000000000000000000000000000000000000602082015250565b7f4552433732313a20617070726f76652063616c6c6572206973206e6f7420746f60008201527f6b656e206f776e6572206f7220617070726f76656420666f7220616c6c000000602082015250565b61272a816122cc565b811461273557600080fd5b50565b612741816122de565b811461274c57600080fd5b50565b612758816122ea565b811461276357600080fd5b50565b61276f81612336565b811461277a57600080fd5b5056fea26469706673582212203b774967de62c9b285c62133beb8bfdc4620475adfbd1e75d0f9f978ccc9a7e164736f6c63430008040033",
  "linkReferences": {},
  "deployedLinkReferences": {}
}