{
  "_format": "hh-sol-artifact-1",
  "contractName": "Studentmngmt",
  "sourceName": "solidity/contracts/Studentmngmt.sol",
  "abi": [
    {
      "inputs": [],
      "stateMutability": "nonpayable",
      "type": "constructor"
    },
    {
      "inputs": [
        {
          "internalType": "int256[]",
          "name": "_requiredCourses",
          "type": "int256[]"
        },
        {
          "internalType": "string",
          "name": "_name",
          "type": "string"
        },
        {
          "internalType": "int256",
          "name": "_memberLimit",
          "type": "int256"
        },
        {
          "internalType": "string",
          "name": "_degree",
          "type": "string"
        },
        {
          "internalType": "int256",
          "name": "_semester",
          "type": "int256"
        },
        {
          "internalType": "bool",
          "name": "_isCourseRequired",
          "type": "bool"
        },
        {
          "internalType": "address",
          "name": "_createdByProf",
          "type": "address"
        },
        {
          "internalType": "bool",
          "name": "_available",
          "type": "bool"
        }
      ],
      "name": "addNewCourse",
      "outputs": [],
      "stateMutability": "nonpayable",
      "type": "function"
    },
    {
      "inputs": [
        {
          "internalType": "address",
          "name": "_profAddress",
          "type": "address"
        },
        {
          "internalType": "string",
          "name": "_fName",
          "type": "string"
        },
        {
          "internalType": "string",
          "name": "_lName",
          "type": "string"
        }
      ],
      "name": "addNewProfessor",
      "outputs": [],
      "stateMutability": "nonpayable",
      "type": "function"
    },
    {
      "inputs": [
        {
          "internalType": "address",
          "name": "_studentAddress",
          "type": "address"
        },
        {
          "internalType": "string",
          "name": "_fName",
          "type": "string"
        },
        {
          "internalType": "string",
          "name": "_lName",
          "type": "string"
        },
        {
          "internalType": "string",
          "name": "_regAddress",
          "type": "string"
        },
        {
          "internalType": "string",
          "name": "_degree",
          "type": "string"
        },
        {
          "internalType": "int256",
          "name": "_semester",
          "type": "int256"
        }
      ],
      "name": "addNewStudent",
      "outputs": [],
      "stateMutability": "nonpayable",
      "type": "function"
    },
    {
      "inputs": [
        {
          "internalType": "address",
          "name": "_student",
          "type": "address"
        },
        {
          "internalType": "string",
          "name": "_semester",
          "type": "string"
        }
      ],
      "name": "addSemesterToPay",
      "outputs": [],
      "stateMutability": "nonpayable",
      "type": "function"
    },
    {
      "inputs": [],
      "name": "courseCount",
      "outputs": [
        {
          "internalType": "int256",
          "name": "",
          "type": "int256"
        }
      ],
      "stateMutability": "view",
      "type": "function"
    },
    {
      "inputs": [
        {
          "internalType": "address",
          "name": "",
          "type": "address"
        },
        {
          "internalType": "uint256",
          "name": "",
          "type": "uint256"
        }
      ],
      "name": "eCourses",
      "outputs": [
        {
          "internalType": "int256",
          "name": "ID",
          "type": "int256"
        },
        {
          "internalType": "address",
          "name": "student",
          "type": "address"
        },
        {
          "internalType": "string",
          "name": "mark",
          "type": "string"
        },
        {
          "internalType": "bool",
          "name": "takesPart",
          "type": "bool"
        },
        {
          "internalType": "bool",
          "name": "passed",
          "type": "bool"
        }
      ],
      "stateMutability": "view",
      "type": "function"
    },
    {
      "inputs": [
        {
          "internalType": "int256",
          "name": "_courseID",
          "type": "int256"
        }
      ],
      "name": "enrollInCourse",
      "outputs": [],
      "stateMutability": "nonpayable",
      "type": "function"
    },
    {
      "inputs": [],
      "name": "getAllCourses",
      "outputs": [
        {
          "components": [
            {
              "internalType": "int256",
              "name": "ID",
              "type": "int256"
            },
            {
              "internalType": "string",
              "name": "name",
              "type": "string"
            },
            {
              "internalType": "int256",
              "name": "memberLimit",
              "type": "int256"
            },
            {
              "internalType": "int256",
              "name": "memberCount",
              "type": "int256"
            },
            {
              "internalType": "string",
              "name": "degree",
              "type": "string"
            },
            {
              "internalType": "int256",
              "name": "semester",
              "type": "int256"
            },
            {
              "internalType": "bool",
              "name": "isCourseRequired",
              "type": "bool"
            },
            {
              "internalType": "address",
              "name": "createdByProf",
              "type": "address"
            },
            {
              "internalType": "bool",
              "name": "available",
              "type": "bool"
            }
          ],
          "internalType": "struct Studentmngmt.Course[]",
          "name": "",
          "type": "tuple[]"
        }
      ],
      "stateMutability": "view",
      "type": "function"
    },
    {
      "inputs": [],
      "name": "getAllProfessorAddresses",
      "outputs": [
        {
          "internalType": "address[]",
          "name": "",
          "type": "address[]"
        }
      ],
      "stateMutability": "view",
      "type": "function"
    },
    {
      "inputs": [],
      "name": "getAllStudentAddresses",
      "outputs": [
        {
          "internalType": "address[]",
          "name": "",
          "type": "address[]"
        }
      ],
      "stateMutability": "view",
      "type": "function"
    },
    {
      "inputs": [
        {
          "internalType": "address",
          "name": "_student",
          "type": "address"
        }
      ],
      "name": "getEnrolledCourses",
      "outputs": [
        {
          "components": [
            {
              "internalType": "int256",
              "name": "ID",
              "type": "int256"
            },
            {
              "internalType": "address",
              "name": "student",
              "type": "address"
            },
            {
              "internalType": "string",
              "name": "mark",
              "type": "string"
            },
            {
              "internalType": "bool",
              "name": "takesPart",
              "type": "bool"
            },
            {
              "internalType": "bool",
              "name": "passed",
              "type": "bool"
            }
          ],
          "internalType": "struct Studentmngmt.EnrolledCourse[]",
          "name": "",
          "type": "tuple[]"
        }
      ],
      "stateMutability": "view",
      "type": "function"
    },
    {
      "inputs": [
        {
          "internalType": "address",
          "name": "_student",
          "type": "address"
        }
      ],
      "name": "getSemesterFees",
      "outputs": [
        {
          "components": [
            {
              "internalType": "uint256",
              "name": "tokenID",
              "type": "uint256"
            },
            {
              "internalType": "string",
              "name": "semester",
              "type": "string"
            },
            {
              "internalType": "address",
              "name": "student",
              "type": "address"
            },
            {
              "internalType": "bool",
              "name": "isPayed",
              "type": "bool"
            }
          ],
          "internalType": "struct Studentmngmt.SemesterRegistration[]",
          "name": "",
          "type": "tuple[]"
        }
      ],
      "stateMutability": "view",
      "type": "function"
    },
    {
      "inputs": [
        {
          "internalType": "address",
          "name": "_student",
          "type": "address"
        }
      ],
      "name": "getStudentDetails",
      "outputs": [
        {
          "internalType": "string",
          "name": "",
          "type": "string"
        },
        {
          "internalType": "string",
          "name": "",
          "type": "string"
        },
        {
          "internalType": "string",
          "name": "",
          "type": "string"
        },
        {
          "internalType": "string",
          "name": "",
          "type": "string"
        },
        {
          "internalType": "int256",
          "name": "",
          "type": "int256"
        }
      ],
      "stateMutability": "view",
      "type": "function"
    },
    {
      "inputs": [
        {
          "internalType": "string",
          "name": "_semester",
          "type": "string"
        }
      ],
      "name": "paySemester",
      "outputs": [],
      "stateMutability": "payable",
      "type": "function"
    },
    {
      "inputs": [
        {
          "internalType": "address",
          "name": "",
          "type": "address"
        }
      ],
      "name": "profs",
      "outputs": [
        {
          "internalType": "address",
          "name": "profAddress",
          "type": "address"
        },
        {
          "internalType": "string",
          "name": "fName",
          "type": "string"
        },
        {
          "internalType": "string",
          "name": "lName",
          "type": "string"
        }
      ],
      "stateMutability": "view",
      "type": "function"
    },
    {
      "inputs": [
        {
          "internalType": "int256",
          "name": "",
          "type": "int256"
        },
        {
          "internalType": "uint256",
          "name": "",
          "type": "uint256"
        }
      ],
      "name": "requiredCourses",
      "outputs": [
        {
          "internalType": "int256",
          "name": "",
          "type": "int256"
        }
      ],
      "stateMutability": "view",
      "type": "function"
    },
    {
      "inputs": [
        {
          "internalType": "address",
          "name": "",
          "type": "address"
        },
        {
          "internalType": "uint256",
          "name": "",
          "type": "uint256"
        }
      ],
      "name": "semesterFees",
      "outputs": [
        {
          "internalType": "uint256",
          "name": "tokenID",
          "type": "uint256"
        },
        {
          "internalType": "string",
          "name": "semester",
          "type": "string"
        },
        {
          "internalType": "address",
          "name": "student",
          "type": "address"
        },
        {
          "internalType": "bool",
          "name": "isPayed",
          "type": "bool"
        }
      ],
      "stateMutability": "view",
      "type": "function"
    },
    {
      "inputs": [
        {
          "internalType": "address",
          "name": "",
          "type": "address"
        }
      ],
      "name": "students",
      "outputs": [
        {
          "internalType": "address",
          "name": "studentAddress",
          "type": "address"
        },
        {
          "internalType": "string",
          "name": "fName",
          "type": "string"
        },
        {
          "internalType": "string",
          "name": "lName",
          "type": "string"
        },
        {
          "internalType": "string",
          "name": "regAddress",
          "type": "string"
        },
        {
          "internalType": "string",
          "name": "degree",
          "type": "string"
        },
        {
          "internalType": "int256",
          "name": "semester",
          "type": "int256"
        }
      ],
      "stateMutability": "view",
      "type": "function"
    },
    {
      "inputs": [],
      "name": "tokenCount",
      "outputs": [
        {
          "internalType": "uint256",
          "name": "",
          "type": "uint256"
        }
      ],
      "stateMutability": "view",
      "type": "function"
    },
    {
      "inputs": [
        {
          "internalType": "int256",
          "name": "_courseID",
          "type": "int256"
        }
      ],
      "name": "unsubscribeFromCourse",
      "outputs": [],
      "stateMutability": "nonpayable",
      "type": "function"
    },
    {
      "inputs": [
        {
          "internalType": "address",
          "name": "_student",
          "type": "address"
        },
        {
          "internalType": "int256",
          "name": "_courseID",
          "type": "int256"
        },
        {
          "internalType": "string",
          "name": "_mark",
          "type": "string"
        }
      ],
      "name": "updateMarkOfStudent",
      "outputs": [],
      "stateMutability": "nonpayable",
      "type": "function"
    },
    {
      "inputs": [
        {
          "internalType": "string",
          "name": "_regAddress",
          "type": "string"
        }
      ],
      "name": "updateRegAddressStudent",
      "outputs": [],
      "stateMutability": "nonpayable",
      "type": "function"
    }
  ],
  "bytecode": "0x6080604052604051620000129062000084565b604051809103906000f0801580156200002f573d6000803e3d6000fd5b50600260006101000a81548173ffffffffffffffffffffffffffffffffffffffff021916908373ffffffffffffffffffffffffffffffffffffffff1602179055503480156200007d57600080fd5b5062000092565b61299580620054b883390190565b61541680620000a26000396000f3fe6080604052600436106101355760003560e01c806366055159116100ab578063a6c807a91161006f578063a6c807a914610432578063c7ce2a4a14610474578063d0b371bd146104b1578063e08a99cf146104f2578063e70cc6eb1461051b578063fb7f563a1461054657610135565b8063660551591461036e57806366278e39146103995780638d48f7d2146103c25780639d4c2aa7146103de5780639f181b5e1461040757610135565b806327910959116100fd578063279109591461025e5780633b31cf6d14610287578063420c017d146102b057806345667721146102d957806351c1a7711461031a5780635345c9121461034357610135565b806304e48bd11461013a578063060c3488146101655780630993031e146101a557806313fdb0a8146101e257806319a3df8314610221575b600080fd5b34801561014657600080fd5b5061014f61056f565b60405161015c9190614887565b60405180910390f35b34801561017157600080fd5b5061018c60048036038101906101879190613f12565b6107a7565b60405161019c9493929190614b6c565b60405180910390f35b3480156101b157600080fd5b506101cc60048036038101906101c79190613cc6565b6108a9565b6040516101d991906148a9565b60405180910390f35b3480156101ee57600080fd5b5061020960048036038101906102049190613cc6565b610a6f565b6040516102189392919061477a565b60405180910390f35b34801561022d57600080fd5b5061024860048036038101906102439190613cc6565b610bc9565b60405161025591906148cb565b60405180910390f35b34801561026a57600080fd5b5061028560048036038101906102809190614048565b610d74565b005b34801561029357600080fd5b506102ae60048036038101906102a99190613e29565b611325565b005b3480156102bc57600080fd5b506102d760048036038101906102d291906140ad565b6114da565b005b3480156102e557600080fd5b5061030060048036038101906102fb9190613f12565b611606565b604051610311959493929190614908565b60405180910390f35b34801561032657600080fd5b50610341600480360381019061033c9190614048565b61171b565b005b34801561034f57600080fd5b50610358612642565b6040516103659190614865565b60405180910390f35b34801561037a57600080fd5b506103836126d0565b60405161039091906148ed565b60405180910390f35b3480156103a557600080fd5b506103c060048036038101906103bb9190613d56565b6126d6565b005b6103dc60048036038101906103d791906140ad565b6128fe565b005b3480156103ea57600080fd5b5061040560048036038101906104009190613cef565b612d39565b005b34801561041357600080fd5b5061041c612f29565b6040516104299190614b51565b60405180910390f35b34801561043e57600080fd5b5061045960048036038101906104549190613cc6565b612f2f565b60405161046b969594939291906147bf565b60405180910390f35b34801561048057600080fd5b5061049b60048036038101906104969190614071565b6131ab565b6040516104a891906148ed565b60405180910390f35b3480156104bd57600080fd5b506104d860048036038101906104d39190613cc6565b6131dc565b6040516104e9959493929190614962565b60405180910390f35b3480156104fe57600080fd5b5061051960048036038101906105149190613f4e565b613506565b005b34801561052757600080fd5b5061053061379b565b60405161053d9190614865565b60405180910390f35b34801561055257600080fd5b5061056d60048036038101906105689190613daa565b613829565b005b60606005805480602002602001604051908101604052809291908181526020016000905b8282101561079e578382906000526020600020906007020160405180610120016040529081600082015481526020016001820180546105d190614efb565b80601f01602080910402602001604051908101604052809291908181526020018280546105fd90614efb565b801561064a5780601f1061061f5761010080835404028352916020019161064a565b820191906000526020600020905b81548152906001019060200180831161062d57829003601f168201915b50505050508152602001600282015481526020016003820154815260200160048201805461067790614efb565b80601f01602080910402602001604051908101604052809291908181526020018280546106a390614efb565b80156106f05780601f106106c5576101008083540402835291602001916106f0565b820191906000526020600020905b8154815290600101906020018083116106d357829003601f168201915b50505050508152602001600582015481526020016006820160009054906101000a900460ff161515151581526020016006820160019054906101000a900473ffffffffffffffffffffffffffffffffffffffff1673ffffffffffffffffffffffffffffffffffffffff1673ffffffffffffffffffffffffffffffffffffffff1681526020016006820160159054906101000a900460ff16151515158152505081526020019060010190610593565b50505050905090565b600a60205281600052604060002081815481106107c357600080fd5b9060005260206000209060030201600091509150508060000154908060010180546107ed90614efb565b80601f016020809104026020016040519081016040528092919081815260200182805461081990614efb565b80156108665780601f1061083b57610100808354040283529160200191610866565b820191906000526020600020905b81548152906001019060200180831161084957829003601f168201915b5050505050908060020160009054906101000a900473ffffffffffffffffffffffffffffffffffffffff16908060020160149054906101000a900460ff16905084565b6060600860008373ffffffffffffffffffffffffffffffffffffffff1673ffffffffffffffffffffffffffffffffffffffff168152602001908152602001600020805480602002602001604051908101604052809291908181526020016000905b82821015610a6457838290600052602060002090600402016040518060a0016040529081600082015481526020016001820160009054906101000a900473ffffffffffffffffffffffffffffffffffffffff1673ffffffffffffffffffffffffffffffffffffffff1673ffffffffffffffffffffffffffffffffffffffff16815260200160028201805461099d90614efb565b80601f01602080910402602001604051908101604052809291908181526020018280546109c990614efb565b8015610a165780601f106109eb57610100808354040283529160200191610a16565b820191906000526020600020905b8154815290600101906020018083116109f957829003601f168201915b505050505081526020016003820160009054906101000a900460ff161515151581526020016003820160019054906101000a900460ff1615151515815250508152602001906001019061090a565b505050509050919050565b60076020528060005260406000206000915090508060000160009054906101000a900473ffffffffffffffffffffffffffffffffffffffff1690806001018054610ab890614efb565b80601f0160208091040260200160405190810160405280929190818152602001828054610ae490614efb565b8015610b315780601f10610b0657610100808354040283529160200191610b31565b820191906000526020600020905b815481529060010190602001808311610b1457829003601f168201915b505050505090806002018054610b4690614efb565b80601f0160208091040260200160405190810160405280929190818152602001828054610b7290614efb565b8015610bbf5780601f10610b9457610100808354040283529160200191610bbf565b820191906000526020600020905b815481529060010190602001808311610ba257829003601f168201915b5050505050905083565b6060600a60008373ffffffffffffffffffffffffffffffffffffffff1673ffffffffffffffffffffffffffffffffffffffff168152602001908152602001600020805480602002602001604051908101604052809291908181526020016000905b82821015610d69578382906000526020600020906003020160405180608001604052908160008201548152602001600182018054610c6790614efb565b80601f0160208091040260200160405190810160405280929190818152602001828054610c9390614efb565b8015610ce05780601f10610cb557610100808354040283529160200191610ce0565b820191906000526020600020905b815481529060010190602001808311610cc357829003601f168201915b505050505081526020016002820160009054906101000a900473ffffffffffffffffffffffffffffffffffffffff1673ffffffffffffffffffffffffffffffffffffffff1673ffffffffffffffffffffffffffffffffffffffff1681526020016002820160149054906101000a900460ff16151515158152505081526020019060010190610c2a565b505050509050919050565b600073ffffffffffffffffffffffffffffffffffffffff16600660003373ffffffffffffffffffffffffffffffffffffffff1673ffffffffffffffffffffffffffffffffffffffff16815260200190815260200160002060000160009054906101000a900473ffffffffffffffffffffffffffffffffffffffff1673ffffffffffffffffffffffffffffffffffffffff161415610e46576040517f08c379a0000000000000000000000000000000000000000000000000000000008152600401610e3d90614a91565b60405180910390fd5b6000600860003373ffffffffffffffffffffffffffffffffffffffff1673ffffffffffffffffffffffffffffffffffffffff168152602001908152602001600020805480602002602001604051908101604052809291908181526020016000905b8282101561100157838290600052602060002090600402016040518060a0016040529081600082015481526020016001820160009054906101000a900473ffffffffffffffffffffffffffffffffffffffff1673ffffffffffffffffffffffffffffffffffffffff1673ffffffffffffffffffffffffffffffffffffffff168152602001600282018054610f3a90614efb565b80601f0160208091040260200160405190810160405280929190818152602001828054610f6690614efb565b8015610fb35780601f10610f8857610100808354040283529160200191610fb3565b820191906000526020600020905b815481529060010190602001808311610f9657829003601f168201915b505050505081526020016003820160009054906101000a900460ff161515151581526020016003820160019054906101000a900460ff16151515158152505081526020019060010190610ea7565b50505050905060005b815181101561122b578282828151811061104d577f4e487b7100000000000000000000000000000000000000000000000000000000600052603260045260246000fd5b6020026020010151600001511480156110d557503373ffffffffffffffffffffffffffffffffffffffff168282815181106110b1577f4e487b7100000000000000000000000000000000000000000000000000000000600052603260045260246000fd5b60200260200101516020015173ffffffffffffffffffffffffffffffffffffffff16145b1561121857818181518110611113577f4e487b7100000000000000000000000000000000000000000000000000000000600052603260045260246000fd5b6020026020010151608001511561115f576040517f08c379a000000000000000000000000000000000000000000000000000000000815260040161115690614a71565b60405180910390fd5b600560018461116e9190614dea565b815481106111a5577f4e487b7100000000000000000000000000000000000000000000000000000000600052603260045260246000fd5b906000526020600020906007020160030160008154809291906111c790614eb2565b9190505550818181518110611205577f4e487b7100000000000000000000000000000000000000000000000000000000600052603260045260246000fd5b602002602001016112146139de565b8152505b808061122390614fa7565b91505061100a565b50600860003373ffffffffffffffffffffffffffffffffffffffff1673ffffffffffffffffffffffffffffffffffffffff1681526020019081526020016000208054806112a1577f4e487b7100000000000000000000000000000000000000000000000000000000600052603160045260246000fd5b60019003818190600052602060002090600402016000808201600090556001820160006101000a81549073ffffffffffffffffffffffffffffffffffffffff02191690556002820160006112f59190613a27565b6003820160006101000a81549060ff02191690556003820160016101000a81549060ff0219169055505090555050565b6040518060c001604052808773ffffffffffffffffffffffffffffffffffffffff16815260200186815260200185815260200184815260200183815260200182815250600660008873ffffffffffffffffffffffffffffffffffffffff1673ffffffffffffffffffffffffffffffffffffffff16815260200190815260200160002060008201518160000160006101000a81548173ffffffffffffffffffffffffffffffffffffffff021916908373ffffffffffffffffffffffffffffffffffffffff160217905550602082015181600101908051906020019061140a929190613a67565b506040820151816002019080519060200190611427929190613a67565b506060820151816003019080519060200190611444929190613a67565b506080820151816004019080519060200190611461929190613a67565b5060a082015181600501559050506003869080600181540180825580915050600190039060005260206000200160009091909190916101000a81548173ffffffffffffffffffffffffffffffffffffffff021916908373ffffffffffffffffffffffffffffffffffffffff160217905550505050505050565b600073ffffffffffffffffffffffffffffffffffffffff16600660003373ffffffffffffffffffffffffffffffffffffffff1673ffffffffffffffffffffffffffffffffffffffff16815260200190815260200160002060000160009054906101000a900473ffffffffffffffffffffffffffffffffffffffff1673ffffffffffffffffffffffffffffffffffffffff1614156115ac576040517f08c379a00000000000000000000000000000000000000000000000000000000081526004016115a390614a91565b60405180910390fd5b80600660003373ffffffffffffffffffffffffffffffffffffffff1673ffffffffffffffffffffffffffffffffffffffff1681526020019081526020016000206003019080519060200190611602929190613a67565b5050565b6008602052816000526040600020818154811061162257600080fd5b9060005260206000209060040201600091509150508060000154908060010160009054906101000a900473ffffffffffffffffffffffffffffffffffffffff169080600201805461167290614efb565b80601f016020809104026020016040519081016040528092919081815260200182805461169e90614efb565b80156116eb5780601f106116c0576101008083540402835291602001916116eb565b820191906000526020600020905b8154815290600101906020018083116116ce57829003601f168201915b5050505050908060030160009054906101000a900460ff16908060030160019054906101000a900460ff16905085565b600073ffffffffffffffffffffffffffffffffffffffff16600660003373ffffffffffffffffffffffffffffffffffffffff1673ffffffffffffffffffffffffffffffffffffffff16815260200190815260200160002060000160009054906101000a900473ffffffffffffffffffffffffffffffffffffffff1673ffffffffffffffffffffffffffffffffffffffff1614156117ed576040517f08c379a00000000000000000000000000000000000000000000000000000000081526004016117e490614a91565b60405180910390fd5b8060056001826117fd9190614dea565b81548110611834577f4e487b7100000000000000000000000000000000000000000000000000000000600052603260045260246000fd5b906000526020600020906007020160060160159054906101000a900460ff16611892576040517f08c379a000000000000000000000000000000000000000000000000000000000815260040161188990614b11565b60405180910390fd5b60056001826118a19190614dea565b815481106118d8577f4e487b7100000000000000000000000000000000000000000000000000000000600052603260045260246000fd5b90600052602060002090600702016003015460056001836118f99190614dea565b81548110611930577f4e487b7100000000000000000000000000000000000000000000000000000000600052603260045260246000fd5b9060005260206000209060070201600201541215611983576040517f08c379a000000000000000000000000000000000000000000000000000000000815260040161197a90614a51565b60405180910390fd5b611b36600660003373ffffffffffffffffffffffffffffffffffffffff1673ffffffffffffffffffffffffffffffffffffffff16815260200190815260200160002060040180546119d390614efb565b80601f01602080910402602001604051908101604052809291908181526020018280546119ff90614efb565b8015611a4c5780601f10611a2157610100808354040283529160200191611a4c565b820191906000526020600020905b815481529060010190602001808311611a2f57829003601f168201915b50505050506005600184611a609190614dea565b81548110611a97577f4e487b7100000000000000000000000000000000000000000000000000000000600052603260045260246000fd5b90600052602060002090600702016004018054611ab390614efb565b80601f0160208091040260200160405190810160405280929190818152602001828054611adf90614efb565b8015611b2c5780601f10611b0157610100808354040283529160200191611b2c565b820191906000526020600020905b815481529060010190602001808311611b0f57829003601f168201915b5050505050613985565b611b75576040517f08c379a0000000000000000000000000000000000000000000000000000000008152600401611b6c90614a31565b60405180910390fd5b6005600182611b849190614dea565b81548110611bbb577f4e487b7100000000000000000000000000000000000000000000000000000000600052603260045260246000fd5b906000526020600020906007020160050154600660003373ffffffffffffffffffffffffffffffffffffffff1673ffffffffffffffffffffffffffffffffffffffff1681526020019081526020016000206005015414611c50576040517f08c379a0000000000000000000000000000000000000000000000000000000008152600401611c4790614af1565b60405180910390fd5b6000600860003373ffffffffffffffffffffffffffffffffffffffff1673ffffffffffffffffffffffffffffffffffffffff168152602001908152602001600020805480602002602001604051908101604052809291908181526020016000905b82821015611e0b57838290600052602060002090600402016040518060a0016040529081600082015481526020016001820160009054906101000a900473ffffffffffffffffffffffffffffffffffffffff1673ffffffffffffffffffffffffffffffffffffffff1673ffffffffffffffffffffffffffffffffffffffff168152602001600282018054611d4490614efb565b80601f0160208091040260200160405190810160405280929190818152602001828054611d7090614efb565b8015611dbd5780601f10611d9257610100808354040283529160200191611dbd565b820191906000526020600020905b815481529060010190602001808311611da057829003601f168201915b505050505081526020016003820160009054906101000a900460ff161515151581526020016003820160019054906101000a900460ff16151515158152505081526020019060010190611cb1565b5050505090506005600183611e209190614dea565b81548110611e57577f4e487b7100000000000000000000000000000000000000000000000000000000600052603260045260246000fd5b906000526020600020906007020160060160009054906101000a900460ff16156121c757600081511415611ec0576040517f08c379a0000000000000000000000000000000000000000000000000000000008152600401611eb790614ad1565b60405180910390fd5b600060096000848152602001908152602001600020805480602002602001604051908101604052809291908181526020018280548015611f1f57602002820191906000526020600020905b815481526020019060010190808311611f0b575b5050505050905060005b81518110156121c45760005b83518110156121b05784848281518110611f78577f4e487b7100000000000000000000000000000000000000000000000000000000600052603260045260246000fd5b6020026020010151600001511415611fc5576040517f08c379a0000000000000000000000000000000000000000000000000000000008152600401611fbc906149f1565b60405180910390fd5b3373ffffffffffffffffffffffffffffffffffffffff16848281518110612015577f4e487b7100000000000000000000000000000000000000000000000000000000600052603260045260246000fd5b60200260200101516020015173ffffffffffffffffffffffffffffffffffffffff161480156120c75750828281518110612078577f4e487b7100000000000000000000000000000000000000000000000000000000600052603260045260246000fd5b60200260200101518482815181106120b9577f4e487b7100000000000000000000000000000000000000000000000000000000600052603260045260246000fd5b602002602001015160000151145b1561219d57838181518110612105577f4e487b7100000000000000000000000000000000000000000000000000000000600052603260045260246000fd5b6020026020010151606001518061215d5750838181518110612150577f4e487b7100000000000000000000000000000000000000000000000000000000600052603260045260246000fd5b6020026020010151608001515b61219c576040517f08c379a000000000000000000000000000000000000000000000000000000000815260040161219390614a11565b60405180910390fd5b5b80806121a890614fa7565b915050611f35565b5080806121bc90614fa7565b915050611f29565b50505b6000600860003373ffffffffffffffffffffffffffffffffffffffff1673ffffffffffffffffffffffffffffffffffffffff168152602001908152602001600020805480602002602001604051908101604052809291908181526020016000905b8282101561238257838290600052602060002090600402016040518060a0016040529081600082015481526020016001820160009054906101000a900473ffffffffffffffffffffffffffffffffffffffff1673ffffffffffffffffffffffffffffffffffffffff1673ffffffffffffffffffffffffffffffffffffffff1681526020016002820180546122bb90614efb565b80601f01602080910402602001604051908101604052809291908181526020018280546122e790614efb565b80156123345780601f1061230957610100808354040283529160200191612334565b820191906000526020600020905b81548152906001019060200180831161231757829003601f168201915b505050505081526020016003820160009054906101000a900460ff161515151581526020016003820160019054906101000a900460ff16151515158152505081526020019060010190612228565b50505050905060008151146124395760005b815181101561243757848282815181106123d7577f4e487b7100000000000000000000000000000000000000000000000000000000600052603260045260246000fd5b6020026020010151600001511415612424576040517f08c379a000000000000000000000000000000000000000000000000000000000815260040161241b906149f1565b60405180910390fd5b808061242f90614fa7565b915050612394565b505b60056001856124489190614dea565b8154811061247f577f4e487b7100000000000000000000000000000000000000000000000000000000600052603260045260246000fd5b906000526020600020906007020160030160008154809291906124a190614f5e565b919050555060006040518060a001604052808681526020013373ffffffffffffffffffffffffffffffffffffffff1681526020016040518060400160405280600381526020017f302e3000000000000000000000000000000000000000000000000000000000008152508152602001600115158152602001600015158152509050600860003373ffffffffffffffffffffffffffffffffffffffff1673ffffffffffffffffffffffffffffffffffffffff1681526020019081526020016000208190806001815401808255809150506001900390600052602060002090600402016000909190919091506000820151816000015560208201518160010160006101000a81548173ffffffffffffffffffffffffffffffffffffffff021916908373ffffffffffffffffffffffffffffffffffffffff16021790555060408201518160020190805190602001906125f8929190613a67565b5060608201518160030160006101000a81548160ff02191690831515021790555060808201518160030160016101000a81548160ff02191690831515021790555050505050505050565b606060048054806020026020016040519081016040528092919081815260200182805480156126c657602002820191906000526020600020905b8160009054906101000a900473ffffffffffffffffffffffffffffffffffffffff1673ffffffffffffffffffffffffffffffffffffffff168152602001906001019080831161267c575b5050505050905090565b60005481565b600073ffffffffffffffffffffffffffffffffffffffff16600760003373ffffffffffffffffffffffffffffffffffffffff1673ffffffffffffffffffffffffffffffffffffffff16815260200190815260200160002060000160009054906101000a900473ffffffffffffffffffffffffffffffffffffffff1673ffffffffffffffffffffffffffffffffffffffff1614156127a8576040517f08c379a000000000000000000000000000000000000000000000000000000000815260040161279f90614b31565b60405180910390fd5b600160008154809291906127bb90614fa7565b91905055506000604051806080016040528060015481526020018381526020018473ffffffffffffffffffffffffffffffffffffffff168152602001600015158152509050600a60008473ffffffffffffffffffffffffffffffffffffffff1673ffffffffffffffffffffffffffffffffffffffff16815260200190815260200160002081908060018154018082558091505060019003906000526020600020906003020160009091909190915060008201518160000155602082015181600101908051906020019061288f929190613a67565b5060408201518160020160006101000a81548173ffffffffffffffffffffffffffffffffffffffff021916908373ffffffffffffffffffffffffffffffffffffffff16021790555060608201518160020160146101000a81548160ff0219169083151502179055505050505050565b600073ffffffffffffffffffffffffffffffffffffffff16600660003373ffffffffffffffffffffffffffffffffffffffff1673ffffffffffffffffffffffffffffffffffffffff16815260200190815260200160002060000160009054906101000a900473ffffffffffffffffffffffffffffffffffffffff1673ffffffffffffffffffffffffffffffffffffffff1614156129d0576040517f08c379a00000000000000000000000000000000000000000000000000000000081526004016129c790614a91565b60405180910390fd5b66b1a2bc2ec500003414612a19576040517f08c379a0000000000000000000000000000000000000000000000000000000008152600401612a10906149d1565b60405180910390fd5b6000600a60003373ffffffffffffffffffffffffffffffffffffffff1673ffffffffffffffffffffffffffffffffffffffff168152602001908152602001600020905060005b8180549050811015612d3457612b47828281548110612aa7577f4e487b7100000000000000000000000000000000000000000000000000000000600052603260045260246000fd5b90600052602060002090600302016001018054612ac390614efb565b80601f0160208091040260200160405190810160405280929190818152602001828054612aef90614efb565b8015612b3c5780601f10612b1157610100808354040283529160200191612b3c565b820191906000526020600020905b815481529060010190602001808311612b1f57829003601f168201915b505050505084613985565b15612d2157818181548110612b85577f4e487b7100000000000000000000000000000000000000000000000000000000600052603260045260246000fd5b906000526020600020906003020160020160149054906101000a900460ff1615612be4576040517f08c379a0000000000000000000000000000000000000000000000000000000008152600401612bdb90614ab1565b60405180910390fd5b6001828281548110612c1f577f4e487b7100000000000000000000000000000000000000000000000000000000600052603260045260246000fd5b906000526020600020906003020160020160146101000a81548160ff021916908315150217905550600260009054906101000a900473ffffffffffffffffffffffffffffffffffffffff1673ffffffffffffffffffffffffffffffffffffffff1663c407687633848481548110612cbf577f4e487b7100000000000000000000000000000000000000000000000000000000600052603260045260246000fd5b9060005260206000209060030201600001546040518363ffffffff1660e01b8152600401612cee92919061483c565b600060405180830381600087803b158015612d0857600080fd5b505af1158015612d1c573d6000803e3d6000fd5b505050505b8080612d2c90614fa7565b915050612a5f565b505050565b600073ffffffffffffffffffffffffffffffffffffffff16600760003373ffffffffffffffffffffffffffffffffffffffff1673ffffffffffffffffffffffffffffffffffffffff16815260200190815260200160002060000160009054906101000a900473ffffffffffffffffffffffffffffffffffffffff1673ffffffffffffffffffffffffffffffffffffffff161415612e0b576040517f08c379a0000000000000000000000000000000000000000000000000000000008152600401612e0290614b31565b60405180910390fd5b6000600860008573ffffffffffffffffffffffffffffffffffffffff1673ffffffffffffffffffffffffffffffffffffffff168152602001908152602001600020905060005b8180549050811015612f225783828281548110612e97577f4e487b7100000000000000000000000000000000000000000000000000000000600052603260045260246000fd5b9060005260206000209060040201600001541415612f0f5782828281548110612ee9577f4e487b7100000000000000000000000000000000000000000000000000000000600052603260045260246000fd5b90600052602060002090600402016002019080519060200190612f0d929190613a67565b505b8080612f1a90614fa7565b915050612e51565b5050505050565b60015481565b60066020528060005260406000206000915090508060000160009054906101000a900473ffffffffffffffffffffffffffffffffffffffff1690806001018054612f7890614efb565b80601f0160208091040260200160405190810160405280929190818152602001828054612fa490614efb565b8015612ff15780601f10612fc657610100808354040283529160200191612ff1565b820191906000526020600020905b815481529060010190602001808311612fd457829003601f168201915b50505050509080600201805461300690614efb565b80601f016020809104026020016040519081016040528092919081815260200182805461303290614efb565b801561307f5780601f106130545761010080835404028352916020019161307f565b820191906000526020600020905b81548152906001019060200180831161306257829003601f168201915b50505050509080600301805461309490614efb565b80601f01602080910402602001604051908101604052809291908181526020018280546130c090614efb565b801561310d5780601f106130e25761010080835404028352916020019161310d565b820191906000526020600020905b8154815290600101906020018083116130f057829003601f168201915b50505050509080600401805461312290614efb565b80601f016020809104026020016040519081016040528092919081815260200182805461314e90614efb565b801561319b5780601f106131705761010080835404028352916020019161319b565b820191906000526020600020905b81548152906001019060200180831161317e57829003601f168201915b5050505050908060050154905086565b600960205281600052604060002081815481106131c757600080fd5b90600052602060002001600091509150505481565b606080606080600080600660008873ffffffffffffffffffffffffffffffffffffffff1673ffffffffffffffffffffffffffffffffffffffff1681526020019081526020016000206040518060c00160405290816000820160009054906101000a900473ffffffffffffffffffffffffffffffffffffffff1673ffffffffffffffffffffffffffffffffffffffff1673ffffffffffffffffffffffffffffffffffffffff16815260200160018201805461329590614efb565b80601f01602080910402602001604051908101604052809291908181526020018280546132c190614efb565b801561330e5780601f106132e35761010080835404028352916020019161330e565b820191906000526020600020905b8154815290600101906020018083116132f157829003601f168201915b5050505050815260200160028201805461332790614efb565b80601f016020809104026020016040519081016040528092919081815260200182805461335390614efb565b80156133a05780601f10613375576101008083540402835291602001916133a0565b820191906000526020600020905b81548152906001019060200180831161338357829003601f168201915b505050505081526020016003820180546133b990614efb565b80601f01602080910402602001604051908101604052809291908181526020018280546133e590614efb565b80156134325780601f1061340757610100808354040283529160200191613432565b820191906000526020600020905b81548152906001019060200180831161341557829003601f168201915b5050505050815260200160048201805461344b90614efb565b80601f016020809104026020016040519081016040528092919081815260200182805461347790614efb565b80156134c45780601f10613499576101008083540402835291602001916134c4565b820191906000526020600020905b8154815290600101906020018083116134a757829003601f168201915b50505050508152602001600582015481525050905080602001518160400151826060015183608001518460a00151955095509550955095505091939590929450565b600073ffffffffffffffffffffffffffffffffffffffff16600760003373ffffffffffffffffffffffffffffffffffffffff1673ffffffffffffffffffffffffffffffffffffffff16815260200190815260200160002060000160009054906101000a900473ffffffffffffffffffffffffffffffffffffffff1673ffffffffffffffffffffffffffffffffffffffff1614156135d8576040517f08c379a00000000000000000000000000000000000000000000000000000000081526004016135cf90614b31565b60405180910390fd5b60016000546135e79190614d56565b600081905550821561361d57876009600080548152602001908152602001600020908051906020019061361b929190613aed565b505b600560405180610120016040528060005481526020018981526020018881526020016000815260200187815260200186815260200185151581526020018473ffffffffffffffffffffffffffffffffffffffff16815260200183151581525090806001815401808255809150506001900390600052602060002090600702016000909190919091506000820151816000015560208201518160010190805190602001906136cb929190613a67565b50604082015181600201556060820151816003015560808201518160040190805190602001906136fc929190613a67565b5060a0820151816005015560c08201518160060160006101000a81548160ff02191690831515021790555060e08201518160060160016101000a81548173ffffffffffffffffffffffffffffffffffffffff021916908373ffffffffffffffffffffffffffffffffffffffff1602179055506101008201518160060160156101000a81548160ff02191690831515021790555050505050505050505050565b6060600380548060200260200160405190810160405280929190818152602001828054801561381f57602002820191906000526020600020905b8160009054906101000a900473ffffffffffffffffffffffffffffffffffffffff1673ffffffffffffffffffffffffffffffffffffffff16815260200190600101908083116137d5575b5050505050905090565b60405180606001604052808473ffffffffffffffffffffffffffffffffffffffff16815260200183815260200182815250600760008573ffffffffffffffffffffffffffffffffffffffff1673ffffffffffffffffffffffffffffffffffffffff16815260200190815260200160002060008201518160000160006101000a81548173ffffffffffffffffffffffffffffffffffffffff021916908373ffffffffffffffffffffffffffffffffffffffff16021790555060208201518160010190805190602001906138fc929190613a67565b506040820151816002019080519060200190613919929190613a67565b509050506004839080600181540180825580915050600190039060005260206000200160009091909190916101000a81548173ffffffffffffffffffffffffffffffffffffffff021916908373ffffffffffffffffffffffffffffffffffffffff160217905550505050565b6000816040516020016139989190614763565b60405160208183030381529060405280519060200120836040516020016139bf9190614763565b6040516020818303038152906040528051906020012014905092915050565b6040518060a0016040528060008152602001600073ffffffffffffffffffffffffffffffffffffffff168152602001606081526020016000151581526020016000151581525090565b508054613a3390614efb565b6000825580601f10613a455750613a64565b601f016020900490600052602060002090810190613a639190613b3a565b5b50565b828054613a7390614efb565b90600052602060002090601f016020900481019282613a955760008555613adc565b82601f10613aae57805160ff1916838001178555613adc565b82800160010185558215613adc579182015b82811115613adb578251825591602001919060010190613ac0565b5b509050613ae99190613b3a565b5090565b828054828255906000526020600020908101928215613b29579160200282015b82811115613b28578251825591602001919060010190613b0d565b5b509050613b369190613b57565b5090565b5b80821115613b53576000816000905550600101613b3b565b5090565b5b80821115613b70576000816000905550600101613b58565b5090565b6000613b87613b8284614bdd565b614bb8565b90508083825260208201905082856020860282011115613ba657600080fd5b60005b85811015613bd65781613bbc8882613c72565b845260208401935060208301925050600181019050613ba9565b5050509392505050565b6000613bf3613bee84614c09565b614bb8565b905082815260208101848484011115613c0b57600080fd5b613c16848285614e70565b509392505050565b600081359050613c2d81615384565b92915050565b600082601f830112613c4457600080fd5b8135613c54848260208601613b74565b91505092915050565b600081359050613c6c8161539b565b92915050565b600081359050613c81816153b2565b92915050565b600082601f830112613c9857600080fd5b8135613ca8848260208601613be0565b91505092915050565b600081359050613cc0816153c9565b92915050565b600060208284031215613cd857600080fd5b6000613ce684828501613c1e565b91505092915050565b600080600060608486031215613d0457600080fd5b6000613d1286828701613c1e565b9350506020613d2386828701613c72565b925050604084013567ffffffffffffffff811115613d4057600080fd5b613d4c86828701613c87565b9150509250925092565b60008060408385031215613d6957600080fd5b6000613d7785828601613c1e565b925050602083013567ffffffffffffffff811115613d9457600080fd5b613da085828601613c87565b9150509250929050565b600080600060608486031215613dbf57600080fd5b6000613dcd86828701613c1e565b935050602084013567ffffffffffffffff811115613dea57600080fd5b613df686828701613c87565b925050604084013567ffffffffffffffff811115613e1357600080fd5b613e1f86828701613c87565b9150509250925092565b60008060008060008060c08789031215613e4257600080fd5b6000613e5089828a01613c1e565b965050602087013567ffffffffffffffff811115613e6d57600080fd5b613e7989828a01613c87565b955050604087013567ffffffffffffffff811115613e9657600080fd5b613ea289828a01613c87565b945050606087013567ffffffffffffffff811115613ebf57600080fd5b613ecb89828a01613c87565b935050608087013567ffffffffffffffff811115613ee857600080fd5b613ef489828a01613c87565b92505060a0613f0589828a01613c72565b9150509295509295509295565b60008060408385031215613f2557600080fd5b6000613f3385828601613c1e565b9250506020613f4485828601613cb1565b9150509250929050565b600080600080600080600080610100898b031215613f6b57600080fd5b600089013567ffffffffffffffff811115613f8557600080fd5b613f918b828c01613c33565b985050602089013567ffffffffffffffff811115613fae57600080fd5b613fba8b828c01613c87565b9750506040613fcb8b828c01613c72565b965050606089013567ffffffffffffffff811115613fe857600080fd5b613ff48b828c01613c87565b95505060806140058b828c01613c72565b94505060a06140168b828c01613c5d565b93505060c06140278b828c01613c1e565b92505060e06140388b828c01613c5d565b9150509295985092959890939650565b60006020828403121561405a57600080fd5b600061406884828501613c72565b91505092915050565b6000806040838503121561408457600080fd5b600061409285828601613c72565b92505060206140a385828601613cb1565b9150509250929050565b6000602082840312156140bf57600080fd5b600082013567ffffffffffffffff8111156140d957600080fd5b6140e584828501613c87565b91505092915050565b60006140fa8383614142565b60208301905092915050565b600061411283836145a0565b905092915050565b6000614126838361466c565b905092915050565b600061413a83836146e2565b905092915050565b61414b81614e1e565b82525050565b61415a81614e1e565b82525050565b600061416b82614c7a565b6141758185614ce5565b935061418083614c3a565b8060005b838110156141b157815161419888826140ee565b97506141a383614cb1565b925050600181019050614184565b5085935050505092915050565b60006141c982614c85565b6141d38185614cf6565b9350836020820285016141e585614c4a565b8060005b8581101561422157848403895281516142028582614106565b945061420d83614cbe565b925060208a019950506001810190506141e9565b50829750879550505050505092915050565b600061423e82614c90565b6142488185614d07565b93508360208202850161425a85614c5a565b8060005b858110156142965784840389528151614277858261411a565b945061428283614ccb565b925060208a0199505060018101905061425e565b50829750879550505050505092915050565b60006142b382614c9b565b6142bd8185614d18565b9350836020820285016142cf85614c6a565b8060005b8581101561430b57848403895281516142ec858261412e565b94506142f783614cd8565b925060208a019950506001810190506142d3565b50829750879550505050505092915050565b61432681614e30565b82525050565b61433581614e30565b82525050565b61434481614e3c565b82525050565b61435381614e3c565b82525050565b600061436482614ca6565b61436e8185614d29565b935061437e818560208601614e7f565b6143878161507d565b840191505092915050565b600061439d82614ca6565b6143a78185614d3a565b93506143b7818560208601614e7f565b6143c08161507d565b840191505092915050565b60006143d682614ca6565b6143e08185614d4b565b93506143f0818560208601614e7f565b80840191505092915050565b6000614409602183614d3a565b91506144148261508e565b604082019050919050565b600061442c602783614d3a565b9150614437826150dd565b604082019050919050565b600061444f602c83614d3a565b915061445a8261512c565b604082019050919050565b6000614472602483614d3a565b915061447d8261517b565b604082019050919050565b6000614495601383614d3a565b91506144a0826151ca565b602082019050919050565b60006144b8603283614d3a565b91506144c3826151f3565b604082019050919050565b60006144db601b83614d3a565b91506144e682615242565b602082019050919050565b60006144fe601b83614d3a565b91506145098261526b565b602082019050919050565b6000614521602783614d3a565b915061452c82615294565b604082019050919050565b6000614544602883614d3a565b915061454f826152e3565b604082019050919050565b6000614567601c83614d3a565b915061457282615332565b602082019050919050565b600061458a601d83614d3a565b91506145958261535b565b602082019050919050565b6000610120830160008301516145b9600086018261433b565b50602083015184820360208601526145d18282614359565b91505060408301516145e6604086018261433b565b5060608301516145f9606086018261433b565b50608083015184820360808601526146118282614359565b91505060a083015161462660a086018261433b565b5060c083015161463960c086018261431d565b5060e083015161464c60e0860182614142565b5061010083015161466161010086018261431d565b508091505092915050565b600060a083016000830151614684600086018261433b565b5060208301516146976020860182614142565b50604083015184820360408601526146af8282614359565b91505060608301516146c4606086018261431d565b5060808301516146d7608086018261431d565b508091505092915050565b60006080830160008301516146fa6000860182614745565b50602083015184820360208601526147128282614359565b91505060408301516147276040860182614142565b50606083015161473a606086018261431d565b508091505092915050565b61474e81614e66565b82525050565b61475d81614e66565b82525050565b600061476f82846143cb565b915081905092915050565b600060608201905061478f6000830186614151565b81810360208301526147a18185614392565b905081810360408301526147b58184614392565b9050949350505050565b600060c0820190506147d46000830189614151565b81810360208301526147e68188614392565b905081810360408301526147fa8187614392565b9050818103606083015261480e8186614392565b905081810360808301526148228185614392565b905061483160a083018461434a565b979650505050505050565b60006040820190506148516000830185614151565b61485e6020830184614754565b9392505050565b6000602082019050818103600083015261487f8184614160565b905092915050565b600060208201905081810360008301526148a181846141be565b905092915050565b600060208201905081810360008301526148c38184614233565b905092915050565b600060208201905081810360008301526148e581846142a8565b905092915050565b6000602082019050614902600083018461434a565b92915050565b600060a08201905061491d600083018861434a565b61492a6020830187614151565b818103604083015261493c8186614392565b905061494b606083018561432c565b614958608083018461432c565b9695505050505050565b600060a082019050818103600083015261497c8188614392565b905081810360208301526149908187614392565b905081810360408301526149a48186614392565b905081810360608301526149b88185614392565b90506149c7608083018461434a565b9695505050505050565b600060208201905081810360008301526149ea816143fc565b9050919050565b60006020820190508181036000830152614a0a8161441f565b9050919050565b60006020820190508181036000830152614a2a81614442565b9050919050565b60006020820190508181036000830152614a4a81614465565b9050919050565b60006020820190508181036000830152614a6a81614488565b9050919050565b60006020820190508181036000830152614a8a816144ab565b9050919050565b60006020820190508181036000830152614aaa816144ce565b9050919050565b60006020820190508181036000830152614aca816144f1565b9050919050565b60006020820190508181036000830152614aea81614514565b9050919050565b60006020820190508181036000830152614b0a81614537565b9050919050565b60006020820190508181036000830152614b2a8161455a565b9050919050565b60006020820190508181036000830152614b4a8161457d565b9050919050565b6000602082019050614b666000830184614754565b92915050565b6000608082019050614b816000830187614754565b8181036020830152614b938186614392565b9050614ba26040830185614151565b614baf606083018461432c565b95945050505050565b6000614bc2614bd3565b9050614bce8282614f2d565b919050565b6000604051905090565b600067ffffffffffffffff821115614bf857614bf761504e565b5b602082029050602081019050919050565b600067ffffffffffffffff821115614c2457614c2361504e565b5b614c2d8261507d565b9050602081019050919050565b6000819050602082019050919050565b6000819050602082019050919050565b6000819050602082019050919050565b6000819050602082019050919050565b600081519050919050565b600081519050919050565b600081519050919050565b600081519050919050565b600081519050919050565b6000602082019050919050565b6000602082019050919050565b6000602082019050919050565b6000602082019050919050565b600082825260208201905092915050565b600082825260208201905092915050565b600082825260208201905092915050565b600082825260208201905092915050565b600082825260208201905092915050565b600082825260208201905092915050565b600081905092915050565b6000614d6182614e3c565b9150614d6c83614e3c565b9250817f7fffffffffffffffffffffffffffffffffffffffffffffffffffffffffffffff03831360008312151615614da757614da6614ff0565b5b817f8000000000000000000000000000000000000000000000000000000000000000038312600083121615614ddf57614dde614ff0565b5b828201905092915050565b6000614df582614e66565b9150614e0083614e66565b925082821015614e1357614e12614ff0565b5b828203905092915050565b6000614e2982614e46565b9050919050565b60008115159050919050565b6000819050919050565b600073ffffffffffffffffffffffffffffffffffffffff82169050919050565b6000819050919050565b82818337600083830152505050565b60005b83811015614e9d578082015181840152602081019050614e82565b83811115614eac576000848401525b50505050565b6000614ebd82614e3c565b91507f8000000000000000000000000000000000000000000000000000000000000000821415614ef057614eef614ff0565b5b600182039050919050565b60006002820490506001821680614f1357607f821691505b60208210811415614f2757614f2661501f565b5b50919050565b614f368261507d565b810181811067ffffffffffffffff82111715614f5557614f5461504e565b5b80604052505050565b6000614f6982614e3c565b91507f7fffffffffffffffffffffffffffffffffffffffffffffffffffffffffffffff821415614f9c57614f9b614ff0565b5b600182019050919050565b6000614fb282614e66565b91507fffffffffffffffffffffffffffffffffffffffffffffffffffffffffffffffff821415614fe557614fe4614ff0565b5b600182019050919050565b7f4e487b7100000000000000000000000000000000000000000000000000000000600052601160045260246000fd5b7f4e487b7100000000000000000000000000000000000000000000000000000000600052602260045260246000fd5b7f4e487b7100000000000000000000000000000000000000000000000000000000600052604160045260246000fd5b6000601f19601f8301169050919050565b7f56616c756520646f6573206e6f74206d617463682053656d657374657246656560008201527f2100000000000000000000000000000000000000000000000000000000000000602082015250565b7f436f7572736520616c726561647920706173736564206f722074616b6573207060008201527f61727420696e2100000000000000000000000000000000000000000000000000602082015250565b7f526571756972656420436f75727365206e6f7420706173736564206f7220746160008201527f6b656e205061727420696e210000000000000000000000000000000000000000602082015250565b7f53747564656e7420686173206e6f74207468652072657175697265642064656760008201527f7265652100000000000000000000000000000000000000000000000000000000602082015250565b7f436f7572736520616c72656164792066756c6c00000000000000000000000000600082015250565b7f436f7572736520616c7265616479207061737365642c20556e7375627363726960008201527f7074696f6e206e6f7420706f737369626c650000000000000000000000000000602082015250565b7f4f6e6c792053747564656e742063616e2063616c6c2074686973210000000000600082015250565b7f53656d65737465722046656520616c7265616479207061796564210000000000600082015250565b7f53747564656e7420646f6573206e6f742068617665207265717569726564206360008201527f6f75727365732100000000000000000000000000000000000000000000000000602082015250565b7f53747564656e74206973206e6f7420696e20746865207265717569726564207360008201527f656d657374657221000000000000000000000000000000000000000000000000602082015250565b7f436f75727365206973206e6f742079657420617661696c61626c652100000000600082015250565b7f4f6e6c792050726f666573736f722063616e2063616c6c207468697321000000600082015250565b61538d81614e1e565b811461539857600080fd5b50565b6153a481614e30565b81146153af57600080fd5b50565b6153bb81614e3c565b81146153c657600080fd5b50565b6153d281614e66565b81146153dd57600080fd5b5056fea2646970667358221220a2e8059428707aa9be6bec383a43324aa8b5cfa60a5066633085ed54f2c163a964736f6c63430008040033608060405266b1a2bc2ec500006006556040518060400160405280601581526020017f53656d657374657220526567697374726174696f6e00000000000000000000008152506040518060400160405280600281526020017f5352000000000000000000000000000000000000000000000000000000000000815250816000908051906020019062000093929190620000bd565b508060019080519060200190620000ac929190620000bd565b5050506002600881905550620001d2565b828054620000cb906200016d565b90600052602060002090601f016020900481019282620000ef57600085556200013b565b82601f106200010a57805160ff19168380011785556200013b565b828001600101855582156200013b579182015b828111156200013a5782518255916020019190600101906200011d565b5b5090506200014a91906200014e565b5090565b5b80821115620001695760008160009055506001016200014f565b5090565b600060028204905060018216806200018657607f821691505b602082108114156200019d576200019c620001a3565b5b50919050565b7f4e487b7100000000000000000000000000000000000000000000000000000000600052602260045260246000fd5b6127b380620001e26000396000f3fe6080604052600436106101145760003560e01c80636817c76c116100a0578063b88d4fde11610064578063b88d4fde146103c5578063c4076876146103ee578063c87b56dd1461040a578063d5abeb0114610447578063e985e9c51461047257610114565b80636817c76c146102cc57806370a08231146102f757806395d89b4114610334578063a22cb4651461035f578063ada7c4ed1461038857610114565b806318160ddd116100e757806318160ddd146101e757806323b872dd14610212578063346de50a1461023b57806342842e0e146102665780636352211e1461028f57610114565b806301ffc9a71461011957806306fdde0314610156578063081812fc14610181578063095ea7b3146101be575b600080fd5b34801561012557600080fd5b50610140600480360381019061013b9190611d24565b6104af565b60405161014d919061207b565b60405180910390f35b34801561016257600080fd5b5061016b610591565b6040516101789190612096565b60405180910390f35b34801561018d57600080fd5b506101a860048036038101906101a39190611d76565b610623565b6040516101b59190612014565b60405180910390f35b3480156101ca57600080fd5b506101e560048036038101906101e09190611ce8565b610669565b005b3480156101f357600080fd5b506101fc610781565b6040516102099190612218565b60405180910390f35b34801561021e57600080fd5b5061023960048036038101906102349190611be2565b610787565b005b34801561024757600080fd5b506102506107e7565b60405161025d919061207b565b60405180910390f35b34801561027257600080fd5b5061028d60048036038101906102889190611be2565b6107fa565b005b34801561029b57600080fd5b506102b660048036038101906102b19190611d76565b61081a565b6040516102c39190612014565b60405180910390f35b3480156102d857600080fd5b506102e16108a1565b6040516102ee9190612218565b60405180910390f35b34801561030357600080fd5b5061031e60048036038101906103199190611b7d565b6108a7565b60405161032b9190612218565b60405180910390f35b34801561034057600080fd5b5061034961095f565b6040516103569190612096565b60405180910390f35b34801561036b57600080fd5b5061038660048036038101906103819190611cac565b6109f1565b005b34801561039457600080fd5b506103af60048036038101906103aa9190611b7d565b610a07565b6040516103bc9190612218565b60405180910390f35b3480156103d157600080fd5b506103ec60048036038101906103e79190611c31565b610a1f565b005b61040860048036038101906104039190611ce8565b610a81565b005b34801561041657600080fd5b50610431600480360381019061042c9190611d76565b610a8f565b60405161043e9190612096565b60405180910390f35b34801561045357600080fd5b5061045c610af7565b6040516104699190612218565b60405180910390f35b34801561047e57600080fd5b5061049960048036038101906104949190611ba6565b610afd565b6040516104a6919061207b565b60405180910390f35b60007f80ac58cd000000000000000000000000000000000000000000000000000000007bffffffffffffffffffffffffffffffffffffffffffffffffffffffff1916827bffffffffffffffffffffffffffffffffffffffffffffffffffffffff1916148061057a57507f5b5e139f000000000000000000000000000000000000000000000000000000007bffffffffffffffffffffffffffffffffffffffffffffffffffffffff1916827bffffffffffffffffffffffffffffffffffffffffffffffffffffffff1916145b8061058a575061058982610b91565b5b9050919050565b6060600080546105a090612382565b80601f01602080910402602001604051908101604052809291908181526020018280546105cc90612382565b80156106195780601f106105ee57610100808354040283529160200191610619565b820191906000526020600020905b8154815290600101906020018083116105fc57829003601f168201915b5050505050905090565b600061062e82610bfb565b6004600083815260200190815260200160002060009054906101000a900473ffffffffffffffffffffffffffffffffffffffff169050919050565b60006106748261081a565b90508073ffffffffffffffffffffffffffffffffffffffff168373ffffffffffffffffffffffffffffffffffffffff1614156106e5576040517f08c379a00000000000000000000000000000000000000000000000000000000081526004016106dc906121d8565b60405180910390fd5b8073ffffffffffffffffffffffffffffffffffffffff16610704610c46565b73ffffffffffffffffffffffffffffffffffffffff16148061073357506107328161072d610c46565b610afd565b5b610772576040517f08c379a0000000000000000000000000000000000000000000000000000000008152600401610769906121f8565b60405180910390fd5b61077c8383610c4e565b505050565b60075481565b610798610792610c46565b82610d07565b6107d7576040517f08c379a00000000000000000000000000000000000000000000000000000000081526004016107ce906120b8565b60405180910390fd5b6107e2838383610d9c565b505050565b600960009054906101000a900460ff1681565b61081583838360405180602001604052806000815250610a1f565b505050565b60008061082683611096565b9050600073ffffffffffffffffffffffffffffffffffffffff168173ffffffffffffffffffffffffffffffffffffffff161415610898576040517f08c379a000000000000000000000000000000000000000000000000000000000815260040161088f906121b8565b60405180910390fd5b80915050919050565b60065481565b60008073ffffffffffffffffffffffffffffffffffffffff168273ffffffffffffffffffffffffffffffffffffffff161415610918576040517f08c379a000000000000000000000000000000000000000000000000000000000815260040161090f90612178565b60405180910390fd5b600360008373ffffffffffffffffffffffffffffffffffffffff1673ffffffffffffffffffffffffffffffffffffffff168152602001908152602001600020549050919050565b60606001805461096e90612382565b80601f016020809104026020016040519081016040528092919081815260200182805461099a90612382565b80156109e75780601f106109bc576101008083540402835291602001916109e7565b820191906000526020600020905b8154815290600101906020018083116109ca57829003601f168201915b5050505050905090565b610a036109fc610c46565b83836110d3565b5050565b600a6020528060005260406000206000915090505481565b610a30610a2a610c46565b83610d07565b610a6f576040517f08c379a0000000000000000000000000000000000000000000000000000000008152600401610a66906120b8565b60405180910390fd5b610a7b84848484611240565b50505050565b610a8b828261129c565b5050565b6060610a9a82610bfb565b6000610aa46112ba565b90506000815111610ac45760405180602001604052806000815250610aef565b80610ace846112d1565b604051602001610adf929190611ff0565b6040516020818303038152906040525b915050919050565b60085481565b6000600560008473ffffffffffffffffffffffffffffffffffffffff1673ffffffffffffffffffffffffffffffffffffffff16815260200190815260200160002060008373ffffffffffffffffffffffffffffffffffffffff1673ffffffffffffffffffffffffffffffffffffffff16815260200190815260200160002060009054906101000a900460ff16905092915050565b60007f01ffc9a7000000000000000000000000000000000000000000000000000000007bffffffffffffffffffffffffffffffffffffffffffffffffffffffff1916827bffffffffffffffffffffffffffffffffffffffffffffffffffffffff1916149050919050565b610c04816113f5565b610c43576040517f08c379a0000000000000000000000000000000000000000000000000000000008152600401610c3a906121b8565b60405180910390fd5b50565b600033905090565b816004600083815260200190815260200160002060006101000a81548173ffffffffffffffffffffffffffffffffffffffff021916908373ffffffffffffffffffffffffffffffffffffffff160217905550808273ffffffffffffffffffffffffffffffffffffffff16610cc18361081a565b73ffffffffffffffffffffffffffffffffffffffff167f8c5be1e5ebec7d5bd14f71427d1e84f3dd0314c0f7b2291e5b200ac8c7c3b92560405160405180910390a45050565b600080610d138361081a565b90508073ffffffffffffffffffffffffffffffffffffffff168473ffffffffffffffffffffffffffffffffffffffff161480610d555750610d548185610afd565b5b80610d9357508373ffffffffffffffffffffffffffffffffffffffff16610d7b84610623565b73ffffffffffffffffffffffffffffffffffffffff16145b91505092915050565b8273ffffffffffffffffffffffffffffffffffffffff16610dbc8261081a565b73ffffffffffffffffffffffffffffffffffffffff1614610e12576040517f08c379a0000000000000000000000000000000000000000000000000000000008152600401610e09906120f8565b60405180910390fd5b600073ffffffffffffffffffffffffffffffffffffffff168273ffffffffffffffffffffffffffffffffffffffff161415610e82576040517f08c379a0000000000000000000000000000000000000000000000000000000008152600401610e7990612138565b60405180910390fd5b610e8f8383836001611436565b8273ffffffffffffffffffffffffffffffffffffffff16610eaf8261081a565b73ffffffffffffffffffffffffffffffffffffffff1614610f05576040517f08c379a0000000000000000000000000000000000000000000000000000000008152600401610efc906120f8565b60405180910390fd5b6004600082815260200190815260200160002060006101000a81549073ffffffffffffffffffffffffffffffffffffffff02191690556001600360008573ffffffffffffffffffffffffffffffffffffffff1673ffffffffffffffffffffffffffffffffffffffff168152602001908152602001600020600082825403925050819055506001600360008473ffffffffffffffffffffffffffffffffffffffff1673ffffffffffffffffffffffffffffffffffffffff16815260200190815260200160002060008282540192505081905550816002600083815260200190815260200160002060006101000a81548173ffffffffffffffffffffffffffffffffffffffff021916908373ffffffffffffffffffffffffffffffffffffffff160217905550808273ffffffffffffffffffffffffffffffffffffffff168473ffffffffffffffffffffffffffffffffffffffff167fddf252ad1be2c89b69c2b068fc378daa952ba7f163c4a11628f55a4df523b3ef60405160405180910390a4611091838383600161143c565b505050565b60006002600083815260200190815260200160002060009054906101000a900473ffffffffffffffffffffffffffffffffffffffff169050919050565b8173ffffffffffffffffffffffffffffffffffffffff168373ffffffffffffffffffffffffffffffffffffffff161415611142576040517f08c379a000000000000000000000000000000000000000000000000000000000815260040161113990612158565b60405180910390fd5b80600560008573ffffffffffffffffffffffffffffffffffffffff1673ffffffffffffffffffffffffffffffffffffffff16815260200190815260200160002060008473ffffffffffffffffffffffffffffffffffffffff1673ffffffffffffffffffffffffffffffffffffffff16815260200190815260200160002060006101000a81548160ff0219169083151502179055508173ffffffffffffffffffffffffffffffffffffffff168373ffffffffffffffffffffffffffffffffffffffff167f17307eab39ab6107e8899845ad3d59bd9653f200f220920489ca2b5937696c3183604051611233919061207b565b60405180910390a3505050565b61124b848484610d9c565b61125784848484611442565b611296576040517f08c379a000000000000000000000000000000000000000000000000000000000815260040161128d906120d8565b60405180910390fd5b50505050565b6112b68282604051806020016040528060008152506115d9565b5050565b606060405180602001604052806000815250905090565b6060600060016112e084611634565b01905060008167ffffffffffffffff811115611325577f4e487b7100000000000000000000000000000000000000000000000000000000600052604160045260246000fd5b6040519080825280601f01601f1916602001820160405280156113575781602001600182028036833780820191505090505b509050600082602001820190505b6001156113ea578080600190039150507f3031323334353637383961626364656600000000000000000000000000000000600a86061a8153600a85816113d4577f4e487b7100000000000000000000000000000000000000000000000000000000600052601260045260246000fd5b04945060008514156113e5576113ea565b611365565b819350505050919050565b60008073ffffffffffffffffffffffffffffffffffffffff1661141783611096565b73ffffffffffffffffffffffffffffffffffffffff1614159050919050565b50505050565b50505050565b60006114638473ffffffffffffffffffffffffffffffffffffffff1661186b565b156115cc578373ffffffffffffffffffffffffffffffffffffffff1663150b7a0261148c610c46565b8786866040518563ffffffff1660e01b81526004016114ae949392919061202f565b602060405180830381600087803b1580156114c857600080fd5b505af19250505080156114f957506040513d601f19601f820116820180604052508101906114f69190611d4d565b60015b61157c573d8060008114611529576040519150601f19603f3d011682016040523d82523d6000602084013e61152e565b606091505b50600081511415611574576040517f08c379a000000000000000000000000000000000000000000000000000000000815260040161156b906120d8565b60405180910390fd5b805181602001fd5b63150b7a0260e01b7bffffffffffffffffffffffffffffffffffffffffffffffffffffffff1916817bffffffffffffffffffffffffffffffffffffffffffffffffffffffff1916149150506115d1565b600190505b949350505050565b6115e3838361188e565b6115f06000848484611442565b61162f576040517f08c379a0000000000000000000000000000000000000000000000000000000008152600401611626906120d8565b60405180910390fd5b505050565b600080600090507a184f03e93ff9f4daa797ed6e38ed64bf6a1f01000000000000000083106116b8577a184f03e93ff9f4daa797ed6e38ed64bf6a1f01000000000000000083816116ae577f4e487b7100000000000000000000000000000000000000000000000000000000600052601260045260246000fd5b0492506040810190505b6d04ee2d6d415b85acef8100000000831061171b576d04ee2d6d415b85acef81000000008381611711577f4e487b7100000000000000000000000000000000000000000000000000000000600052601260045260246000fd5b0492506020810190505b662386f26fc10000831061177057662386f26fc100008381611766577f4e487b7100000000000000000000000000000000000000000000000000000000600052601260045260246000fd5b0492506010810190505b6305f5e10083106117bf576305f5e10083816117b5577f4e487b7100000000000000000000000000000000000000000000000000000000600052601260045260246000fd5b0492506008810190505b612710831061180a576127108381611800577f4e487b7100000000000000000000000000000000000000000000000000000000600052601260045260246000fd5b0492506004810190505b606483106118535760648381611849577f4e487b7100000000000000000000000000000000000000000000000000000000600052601260045260246000fd5b0492506002810190505b600a8310611862576001810190505b80915050919050565b6000808273ffffffffffffffffffffffffffffffffffffffff163b119050919050565b600073ffffffffffffffffffffffffffffffffffffffff168273ffffffffffffffffffffffffffffffffffffffff1614156118fe576040517f08c379a00000000000000000000000000000000000000000000000000000000081526004016118f590612198565b60405180910390fd5b611907816113f5565b15611947576040517f08c379a000000000000000000000000000000000000000000000000000000000815260040161193e90612118565b60405180910390fd5b611955600083836001611436565b61195e816113f5565b1561199e576040517f08c379a000000000000000000000000000000000000000000000000000000000815260040161199590612118565b60405180910390fd5b6001600360008473ffffffffffffffffffffffffffffffffffffffff1673ffffffffffffffffffffffffffffffffffffffff16815260200190815260200160002060008282540192505081905550816002600083815260200190815260200160002060006101000a81548173ffffffffffffffffffffffffffffffffffffffff021916908373ffffffffffffffffffffffffffffffffffffffff160217905550808273ffffffffffffffffffffffffffffffffffffffff16600073ffffffffffffffffffffffffffffffffffffffff167fddf252ad1be2c89b69c2b068fc378daa952ba7f163c4a11628f55a4df523b3ef60405160405180910390a4611aa860008383600161143c565b5050565b6000611abf611aba84612258565b612233565b905082815260208101848484011115611ad757600080fd5b611ae2848285612340565b509392505050565b600081359050611af981612721565b92915050565b600081359050611b0e81612738565b92915050565b600081359050611b238161274f565b92915050565b600081519050611b388161274f565b92915050565b600082601f830112611b4f57600080fd5b8135611b5f848260208601611aac565b91505092915050565b600081359050611b7781612766565b92915050565b600060208284031215611b8f57600080fd5b6000611b9d84828501611aea565b91505092915050565b60008060408385031215611bb957600080fd5b6000611bc785828601611aea565b9250506020611bd885828601611aea565b9150509250929050565b600080600060608486031215611bf757600080fd5b6000611c0586828701611aea565b9350506020611c1686828701611aea565b9250506040611c2786828701611b68565b9150509250925092565b60008060008060808587031215611c4757600080fd5b6000611c5587828801611aea565b9450506020611c6687828801611aea565b9350506040611c7787828801611b68565b925050606085013567ffffffffffffffff811115611c9457600080fd5b611ca087828801611b3e565b91505092959194509250565b60008060408385031215611cbf57600080fd5b6000611ccd85828601611aea565b9250506020611cde85828601611aff565b9150509250929050565b60008060408385031215611cfb57600080fd5b6000611d0985828601611aea565b9250506020611d1a85828601611b68565b9150509250929050565b600060208284031215611d3657600080fd5b6000611d4484828501611b14565b91505092915050565b600060208284031215611d5f57600080fd5b6000611d6d84828501611b29565b91505092915050565b600060208284031215611d8857600080fd5b6000611d9684828501611b68565b91505092915050565b611da8816122cc565b82525050565b611db7816122de565b82525050565b6000611dc882612289565b611dd2818561229f565b9350611de281856020860161234f565b611deb81612443565b840191505092915050565b6000611e0182612294565b611e0b81856122b0565b9350611e1b81856020860161234f565b611e2481612443565b840191505092915050565b6000611e3a82612294565b611e4481856122c1565b9350611e5481856020860161234f565b80840191505092915050565b6000611e6d602d836122b0565b9150611e7882612454565b604082019050919050565b6000611e906032836122b0565b9150611e9b826124a3565b604082019050919050565b6000611eb36025836122b0565b9150611ebe826124f2565b604082019050919050565b6000611ed6601c836122b0565b9150611ee182612541565b602082019050919050565b6000611ef96024836122b0565b9150611f048261256a565b604082019050919050565b6000611f1c6019836122b0565b9150611f27826125b9565b602082019050919050565b6000611f3f6029836122b0565b9150611f4a826125e2565b604082019050919050565b6000611f626020836122b0565b9150611f6d82612631565b602082019050919050565b6000611f856018836122b0565b9150611f908261265a565b602082019050919050565b6000611fa86021836122b0565b9150611fb382612683565b604082019050919050565b6000611fcb603d836122b0565b9150611fd6826126d2565b604082019050919050565b611fea81612336565b82525050565b6000611ffc8285611e2f565b91506120088284611e2f565b91508190509392505050565b60006020820190506120296000830184611d9f565b92915050565b60006080820190506120446000830187611d9f565b6120516020830186611d9f565b61205e6040830185611fe1565b81810360608301526120708184611dbd565b905095945050505050565b60006020820190506120906000830184611dae565b92915050565b600060208201905081810360008301526120b08184611df6565b905092915050565b600060208201905081810360008301526120d181611e60565b9050919050565b600060208201905081810360008301526120f181611e83565b9050919050565b6000602082019050818103600083015261211181611ea6565b9050919050565b6000602082019050818103600083015261213181611ec9565b9050919050565b6000602082019050818103600083015261215181611eec565b9050919050565b6000602082019050818103600083015261217181611f0f565b9050919050565b6000602082019050818103600083015261219181611f32565b9050919050565b600060208201905081810360008301526121b181611f55565b9050919050565b600060208201905081810360008301526121d181611f78565b9050919050565b600060208201905081810360008301526121f181611f9b565b9050919050565b6000602082019050818103600083015261221181611fbe565b9050919050565b600060208201905061222d6000830184611fe1565b92915050565b600061223d61224e565b905061224982826123b4565b919050565b6000604051905090565b600067ffffffffffffffff82111561227357612272612414565b5b61227c82612443565b9050602081019050919050565b600081519050919050565b600081519050919050565b600082825260208201905092915050565b600082825260208201905092915050565b600081905092915050565b60006122d782612316565b9050919050565b60008115159050919050565b60007fffffffff0000000000000000000000000000000000000000000000000000000082169050919050565b600073ffffffffffffffffffffffffffffffffffffffff82169050919050565b6000819050919050565b82818337600083830152505050565b60005b8381101561236d578082015181840152602081019050612352565b8381111561237c576000848401525b50505050565b6000600282049050600182168061239a57607f821691505b602082108114156123ae576123ad6123e5565b5b50919050565b6123bd82612443565b810181811067ffffffffffffffff821117156123dc576123db612414565b5b80604052505050565b7f4e487b7100000000000000000000000000000000000000000000000000000000600052602260045260246000fd5b7f4e487b7100000000000000000000000000000000000000000000000000000000600052604160045260246000fd5b6000601f19601f8301169050919050565b7f4552433732313a2063616c6c6572206973206e6f7420746f6b656e206f776e6560008201527f72206f7220617070726f76656400000000000000000000000000000000000000602082015250565b7f4552433732313a207472616e7366657220746f206e6f6e20455243373231526560008201527f63656976657220696d706c656d656e7465720000000000000000000000000000602082015250565b7f4552433732313a207472616e736665722066726f6d20696e636f72726563742060008201527f6f776e6572000000000000000000000000000000000000000000000000000000602082015250565b7f4552433732313a20746f6b656e20616c7265616479206d696e74656400000000600082015250565b7f4552433732313a207472616e7366657220746f20746865207a65726f2061646460008201527f7265737300000000000000000000000000000000000000000000000000000000602082015250565b7f4552433732313a20617070726f766520746f2063616c6c657200000000000000600082015250565b7f4552433732313a2061646472657373207a65726f206973206e6f74206120766160008201527f6c6964206f776e65720000000000000000000000000000000000000000000000602082015250565b7f4552433732313a206d696e7420746f20746865207a65726f2061646472657373600082015250565b7f4552433732313a20696e76616c696420746f6b656e2049440000000000000000600082015250565b7f4552433732313a20617070726f76616c20746f2063757272656e74206f776e6560008201527f7200000000000000000000000000000000000000000000000000000000000000602082015250565b7f4552433732313a20617070726f76652063616c6c6572206973206e6f7420746f60008201527f6b656e206f776e6572206f7220617070726f76656420666f7220616c6c000000602082015250565b61272a816122cc565b811461273557600080fd5b50565b612741816122de565b811461274c57600080fd5b50565b612758816122ea565b811461276357600080fd5b50565b61276f81612336565b811461277a57600080fd5b5056fea26469706673582212203b774967de62c9b285c62133beb8bfdc4620475adfbd1e75d0f9f978ccc9a7e164736f6c63430008040033",
  "linkReferences": {},
  "deployedLinkReferences": {}
}