{
  "_format": "hh-sol-artifact-1",
  "contractName": "Studentmngmt",
  "sourceName": "solidity/contracts/Studentmngmt.sol",
  "abi": [
    {
      "inputs": [],
      "stateMutability": "nonpayable",
      "type": "constructor"
    },
    {
      "inputs": [],
      "name": "courseCount",
      "outputs": [
        {
          "internalType": "int256",
          "name": "",
          "type": "int256"
        }
      ],
      "stateMutability": "view",
      "type": "function"
    },
    {
      "inputs": [
        {
          "internalType": "address",
          "name": "",
          "type": "address"
        }
      ],
      "name": "enrolledCourses",
      "outputs": [
        {
          "internalType": "int256",
          "name": "ID",
          "type": "int256"
        },
        {
          "internalType": "string",
          "name": "name",
          "type": "string"
        },
        {
          "internalType": "int256",
          "name": "createdByID",
          "type": "int256"
        },
        {
          "internalType": "bool",
          "name": "available",
          "type": "bool"
        }
      ],
      "stateMutability": "view",
      "type": "function"
    },
    {
      "inputs": [],
      "name": "getAllStudentAddresses",
      "outputs": [
        {
          "internalType": "address[]",
          "name": "",
          "type": "address[]"
        }
      ],
      "stateMutability": "view",
      "type": "function"
    },
    {
      "inputs": [
        {
          "internalType": "address",
          "name": "",
          "type": "address"
        }
      ],
      "name": "profs",
      "outputs": [
        {
          "internalType": "address",
          "name": "profAddress",
          "type": "address"
        },
        {
          "internalType": "string",
          "name": "fName",
          "type": "string"
        },
        {
          "internalType": "string",
          "name": "lName",
          "type": "string"
        }
      ],
      "stateMutability": "view",
      "type": "function"
    },
    {
      "inputs": [
        {
          "internalType": "address",
          "name": "",
          "type": "address"
        }
      ],
      "name": "students",
      "outputs": [
        {
          "internalType": "address",
          "name": "studentAddress",
          "type": "address"
        },
        {
          "internalType": "string",
          "name": "fName",
          "type": "string"
        },
        {
          "internalType": "string",
          "name": "lName",
          "type": "string"
        },
        {
          "internalType": "string",
          "name": "degree",
          "type": "string"
        },
        {
          "internalType": "int256",
          "name": "semester",
          "type": "int256"
        }
      ],
      "stateMutability": "view",
      "type": "function"
    }
  ],
  "bytecode": "0x608060405234801561001057600080fd5b50336000806101000a81548173ffffffffffffffffffffffffffffffffffffffff021916908373ffffffffffffffffffffffffffffffffffffffff1602179055506109c0806100606000396000f3fe608060405234801561001057600080fd5b50600436106100575760003560e01c806313fdb0a81461005c578063660551591461008e578063a6c807a9146100ac578063e70cc6eb146100e0578063ef348c2c146100fe575b600080fd5b610076600480360381019061007191906105e7565b610131565b604051610085939291906106fb565b60405180910390f35b61009661028b565b6040516100a391906107ca565b60405180910390f35b6100c660048036038101906100c191906105e7565b610291565b6040516100d7959493929190610740565b60405180910390f35b6100e861047f565b6040516100f591906107a8565b60405180910390f35b610118600480360381019061011391906105e7565b61050d565b60405161012894939291906107e5565b60405180910390f35b60066020528060005260406000206000915090508060000160009054906101000a900473ffffffffffffffffffffffffffffffffffffffff169080600101805461017a90610901565b80601f01602080910402602001604051908101604052809291908181526020018280546101a690610901565b80156101f35780601f106101c8576101008083540402835291602001916101f3565b820191906000526020600020905b8154815290600101906020018083116101d657829003601f168201915b50505050509080600201805461020890610901565b80601f016020809104026020016040519081016040528092919081815260200182805461023490610901565b80156102815780601f1061025657610100808354040283529160200191610281565b820191906000526020600020905b81548152906001019060200180831161026457829003601f168201915b5050505050905083565b60015481565b60036020528060005260406000206000915090508060000160009054906101000a900473ffffffffffffffffffffffffffffffffffffffff16908060010180546102da90610901565b80601f016020809104026020016040519081016040528092919081815260200182805461030690610901565b80156103535780601f1061032857610100808354040283529160200191610353565b820191906000526020600020905b81548152906001019060200180831161033657829003601f168201915b50505050509080600201805461036890610901565b80601f016020809104026020016040519081016040528092919081815260200182805461039490610901565b80156103e15780601f106103b6576101008083540402835291602001916103e1565b820191906000526020600020905b8154815290600101906020018083116103c457829003601f168201915b5050505050908060030180546103f690610901565b80601f016020809104026020016040519081016040528092919081815260200182805461042290610901565b801561046f5780601f106104445761010080835404028352916020019161046f565b820191906000526020600020905b81548152906001019060200180831161045257829003601f168201915b5050505050908060040154905085565b6060600280548060200260200160405190810160405280929190818152602001828054801561050357602002820191906000526020600020905b8160009054906101000a900473ffffffffffffffffffffffffffffffffffffffff1673ffffffffffffffffffffffffffffffffffffffff16815260200190600101908083116104b9575b5050505050905090565b600460205280600052604060002060009150905080600001549080600101805461053690610901565b80601f016020809104026020016040519081016040528092919081815260200182805461056290610901565b80156105af5780601f10610584576101008083540402835291602001916105af565b820191906000526020600020905b81548152906001019060200180831161059257829003601f168201915b5050505050908060020154908060030160009054906101000a900460ff16905084565b6000813590506105e181610973565b92915050565b6000602082840312156105f957600080fd5b6000610607848285016105d2565b91505092915050565b600061061c8383610628565b60208301905092915050565b61063181610886565b82525050565b61064081610886565b82525050565b600061065182610841565b61065b8185610864565b935061066683610831565b8060005b8381101561069757815161067e8882610610565b975061068983610857565b92505060018101905061066a565b5085935050505092915050565b6106ad81610898565b82525050565b6106bc816108a4565b82525050565b60006106cd8261084c565b6106d78185610875565b93506106e78185602086016108ce565b6106f081610962565b840191505092915050565b60006060820190506107106000830186610637565b818103602083015261072281856106c2565b9050818103604083015261073681846106c2565b9050949350505050565b600060a0820190506107556000830188610637565b818103602083015261076781876106c2565b9050818103604083015261077b81866106c2565b9050818103606083015261078f81856106c2565b905061079e60808301846106b3565b9695505050505050565b600060208201905081810360008301526107c28184610646565b905092915050565b60006020820190506107df60008301846106b3565b92915050565b60006080820190506107fa60008301876106b3565b818103602083015261080c81866106c2565b905061081b60408301856106b3565b61082860608301846106a4565b95945050505050565b6000819050602082019050919050565b600081519050919050565b600081519050919050565b6000602082019050919050565b600082825260208201905092915050565b600082825260208201905092915050565b6000610891826108ae565b9050919050565b60008115159050919050565b6000819050919050565b600073ffffffffffffffffffffffffffffffffffffffff82169050919050565b60005b838110156108ec5780820151818401526020810190506108d1565b838111156108fb576000848401525b50505050565b6000600282049050600182168061091957607f821691505b6020821081141561092d5761092c610933565b5b50919050565b7f4e487b7100000000000000000000000000000000000000000000000000000000600052602260045260246000fd5b6000601f19601f8301169050919050565b61097c81610886565b811461098757600080fd5b5056fea2646970667358221220cd5b68d763eaddb9637afd51127ade87e9b51fa8331f56dfaa1d9372e1648f4c64736f6c63430008040033",
  "linkReferences": {},
  "deployedLinkReferences": {}
}