{
  "_format": "hh-sol-artifact-1",
  "contractName": "Studentmngmt",
  "sourceName": "solidity/contracts/Studentmngmt.sol",
  "abi": [
    {
      "inputs": [],
      "stateMutability": "nonpayable",
      "type": "constructor"
    },
    {
      "inputs": [
        {
          "internalType": "int256[]",
          "name": "_requiredCourses",
          "type": "int256[]"
        },
        {
          "internalType": "string",
          "name": "_name",
          "type": "string"
        },
        {
          "internalType": "int256",
          "name": "_memberLimit",
          "type": "int256"
        },
        {
          "internalType": "string",
          "name": "_degree",
          "type": "string"
        },
        {
          "internalType": "int256",
          "name": "_semester",
          "type": "int256"
        },
        {
          "internalType": "bool",
          "name": "_isCourseRequired",
          "type": "bool"
        },
        {
          "internalType": "address",
          "name": "_createdByProf",
          "type": "address"
        },
        {
          "internalType": "bool",
          "name": "_available",
          "type": "bool"
        }
      ],
      "name": "addNewCourse",
      "outputs": [],
      "stateMutability": "nonpayable",
      "type": "function"
    },
    {
      "inputs": [
        {
          "internalType": "address",
          "name": "_profAddress",
          "type": "address"
        },
        {
          "internalType": "string",
          "name": "_fName",
          "type": "string"
        },
        {
          "internalType": "string",
          "name": "_lName",
          "type": "string"
        }
      ],
      "name": "addNewProfessor",
      "outputs": [],
      "stateMutability": "nonpayable",
      "type": "function"
    },
    {
      "inputs": [
        {
          "internalType": "address",
          "name": "_studentAddress",
          "type": "address"
        },
        {
          "internalType": "string",
          "name": "_fName",
          "type": "string"
        },
        {
          "internalType": "string",
          "name": "_lName",
          "type": "string"
        },
        {
          "internalType": "string",
          "name": "_regAddress",
          "type": "string"
        },
        {
          "internalType": "string",
          "name": "_degree",
          "type": "string"
        },
        {
          "internalType": "int256",
          "name": "_semester",
          "type": "int256"
        }
      ],
      "name": "addNewStudent",
      "outputs": [],
      "stateMutability": "nonpayable",
      "type": "function"
    },
    {
      "inputs": [
        {
          "internalType": "address",
          "name": "_student",
          "type": "address"
        },
        {
          "internalType": "string",
          "name": "_semester",
          "type": "string"
        }
      ],
      "name": "addSemesterToPay",
      "outputs": [],
      "stateMutability": "nonpayable",
      "type": "function"
    },
    {
      "inputs": [],
      "name": "courseCount",
      "outputs": [
        {
          "internalType": "int256",
          "name": "",
          "type": "int256"
        }
      ],
      "stateMutability": "view",
      "type": "function"
    },
    {
      "inputs": [
        {
          "internalType": "address",
          "name": "",
          "type": "address"
        },
        {
          "internalType": "uint256",
          "name": "",
          "type": "uint256"
        }
      ],
      "name": "eCourses",
      "outputs": [
        {
          "internalType": "int256",
          "name": "ID",
          "type": "int256"
        },
        {
          "internalType": "address",
          "name": "student",
          "type": "address"
        },
        {
          "internalType": "string",
          "name": "mark",
          "type": "string"
        },
        {
          "internalType": "bool",
          "name": "takesPart",
          "type": "bool"
        },
        {
          "internalType": "bool",
          "name": "passed",
          "type": "bool"
        }
      ],
      "stateMutability": "view",
      "type": "function"
    },
    {
      "inputs": [
        {
          "internalType": "int256",
          "name": "_courseID",
          "type": "int256"
        }
      ],
      "name": "enrollInCourse",
      "outputs": [],
      "stateMutability": "nonpayable",
      "type": "function"
    },
    {
      "inputs": [],
      "name": "getAllCourses",
      "outputs": [
        {
          "components": [
            {
              "internalType": "int256",
              "name": "ID",
              "type": "int256"
            },
            {
              "internalType": "string",
              "name": "name",
              "type": "string"
            },
            {
              "internalType": "int256",
              "name": "memberLimit",
              "type": "int256"
            },
            {
              "internalType": "int256",
              "name": "memberCount",
              "type": "int256"
            },
            {
              "internalType": "string",
              "name": "degree",
              "type": "string"
            },
            {
              "internalType": "int256",
              "name": "semester",
              "type": "int256"
            },
            {
              "internalType": "bool",
              "name": "isCourseRequired",
              "type": "bool"
            },
            {
              "internalType": "address",
              "name": "createdByProf",
              "type": "address"
            },
            {
              "internalType": "bool",
              "name": "available",
              "type": "bool"
            }
          ],
          "internalType": "struct Studentmngmt.Course[]",
          "name": "",
          "type": "tuple[]"
        }
      ],
      "stateMutability": "view",
      "type": "function"
    },
    {
      "inputs": [],
      "name": "getAllProfessorAddresses",
      "outputs": [
        {
          "internalType": "address[]",
          "name": "",
          "type": "address[]"
        }
      ],
      "stateMutability": "view",
      "type": "function"
    },
    {
      "inputs": [],
      "name": "getAllStudentAddresses",
      "outputs": [
        {
          "internalType": "address[]",
          "name": "",
          "type": "address[]"
        }
      ],
      "stateMutability": "view",
      "type": "function"
    },
    {
      "inputs": [
        {
          "internalType": "address",
          "name": "_student",
          "type": "address"
        }
      ],
      "name": "getEnrolledCourses",
      "outputs": [
        {
          "components": [
            {
              "internalType": "int256",
              "name": "ID",
              "type": "int256"
            },
            {
              "internalType": "address",
              "name": "student",
              "type": "address"
            },
            {
              "internalType": "string",
              "name": "mark",
              "type": "string"
            },
            {
              "internalType": "bool",
              "name": "takesPart",
              "type": "bool"
            },
            {
              "internalType": "bool",
              "name": "passed",
              "type": "bool"
            }
          ],
          "internalType": "struct Studentmngmt.EnrolledCourse[]",
          "name": "",
          "type": "tuple[]"
        }
      ],
      "stateMutability": "view",
      "type": "function"
    },
    {
      "inputs": [
        {
          "internalType": "address",
          "name": "_student",
          "type": "address"
        }
      ],
      "name": "getSemesterFees",
      "outputs": [
        {
          "components": [
            {
              "internalType": "uint256",
              "name": "tokenID",
              "type": "uint256"
            },
            {
              "internalType": "string",
              "name": "semester",
              "type": "string"
            },
            {
              "internalType": "address",
              "name": "student",
              "type": "address"
            },
            {
              "internalType": "bool",
              "name": "isPayed",
              "type": "bool"
            }
          ],
          "internalType": "struct Studentmngmt.SemesterRegistration[]",
          "name": "",
          "type": "tuple[]"
        }
      ],
      "stateMutability": "view",
      "type": "function"
    },
    {
      "inputs": [
        {
          "internalType": "address",
          "name": "_student",
          "type": "address"
        }
      ],
      "name": "getStudentDetails",
      "outputs": [
        {
          "internalType": "string",
          "name": "",
          "type": "string"
        },
        {
          "internalType": "string",
          "name": "",
          "type": "string"
        },
        {
          "internalType": "string",
          "name": "",
          "type": "string"
        },
        {
          "internalType": "string",
          "name": "",
          "type": "string"
        },
        {
          "internalType": "int256",
          "name": "",
          "type": "int256"
        }
      ],
      "stateMutability": "view",
      "type": "function"
    },
    {
      "inputs": [
        {
          "internalType": "string",
          "name": "_semester",
          "type": "string"
        }
      ],
      "name": "paySemester",
      "outputs": [],
      "stateMutability": "payable",
      "type": "function"
    },
    {
      "inputs": [
        {
          "internalType": "address",
          "name": "",
          "type": "address"
        }
      ],
      "name": "profs",
      "outputs": [
        {
          "internalType": "address",
          "name": "profAddress",
          "type": "address"
        },
        {
          "internalType": "string",
          "name": "fName",
          "type": "string"
        },
        {
          "internalType": "string",
          "name": "lName",
          "type": "string"
        }
      ],
      "stateMutability": "view",
      "type": "function"
    },
    {
      "inputs": [
        {
          "internalType": "int256",
          "name": "",
          "type": "int256"
        },
        {
          "internalType": "uint256",
          "name": "",
          "type": "uint256"
        }
      ],
      "name": "requiredCourses",
      "outputs": [
        {
          "internalType": "int256",
          "name": "",
          "type": "int256"
        }
      ],
      "stateMutability": "view",
      "type": "function"
    },
    {
      "inputs": [
        {
          "internalType": "address",
          "name": "",
          "type": "address"
        },
        {
          "internalType": "uint256",
          "name": "",
          "type": "uint256"
        }
      ],
      "name": "semesterFees",
      "outputs": [
        {
          "internalType": "uint256",
          "name": "tokenID",
          "type": "uint256"
        },
        {
          "internalType": "string",
          "name": "semester",
          "type": "string"
        },
        {
          "internalType": "address",
          "name": "student",
          "type": "address"
        },
        {
          "internalType": "bool",
          "name": "isPayed",
          "type": "bool"
        }
      ],
      "stateMutability": "view",
      "type": "function"
    },
    {
      "inputs": [
        {
          "internalType": "address",
          "name": "",
          "type": "address"
        }
      ],
      "name": "students",
      "outputs": [
        {
          "internalType": "address",
          "name": "studentAddress",
          "type": "address"
        },
        {
          "internalType": "string",
          "name": "fName",
          "type": "string"
        },
        {
          "internalType": "string",
          "name": "lName",
          "type": "string"
        },
        {
          "internalType": "string",
          "name": "regAddress",
          "type": "string"
        },
        {
          "internalType": "string",
          "name": "degree",
          "type": "string"
        },
        {
          "internalType": "int256",
          "name": "semester",
          "type": "int256"
        }
      ],
      "stateMutability": "view",
      "type": "function"
    },
    {
      "inputs": [],
      "name": "tokenCount",
      "outputs": [
        {
          "internalType": "uint256",
          "name": "",
          "type": "uint256"
        }
      ],
      "stateMutability": "view",
      "type": "function"
    },
    {
      "inputs": [
        {
          "internalType": "int256",
          "name": "_courseID",
          "type": "int256"
        }
      ],
      "name": "unsubscribeFromCourse",
      "outputs": [],
      "stateMutability": "nonpayable",
      "type": "function"
    },
    {
      "inputs": [
        {
          "internalType": "address",
          "name": "_student",
          "type": "address"
        },
        {
          "internalType": "int256",
          "name": "_courseID",
          "type": "int256"
        },
        {
          "internalType": "string",
          "name": "_mark",
          "type": "string"
        }
      ],
      "name": "updateMarkOfStudent",
      "outputs": [],
      "stateMutability": "nonpayable",
      "type": "function"
    },
    {
      "inputs": [
        {
          "internalType": "string",
          "name": "_regAddress",
          "type": "string"
        }
      ],
      "name": "updateRegAddressStudent",
      "outputs": [],
      "stateMutability": "nonpayable",
      "type": "function"
    }
  ],
  "bytecode": "0x6080604052604051620000129062000084565b604051809103906000f0801580156200002f573d6000803e3d6000fd5b50600260006101000a81548173ffffffffffffffffffffffffffffffffffffffff021916908373ffffffffffffffffffffffffffffffffffffffff1602179055503480156200007d57600080fd5b5062000092565b6129a8806200548c83390190565b6153ea80620000a26000396000f3fe6080604052600436106101355760003560e01c806366055159116100ab578063a6c807a91161006f578063a6c807a914610432578063c7ce2a4a14610474578063d0b371bd146104b1578063e08a99cf146104f2578063e70cc6eb1461051b578063fb7f563a1461054657610135565b8063660551591461036e57806366278e39146103995780638d48f7d2146103c25780639d4c2aa7146103de5780639f181b5e1461040757610135565b806327910959116100fd578063279109591461025e5780633b31cf6d14610287578063420c017d146102b057806345667721146102d957806351c1a7711461031a5780635345c9121461034357610135565b806304e48bd11461013a578063060c3488146101655780630993031e146101a557806313fdb0a8146101e257806319a3df8314610221575b600080fd5b34801561014657600080fd5b5061014f61056f565b60405161015c919061485b565b60405180910390f35b34801561017157600080fd5b5061018c60048036038101906101879190613f0f565b6107a7565b60405161019c9493929190614b40565b60405180910390f35b3480156101b157600080fd5b506101cc60048036038101906101c79190613cc3565b6108a9565b6040516101d9919061487d565b60405180910390f35b3480156101ee57600080fd5b5061020960048036038101906102049190613cc3565b610a6f565b60405161021893929190614777565b60405180910390f35b34801561022d57600080fd5b5061024860048036038101906102439190613cc3565b610bc9565b604051610255919061489f565b60405180910390f35b34801561026a57600080fd5b5061028560048036038101906102809190614045565b610d74565b005b34801561029357600080fd5b506102ae60048036038101906102a99190613e26565b611325565b005b3480156102bc57600080fd5b506102d760048036038101906102d291906140aa565b6114da565b005b3480156102e557600080fd5b5061030060048036038101906102fb9190613f0f565b611606565b6040516103119594939291906148dc565b60405180910390f35b34801561032657600080fd5b50610341600480360381019061033c9190614045565b61171b565b005b34801561034f57600080fd5b50610358612641565b6040516103659190614839565b60405180910390f35b34801561037a57600080fd5b506103836126cf565b60405161039091906148c1565b60405180910390f35b3480156103a557600080fd5b506103c060048036038101906103bb9190613d53565b6126d5565b005b6103dc60048036038101906103d791906140aa565b6128fd565b005b3480156103ea57600080fd5b5061040560048036038101906104009190613cec565b612d36565b005b34801561041357600080fd5b5061041c612f26565b6040516104299190614b25565b60405180910390f35b34801561043e57600080fd5b5061045960048036038101906104549190613cc3565b612f2c565b60405161046b969594939291906147bc565b60405180910390f35b34801561048057600080fd5b5061049b6004803603810190610496919061406e565b6131a8565b6040516104a891906148c1565b60405180910390f35b3480156104bd57600080fd5b506104d860048036038101906104d39190613cc3565b6131d9565b6040516104e9959493929190614936565b60405180910390f35b3480156104fe57600080fd5b5061051960048036038101906105149190613f4b565b613503565b005b34801561052757600080fd5b50610530613798565b60405161053d9190614839565b60405180910390f35b34801561055257600080fd5b5061056d60048036038101906105689190613da7565b613826565b005b60606005805480602002602001604051908101604052809291908181526020016000905b8282101561079e578382906000526020600020906007020160405180610120016040529081600082015481526020016001820180546105d190614ecf565b80601f01602080910402602001604051908101604052809291908181526020018280546105fd90614ecf565b801561064a5780601f1061061f5761010080835404028352916020019161064a565b820191906000526020600020905b81548152906001019060200180831161062d57829003601f168201915b50505050508152602001600282015481526020016003820154815260200160048201805461067790614ecf565b80601f01602080910402602001604051908101604052809291908181526020018280546106a390614ecf565b80156106f05780601f106106c5576101008083540402835291602001916106f0565b820191906000526020600020905b8154815290600101906020018083116106d357829003601f168201915b50505050508152602001600582015481526020016006820160009054906101000a900460ff161515151581526020016006820160019054906101000a900473ffffffffffffffffffffffffffffffffffffffff1673ffffffffffffffffffffffffffffffffffffffff1673ffffffffffffffffffffffffffffffffffffffff1681526020016006820160159054906101000a900460ff16151515158152505081526020019060010190610593565b50505050905090565b600a60205281600052604060002081815481106107c357600080fd5b9060005260206000209060030201600091509150508060000154908060010180546107ed90614ecf565b80601f016020809104026020016040519081016040528092919081815260200182805461081990614ecf565b80156108665780601f1061083b57610100808354040283529160200191610866565b820191906000526020600020905b81548152906001019060200180831161084957829003601f168201915b5050505050908060020160009054906101000a900473ffffffffffffffffffffffffffffffffffffffff16908060020160149054906101000a900460ff16905084565b6060600860008373ffffffffffffffffffffffffffffffffffffffff1673ffffffffffffffffffffffffffffffffffffffff168152602001908152602001600020805480602002602001604051908101604052809291908181526020016000905b82821015610a6457838290600052602060002090600402016040518060a0016040529081600082015481526020016001820160009054906101000a900473ffffffffffffffffffffffffffffffffffffffff1673ffffffffffffffffffffffffffffffffffffffff1673ffffffffffffffffffffffffffffffffffffffff16815260200160028201805461099d90614ecf565b80601f01602080910402602001604051908101604052809291908181526020018280546109c990614ecf565b8015610a165780601f106109eb57610100808354040283529160200191610a16565b820191906000526020600020905b8154815290600101906020018083116109f957829003601f168201915b505050505081526020016003820160009054906101000a900460ff161515151581526020016003820160019054906101000a900460ff1615151515815250508152602001906001019061090a565b505050509050919050565b60076020528060005260406000206000915090508060000160009054906101000a900473ffffffffffffffffffffffffffffffffffffffff1690806001018054610ab890614ecf565b80601f0160208091040260200160405190810160405280929190818152602001828054610ae490614ecf565b8015610b315780601f10610b0657610100808354040283529160200191610b31565b820191906000526020600020905b815481529060010190602001808311610b1457829003601f168201915b505050505090806002018054610b4690614ecf565b80601f0160208091040260200160405190810160405280929190818152602001828054610b7290614ecf565b8015610bbf5780601f10610b9457610100808354040283529160200191610bbf565b820191906000526020600020905b815481529060010190602001808311610ba257829003601f168201915b5050505050905083565b6060600a60008373ffffffffffffffffffffffffffffffffffffffff1673ffffffffffffffffffffffffffffffffffffffff168152602001908152602001600020805480602002602001604051908101604052809291908181526020016000905b82821015610d69578382906000526020600020906003020160405180608001604052908160008201548152602001600182018054610c6790614ecf565b80601f0160208091040260200160405190810160405280929190818152602001828054610c9390614ecf565b8015610ce05780601f10610cb557610100808354040283529160200191610ce0565b820191906000526020600020905b815481529060010190602001808311610cc357829003601f168201915b505050505081526020016002820160009054906101000a900473ffffffffffffffffffffffffffffffffffffffff1673ffffffffffffffffffffffffffffffffffffffff1673ffffffffffffffffffffffffffffffffffffffff1681526020016002820160149054906101000a900460ff16151515158152505081526020019060010190610c2a565b505050509050919050565b600073ffffffffffffffffffffffffffffffffffffffff16600660003373ffffffffffffffffffffffffffffffffffffffff1673ffffffffffffffffffffffffffffffffffffffff16815260200190815260200160002060000160009054906101000a900473ffffffffffffffffffffffffffffffffffffffff1673ffffffffffffffffffffffffffffffffffffffff161415610e46576040517f08c379a0000000000000000000000000000000000000000000000000000000008152600401610e3d90614a65565b60405180910390fd5b6000600860003373ffffffffffffffffffffffffffffffffffffffff1673ffffffffffffffffffffffffffffffffffffffff168152602001908152602001600020805480602002602001604051908101604052809291908181526020016000905b8282101561100157838290600052602060002090600402016040518060a0016040529081600082015481526020016001820160009054906101000a900473ffffffffffffffffffffffffffffffffffffffff1673ffffffffffffffffffffffffffffffffffffffff1673ffffffffffffffffffffffffffffffffffffffff168152602001600282018054610f3a90614ecf565b80601f0160208091040260200160405190810160405280929190818152602001828054610f6690614ecf565b8015610fb35780601f10610f8857610100808354040283529160200191610fb3565b820191906000526020600020905b815481529060010190602001808311610f9657829003601f168201915b505050505081526020016003820160009054906101000a900460ff161515151581526020016003820160019054906101000a900460ff16151515158152505081526020019060010190610ea7565b50505050905060005b815181101561122b578282828151811061104d577f4e487b7100000000000000000000000000000000000000000000000000000000600052603260045260246000fd5b6020026020010151600001511480156110d557503373ffffffffffffffffffffffffffffffffffffffff168282815181106110b1577f4e487b7100000000000000000000000000000000000000000000000000000000600052603260045260246000fd5b60200260200101516020015173ffffffffffffffffffffffffffffffffffffffff16145b1561121857818181518110611113577f4e487b7100000000000000000000000000000000000000000000000000000000600052603260045260246000fd5b6020026020010151608001511561115f576040517f08c379a000000000000000000000000000000000000000000000000000000000815260040161115690614a45565b60405180910390fd5b600560018461116e9190614dbe565b815481106111a5577f4e487b7100000000000000000000000000000000000000000000000000000000600052603260045260246000fd5b906000526020600020906007020160030160008154809291906111c790614e86565b9190505550818181518110611205577f4e487b7100000000000000000000000000000000000000000000000000000000600052603260045260246000fd5b602002602001016112146139db565b8152505b808061122390614f7b565b91505061100a565b50600860003373ffffffffffffffffffffffffffffffffffffffff1673ffffffffffffffffffffffffffffffffffffffff1681526020019081526020016000208054806112a1577f4e487b7100000000000000000000000000000000000000000000000000000000600052603160045260246000fd5b60019003818190600052602060002090600402016000808201600090556001820160006101000a81549073ffffffffffffffffffffffffffffffffffffffff02191690556002820160006112f59190613a24565b6003820160006101000a81549060ff02191690556003820160016101000a81549060ff0219169055505090555050565b6040518060c001604052808773ffffffffffffffffffffffffffffffffffffffff16815260200186815260200185815260200184815260200183815260200182815250600660008873ffffffffffffffffffffffffffffffffffffffff1673ffffffffffffffffffffffffffffffffffffffff16815260200190815260200160002060008201518160000160006101000a81548173ffffffffffffffffffffffffffffffffffffffff021916908373ffffffffffffffffffffffffffffffffffffffff160217905550602082015181600101908051906020019061140a929190613a64565b506040820151816002019080519060200190611427929190613a64565b506060820151816003019080519060200190611444929190613a64565b506080820151816004019080519060200190611461929190613a64565b5060a082015181600501559050506003869080600181540180825580915050600190039060005260206000200160009091909190916101000a81548173ffffffffffffffffffffffffffffffffffffffff021916908373ffffffffffffffffffffffffffffffffffffffff160217905550505050505050565b600073ffffffffffffffffffffffffffffffffffffffff16600660003373ffffffffffffffffffffffffffffffffffffffff1673ffffffffffffffffffffffffffffffffffffffff16815260200190815260200160002060000160009054906101000a900473ffffffffffffffffffffffffffffffffffffffff1673ffffffffffffffffffffffffffffffffffffffff1614156115ac576040517f08c379a00000000000000000000000000000000000000000000000000000000081526004016115a390614a65565b60405180910390fd5b80600660003373ffffffffffffffffffffffffffffffffffffffff1673ffffffffffffffffffffffffffffffffffffffff1681526020019081526020016000206003019080519060200190611602929190613a64565b5050565b6008602052816000526040600020818154811061162257600080fd5b9060005260206000209060040201600091509150508060000154908060010160009054906101000a900473ffffffffffffffffffffffffffffffffffffffff169080600201805461167290614ecf565b80601f016020809104026020016040519081016040528092919081815260200182805461169e90614ecf565b80156116eb5780601f106116c0576101008083540402835291602001916116eb565b820191906000526020600020905b8154815290600101906020018083116116ce57829003601f168201915b5050505050908060030160009054906101000a900460ff16908060030160019054906101000a900460ff16905085565b600073ffffffffffffffffffffffffffffffffffffffff16600660003373ffffffffffffffffffffffffffffffffffffffff1673ffffffffffffffffffffffffffffffffffffffff16815260200190815260200160002060000160009054906101000a900473ffffffffffffffffffffffffffffffffffffffff1673ffffffffffffffffffffffffffffffffffffffff1614156117ed576040517f08c379a00000000000000000000000000000000000000000000000000000000081526004016117e490614a65565b60405180910390fd5b8060056001826117fd9190614dbe565b81548110611834577f4e487b7100000000000000000000000000000000000000000000000000000000600052603260045260246000fd5b906000526020600020906007020160060160159054906101000a900460ff16611892576040517f08c379a000000000000000000000000000000000000000000000000000000000815260040161188990614ae5565b60405180910390fd5b60056001826118a19190614dbe565b815481106118d8577f4e487b7100000000000000000000000000000000000000000000000000000000600052603260045260246000fd5b90600052602060002090600702016003015460056001836118f99190614dbe565b81548110611930577f4e487b7100000000000000000000000000000000000000000000000000000000600052603260045260246000fd5b90600052602060002090600702016002015413611982576040517f08c379a000000000000000000000000000000000000000000000000000000000815260040161197990614a25565b60405180910390fd5b611b35600660003373ffffffffffffffffffffffffffffffffffffffff1673ffffffffffffffffffffffffffffffffffffffff16815260200190815260200160002060040180546119d290614ecf565b80601f01602080910402602001604051908101604052809291908181526020018280546119fe90614ecf565b8015611a4b5780601f10611a2057610100808354040283529160200191611a4b565b820191906000526020600020905b815481529060010190602001808311611a2e57829003601f168201915b50505050506005600184611a5f9190614dbe565b81548110611a96577f4e487b7100000000000000000000000000000000000000000000000000000000600052603260045260246000fd5b90600052602060002090600702016004018054611ab290614ecf565b80601f0160208091040260200160405190810160405280929190818152602001828054611ade90614ecf565b8015611b2b5780601f10611b0057610100808354040283529160200191611b2b565b820191906000526020600020905b815481529060010190602001808311611b0e57829003601f168201915b5050505050613982565b611b74576040517f08c379a0000000000000000000000000000000000000000000000000000000008152600401611b6b90614a05565b60405180910390fd5b6005600182611b839190614dbe565b81548110611bba577f4e487b7100000000000000000000000000000000000000000000000000000000600052603260045260246000fd5b906000526020600020906007020160050154600660003373ffffffffffffffffffffffffffffffffffffffff1673ffffffffffffffffffffffffffffffffffffffff1681526020019081526020016000206005015414611c4f576040517f08c379a0000000000000000000000000000000000000000000000000000000008152600401611c4690614ac5565b60405180910390fd5b6000600860003373ffffffffffffffffffffffffffffffffffffffff1673ffffffffffffffffffffffffffffffffffffffff168152602001908152602001600020805480602002602001604051908101604052809291908181526020016000905b82821015611e0a57838290600052602060002090600402016040518060a0016040529081600082015481526020016001820160009054906101000a900473ffffffffffffffffffffffffffffffffffffffff1673ffffffffffffffffffffffffffffffffffffffff1673ffffffffffffffffffffffffffffffffffffffff168152602001600282018054611d4390614ecf565b80601f0160208091040260200160405190810160405280929190818152602001828054611d6f90614ecf565b8015611dbc5780601f10611d9157610100808354040283529160200191611dbc565b820191906000526020600020905b815481529060010190602001808311611d9f57829003601f168201915b505050505081526020016003820160009054906101000a900460ff161515151581526020016003820160019054906101000a900460ff16151515158152505081526020019060010190611cb0565b5050505090506005600183611e1f9190614dbe565b81548110611e56577f4e487b7100000000000000000000000000000000000000000000000000000000600052603260045260246000fd5b906000526020600020906007020160060160009054906101000a900460ff16156121c657600081511415611ebf576040517f08c379a0000000000000000000000000000000000000000000000000000000008152600401611eb690614aa5565b60405180910390fd5b600060096000848152602001908152602001600020805480602002602001604051908101604052809291908181526020018280548015611f1e57602002820191906000526020600020905b815481526020019060010190808311611f0a575b5050505050905060005b81518110156121c35760005b83518110156121af5784848281518110611f77577f4e487b7100000000000000000000000000000000000000000000000000000000600052603260045260246000fd5b6020026020010151600001511415611fc4576040517f08c379a0000000000000000000000000000000000000000000000000000000008152600401611fbb906149c5565b60405180910390fd5b3373ffffffffffffffffffffffffffffffffffffffff16848281518110612014577f4e487b7100000000000000000000000000000000000000000000000000000000600052603260045260246000fd5b60200260200101516020015173ffffffffffffffffffffffffffffffffffffffff161480156120c65750828281518110612077577f4e487b7100000000000000000000000000000000000000000000000000000000600052603260045260246000fd5b60200260200101518482815181106120b8577f4e487b7100000000000000000000000000000000000000000000000000000000600052603260045260246000fd5b602002602001015160000151145b1561219c57838181518110612104577f4e487b7100000000000000000000000000000000000000000000000000000000600052603260045260246000fd5b6020026020010151606001518061215c575083818151811061214f577f4e487b7100000000000000000000000000000000000000000000000000000000600052603260045260246000fd5b6020026020010151608001515b61219b576040517f08c379a0000000000000000000000000000000000000000000000000000000008152600401612192906149e5565b60405180910390fd5b5b80806121a790614f7b565b915050611f34565b5080806121bb90614f7b565b915050611f28565b50505b6000600860003373ffffffffffffffffffffffffffffffffffffffff1673ffffffffffffffffffffffffffffffffffffffff168152602001908152602001600020805480602002602001604051908101604052809291908181526020016000905b8282101561238157838290600052602060002090600402016040518060a0016040529081600082015481526020016001820160009054906101000a900473ffffffffffffffffffffffffffffffffffffffff1673ffffffffffffffffffffffffffffffffffffffff1673ffffffffffffffffffffffffffffffffffffffff1681526020016002820180546122ba90614ecf565b80601f01602080910402602001604051908101604052809291908181526020018280546122e690614ecf565b80156123335780601f1061230857610100808354040283529160200191612333565b820191906000526020600020905b81548152906001019060200180831161231657829003601f168201915b505050505081526020016003820160009054906101000a900460ff161515151581526020016003820160019054906101000a900460ff16151515158152505081526020019060010190612227565b50505050905060008151146124385760005b815181101561243657848282815181106123d6577f4e487b7100000000000000000000000000000000000000000000000000000000600052603260045260246000fd5b6020026020010151600001511415612423576040517f08c379a000000000000000000000000000000000000000000000000000000000815260040161241a906149c5565b60405180910390fd5b808061242e90614f7b565b915050612393565b505b60056001856124479190614dbe565b8154811061247e577f4e487b7100000000000000000000000000000000000000000000000000000000600052603260045260246000fd5b906000526020600020906007020160030160008154809291906124a090614f32565b919050555060006040518060a001604052808681526020013373ffffffffffffffffffffffffffffffffffffffff1681526020016040518060400160405280600381526020017f302e3000000000000000000000000000000000000000000000000000000000008152508152602001600115158152602001600015158152509050600860003373ffffffffffffffffffffffffffffffffffffffff1673ffffffffffffffffffffffffffffffffffffffff1681526020019081526020016000208190806001815401808255809150506001900390600052602060002090600402016000909190919091506000820151816000015560208201518160010160006101000a81548173ffffffffffffffffffffffffffffffffffffffff021916908373ffffffffffffffffffffffffffffffffffffffff16021790555060408201518160020190805190602001906125f7929190613a64565b5060608201518160030160006101000a81548160ff02191690831515021790555060808201518160030160016101000a81548160ff02191690831515021790555050505050505050565b606060048054806020026020016040519081016040528092919081815260200182805480156126c557602002820191906000526020600020905b8160009054906101000a900473ffffffffffffffffffffffffffffffffffffffff1673ffffffffffffffffffffffffffffffffffffffff168152602001906001019080831161267b575b5050505050905090565b60005481565b600073ffffffffffffffffffffffffffffffffffffffff16600760003373ffffffffffffffffffffffffffffffffffffffff1673ffffffffffffffffffffffffffffffffffffffff16815260200190815260200160002060000160009054906101000a900473ffffffffffffffffffffffffffffffffffffffff1673ffffffffffffffffffffffffffffffffffffffff1614156127a7576040517f08c379a000000000000000000000000000000000000000000000000000000000815260040161279e90614b05565b60405180910390fd5b600160008154809291906127ba90614f7b565b91905055506000604051806080016040528060015481526020018381526020018473ffffffffffffffffffffffffffffffffffffffff168152602001600015158152509050600a60008473ffffffffffffffffffffffffffffffffffffffff1673ffffffffffffffffffffffffffffffffffffffff16815260200190815260200160002081908060018154018082558091505060019003906000526020600020906003020160009091909190915060008201518160000155602082015181600101908051906020019061288e929190613a64565b5060408201518160020160006101000a81548173ffffffffffffffffffffffffffffffffffffffff021916908373ffffffffffffffffffffffffffffffffffffffff16021790555060608201518160020160146101000a81548160ff0219169083151502179055505050505050565b600073ffffffffffffffffffffffffffffffffffffffff16600660003373ffffffffffffffffffffffffffffffffffffffff1673ffffffffffffffffffffffffffffffffffffffff16815260200190815260200160002060000160009054906101000a900473ffffffffffffffffffffffffffffffffffffffff1673ffffffffffffffffffffffffffffffffffffffff1614156129cf576040517f08c379a00000000000000000000000000000000000000000000000000000000081526004016129c690614a65565b60405180910390fd5b66b1a2bc2ec500003414612a18576040517f08c379a0000000000000000000000000000000000000000000000000000000008152600401612a0f906149a5565b60405180910390fd5b6000600a60003373ffffffffffffffffffffffffffffffffffffffff1673ffffffffffffffffffffffffffffffffffffffff168152602001908152602001600020905060005b8180549050811015612d3157612b46828281548110612aa6577f4e487b7100000000000000000000000000000000000000000000000000000000600052603260045260246000fd5b90600052602060002090600302016001018054612ac290614ecf565b80601f0160208091040260200160405190810160405280929190818152602001828054612aee90614ecf565b8015612b3b5780601f10612b1057610100808354040283529160200191612b3b565b820191906000526020600020905b815481529060010190602001808311612b1e57829003601f168201915b505050505084613982565b15612d1e57818181548110612b84577f4e487b7100000000000000000000000000000000000000000000000000000000600052603260045260246000fd5b906000526020600020906003020160020160149054906101000a900460ff1615612be3576040517f08c379a0000000000000000000000000000000000000000000000000000000008152600401612bda90614a85565b60405180910390fd5b6001828281548110612c1e577f4e487b7100000000000000000000000000000000000000000000000000000000600052603260045260246000fd5b906000526020600020906003020160020160146101000a81548160ff021916908315150217905550600260009054906101000a900473ffffffffffffffffffffffffffffffffffffffff1673ffffffffffffffffffffffffffffffffffffffff1663c290d691838381548110612cbd577f4e487b7100000000000000000000000000000000000000000000000000000000600052603260045260246000fd5b9060005260206000209060030201600001546040518263ffffffff1660e01b8152600401612ceb9190614b25565b600060405180830381600087803b158015612d0557600080fd5b505af1158015612d19573d6000803e3d6000fd5b505050505b8080612d2990614f7b565b915050612a5e565b505050565b600073ffffffffffffffffffffffffffffffffffffffff16600760003373ffffffffffffffffffffffffffffffffffffffff1673ffffffffffffffffffffffffffffffffffffffff16815260200190815260200160002060000160009054906101000a900473ffffffffffffffffffffffffffffffffffffffff1673ffffffffffffffffffffffffffffffffffffffff161415612e08576040517f08c379a0000000000000000000000000000000000000000000000000000000008152600401612dff90614b05565b60405180910390fd5b6000600860008573ffffffffffffffffffffffffffffffffffffffff1673ffffffffffffffffffffffffffffffffffffffff168152602001908152602001600020905060005b8180549050811015612f1f5783828281548110612e94577f4e487b7100000000000000000000000000000000000000000000000000000000600052603260045260246000fd5b9060005260206000209060040201600001541415612f0c5782828281548110612ee6577f4e487b7100000000000000000000000000000000000000000000000000000000600052603260045260246000fd5b90600052602060002090600402016002019080519060200190612f0a929190613a64565b505b8080612f1790614f7b565b915050612e4e565b5050505050565b60015481565b60066020528060005260406000206000915090508060000160009054906101000a900473ffffffffffffffffffffffffffffffffffffffff1690806001018054612f7590614ecf565b80601f0160208091040260200160405190810160405280929190818152602001828054612fa190614ecf565b8015612fee5780601f10612fc357610100808354040283529160200191612fee565b820191906000526020600020905b815481529060010190602001808311612fd157829003601f168201915b50505050509080600201805461300390614ecf565b80601f016020809104026020016040519081016040528092919081815260200182805461302f90614ecf565b801561307c5780601f106130515761010080835404028352916020019161307c565b820191906000526020600020905b81548152906001019060200180831161305f57829003601f168201915b50505050509080600301805461309190614ecf565b80601f01602080910402602001604051908101604052809291908181526020018280546130bd90614ecf565b801561310a5780601f106130df5761010080835404028352916020019161310a565b820191906000526020600020905b8154815290600101906020018083116130ed57829003601f168201915b50505050509080600401805461311f90614ecf565b80601f016020809104026020016040519081016040528092919081815260200182805461314b90614ecf565b80156131985780601f1061316d57610100808354040283529160200191613198565b820191906000526020600020905b81548152906001019060200180831161317b57829003601f168201915b5050505050908060050154905086565b600960205281600052604060002081815481106131c457600080fd5b90600052602060002001600091509150505481565b606080606080600080600660008873ffffffffffffffffffffffffffffffffffffffff1673ffffffffffffffffffffffffffffffffffffffff1681526020019081526020016000206040518060c00160405290816000820160009054906101000a900473ffffffffffffffffffffffffffffffffffffffff1673ffffffffffffffffffffffffffffffffffffffff1673ffffffffffffffffffffffffffffffffffffffff16815260200160018201805461329290614ecf565b80601f01602080910402602001604051908101604052809291908181526020018280546132be90614ecf565b801561330b5780601f106132e05761010080835404028352916020019161330b565b820191906000526020600020905b8154815290600101906020018083116132ee57829003601f168201915b5050505050815260200160028201805461332490614ecf565b80601f016020809104026020016040519081016040528092919081815260200182805461335090614ecf565b801561339d5780601f106133725761010080835404028352916020019161339d565b820191906000526020600020905b81548152906001019060200180831161338057829003601f168201915b505050505081526020016003820180546133b690614ecf565b80601f01602080910402602001604051908101604052809291908181526020018280546133e290614ecf565b801561342f5780601f106134045761010080835404028352916020019161342f565b820191906000526020600020905b81548152906001019060200180831161341257829003601f168201915b5050505050815260200160048201805461344890614ecf565b80601f016020809104026020016040519081016040528092919081815260200182805461347490614ecf565b80156134c15780601f10613496576101008083540402835291602001916134c1565b820191906000526020600020905b8154815290600101906020018083116134a457829003601f168201915b50505050508152602001600582015481525050905080602001518160400151826060015183608001518460a00151955095509550955095505091939590929450565b600073ffffffffffffffffffffffffffffffffffffffff16600760003373ffffffffffffffffffffffffffffffffffffffff1673ffffffffffffffffffffffffffffffffffffffff16815260200190815260200160002060000160009054906101000a900473ffffffffffffffffffffffffffffffffffffffff1673ffffffffffffffffffffffffffffffffffffffff1614156135d5576040517f08c379a00000000000000000000000000000000000000000000000000000000081526004016135cc90614b05565b60405180910390fd5b60016000546135e49190614d2a565b600081905550821561361a578760096000805481526020019081526020016000209080519060200190613618929190613aea565b505b600560405180610120016040528060005481526020018981526020018881526020016000815260200187815260200186815260200185151581526020018473ffffffffffffffffffffffffffffffffffffffff16815260200183151581525090806001815401808255809150506001900390600052602060002090600702016000909190919091506000820151816000015560208201518160010190805190602001906136c8929190613a64565b50604082015181600201556060820151816003015560808201518160040190805190602001906136f9929190613a64565b5060a0820151816005015560c08201518160060160006101000a81548160ff02191690831515021790555060e08201518160060160016101000a81548173ffffffffffffffffffffffffffffffffffffffff021916908373ffffffffffffffffffffffffffffffffffffffff1602179055506101008201518160060160156101000a81548160ff02191690831515021790555050505050505050505050565b6060600380548060200260200160405190810160405280929190818152602001828054801561381c57602002820191906000526020600020905b8160009054906101000a900473ffffffffffffffffffffffffffffffffffffffff1673ffffffffffffffffffffffffffffffffffffffff16815260200190600101908083116137d2575b5050505050905090565b60405180606001604052808473ffffffffffffffffffffffffffffffffffffffff16815260200183815260200182815250600760008573ffffffffffffffffffffffffffffffffffffffff1673ffffffffffffffffffffffffffffffffffffffff16815260200190815260200160002060008201518160000160006101000a81548173ffffffffffffffffffffffffffffffffffffffff021916908373ffffffffffffffffffffffffffffffffffffffff16021790555060208201518160010190805190602001906138f9929190613a64565b506040820151816002019080519060200190613916929190613a64565b509050506004839080600181540180825580915050600190039060005260206000200160009091909190916101000a81548173ffffffffffffffffffffffffffffffffffffffff021916908373ffffffffffffffffffffffffffffffffffffffff160217905550505050565b6000816040516020016139959190614760565b60405160208183030381529060405280519060200120836040516020016139bc9190614760565b6040516020818303038152906040528051906020012014905092915050565b6040518060a0016040528060008152602001600073ffffffffffffffffffffffffffffffffffffffff168152602001606081526020016000151581526020016000151581525090565b508054613a3090614ecf565b6000825580601f10613a425750613a61565b601f016020900490600052602060002090810190613a609190613b37565b5b50565b828054613a7090614ecf565b90600052602060002090601f016020900481019282613a925760008555613ad9565b82601f10613aab57805160ff1916838001178555613ad9565b82800160010185558215613ad9579182015b82811115613ad8578251825591602001919060010190613abd565b5b509050613ae69190613b37565b5090565b828054828255906000526020600020908101928215613b26579160200282015b82811115613b25578251825591602001919060010190613b0a565b5b509050613b339190613b54565b5090565b5b80821115613b50576000816000905550600101613b38565b5090565b5b80821115613b6d576000816000905550600101613b55565b5090565b6000613b84613b7f84614bb1565b614b8c565b90508083825260208201905082856020860282011115613ba357600080fd5b60005b85811015613bd35781613bb98882613c6f565b845260208401935060208301925050600181019050613ba6565b5050509392505050565b6000613bf0613beb84614bdd565b614b8c565b905082815260208101848484011115613c0857600080fd5b613c13848285614e44565b509392505050565b600081359050613c2a81615358565b92915050565b600082601f830112613c4157600080fd5b8135613c51848260208601613b71565b91505092915050565b600081359050613c698161536f565b92915050565b600081359050613c7e81615386565b92915050565b600082601f830112613c9557600080fd5b8135613ca5848260208601613bdd565b91505092915050565b600081359050613cbd8161539d565b92915050565b600060208284031215613cd557600080fd5b6000613ce384828501613c1b565b91505092915050565b600080600060608486031215613d0157600080fd5b6000613d0f86828701613c1b565b9350506020613d2086828701613c6f565b925050604084013567ffffffffffffffff811115613d3d57600080fd5b613d4986828701613c84565b9150509250925092565b60008060408385031215613d6657600080fd5b6000613d7485828601613c1b565b925050602083013567ffffffffffffffff811115613d9157600080fd5b613d9d85828601613c84565b9150509250929050565b600080600060608486031215613dbc57600080fd5b6000613dca86828701613c1b565b935050602084013567ffffffffffffffff811115613de757600080fd5b613df386828701613c84565b925050604084013567ffffffffffffffff811115613e1057600080fd5b613e1c86828701613c84565b9150509250925092565b60008060008060008060c08789031215613e3f57600080fd5b6000613e4d89828a01613c1b565b965050602087013567ffffffffffffffff811115613e6a57600080fd5b613e7689828a01613c84565b955050604087013567ffffffffffffffff811115613e9357600080fd5b613e9f89828a01613c84565b945050606087013567ffffffffffffffff811115613ebc57600080fd5b613ec889828a01613c84565b935050608087013567ffffffffffffffff811115613ee557600080fd5b613ef189828a01613c84565b92505060a0613f0289828a01613c6f565b9150509295509295509295565b60008060408385031215613f2257600080fd5b6000613f3085828601613c1b565b9250506020613f4185828601613cae565b9150509250929050565b600080600080600080600080610100898b031215613f6857600080fd5b600089013567ffffffffffffffff811115613f8257600080fd5b613f8e8b828c01613c30565b985050602089013567ffffffffffffffff811115613fab57600080fd5b613fb78b828c01613c84565b9750506040613fc88b828c01613c6f565b965050606089013567ffffffffffffffff811115613fe557600080fd5b613ff18b828c01613c84565b95505060806140028b828c01613c6f565b94505060a06140138b828c01613c5a565b93505060c06140248b828c01613c1b565b92505060e06140358b828c01613c5a565b9150509295985092959890939650565b60006020828403121561405757600080fd5b600061406584828501613c6f565b91505092915050565b6000806040838503121561408157600080fd5b600061408f85828601613c6f565b92505060206140a085828601613cae565b9150509250929050565b6000602082840312156140bc57600080fd5b600082013567ffffffffffffffff8111156140d657600080fd5b6140e284828501613c84565b91505092915050565b60006140f7838361413f565b60208301905092915050565b600061410f838361459d565b905092915050565b60006141238383614669565b905092915050565b600061413783836146df565b905092915050565b61414881614df2565b82525050565b61415781614df2565b82525050565b600061416882614c4e565b6141728185614cb9565b935061417d83614c0e565b8060005b838110156141ae57815161419588826140eb565b97506141a083614c85565b925050600181019050614181565b5085935050505092915050565b60006141c682614c59565b6141d08185614cca565b9350836020820285016141e285614c1e565b8060005b8581101561421e57848403895281516141ff8582614103565b945061420a83614c92565b925060208a019950506001810190506141e6565b50829750879550505050505092915050565b600061423b82614c64565b6142458185614cdb565b93508360208202850161425785614c2e565b8060005b8581101561429357848403895281516142748582614117565b945061427f83614c9f565b925060208a0199505060018101905061425b565b50829750879550505050505092915050565b60006142b082614c6f565b6142ba8185614cec565b9350836020820285016142cc85614c3e565b8060005b8581101561430857848403895281516142e9858261412b565b94506142f483614cac565b925060208a019950506001810190506142d0565b50829750879550505050505092915050565b61432381614e04565b82525050565b61433281614e04565b82525050565b61434181614e10565b82525050565b61435081614e10565b82525050565b600061436182614c7a565b61436b8185614cfd565b935061437b818560208601614e53565b61438481615051565b840191505092915050565b600061439a82614c7a565b6143a48185614d0e565b93506143b4818560208601614e53565b6143bd81615051565b840191505092915050565b60006143d382614c7a565b6143dd8185614d1f565b93506143ed818560208601614e53565b80840191505092915050565b6000614406602183614d0e565b915061441182615062565b604082019050919050565b6000614429602783614d0e565b9150614434826150b1565b604082019050919050565b600061444c602c83614d0e565b915061445782615100565b604082019050919050565b600061446f602483614d0e565b915061447a8261514f565b604082019050919050565b6000614492601383614d0e565b915061449d8261519e565b602082019050919050565b60006144b5603283614d0e565b91506144c0826151c7565b604082019050919050565b60006144d8601b83614d0e565b91506144e382615216565b602082019050919050565b60006144fb601b83614d0e565b91506145068261523f565b602082019050919050565b600061451e602783614d0e565b915061452982615268565b604082019050919050565b6000614541602883614d0e565b915061454c826152b7565b604082019050919050565b6000614564601c83614d0e565b915061456f82615306565b602082019050919050565b6000614587601d83614d0e565b91506145928261532f565b602082019050919050565b6000610120830160008301516145b66000860182614338565b50602083015184820360208601526145ce8282614356565b91505060408301516145e36040860182614338565b5060608301516145f66060860182614338565b506080830151848203608086015261460e8282614356565b91505060a083015161462360a0860182614338565b5060c083015161463660c086018261431a565b5060e083015161464960e086018261413f565b5061010083015161465e61010086018261431a565b508091505092915050565b600060a0830160008301516146816000860182614338565b506020830151614694602086018261413f565b50604083015184820360408601526146ac8282614356565b91505060608301516146c1606086018261431a565b5060808301516146d4608086018261431a565b508091505092915050565b60006080830160008301516146f76000860182614742565b506020830151848203602086015261470f8282614356565b9150506040830151614724604086018261413f565b506060830151614737606086018261431a565b508091505092915050565b61474b81614e3a565b82525050565b61475a81614e3a565b82525050565b600061476c82846143c8565b915081905092915050565b600060608201905061478c600083018661414e565b818103602083015261479e818561438f565b905081810360408301526147b2818461438f565b9050949350505050565b600060c0820190506147d1600083018961414e565b81810360208301526147e3818861438f565b905081810360408301526147f7818761438f565b9050818103606083015261480b818661438f565b9050818103608083015261481f818561438f565b905061482e60a0830184614347565b979650505050505050565b60006020820190508181036000830152614853818461415d565b905092915050565b6000602082019050818103600083015261487581846141bb565b905092915050565b600060208201905081810360008301526148978184614230565b905092915050565b600060208201905081810360008301526148b981846142a5565b905092915050565b60006020820190506148d66000830184614347565b92915050565b600060a0820190506148f16000830188614347565b6148fe602083018761414e565b8181036040830152614910818661438f565b905061491f6060830185614329565b61492c6080830184614329565b9695505050505050565b600060a0820190508181036000830152614950818861438f565b90508181036020830152614964818761438f565b90508181036040830152614978818661438f565b9050818103606083015261498c818561438f565b905061499b6080830184614347565b9695505050505050565b600060208201905081810360008301526149be816143f9565b9050919050565b600060208201905081810360008301526149de8161441c565b9050919050565b600060208201905081810360008301526149fe8161443f565b9050919050565b60006020820190508181036000830152614a1e81614462565b9050919050565b60006020820190508181036000830152614a3e81614485565b9050919050565b60006020820190508181036000830152614a5e816144a8565b9050919050565b60006020820190508181036000830152614a7e816144cb565b9050919050565b60006020820190508181036000830152614a9e816144ee565b9050919050565b60006020820190508181036000830152614abe81614511565b9050919050565b60006020820190508181036000830152614ade81614534565b9050919050565b60006020820190508181036000830152614afe81614557565b9050919050565b60006020820190508181036000830152614b1e8161457a565b9050919050565b6000602082019050614b3a6000830184614751565b92915050565b6000608082019050614b556000830187614751565b8181036020830152614b67818661438f565b9050614b76604083018561414e565b614b836060830184614329565b95945050505050565b6000614b96614ba7565b9050614ba28282614f01565b919050565b6000604051905090565b600067ffffffffffffffff821115614bcc57614bcb615022565b5b602082029050602081019050919050565b600067ffffffffffffffff821115614bf857614bf7615022565b5b614c0182615051565b9050602081019050919050565b6000819050602082019050919050565b6000819050602082019050919050565b6000819050602082019050919050565b6000819050602082019050919050565b600081519050919050565b600081519050919050565b600081519050919050565b600081519050919050565b600081519050919050565b6000602082019050919050565b6000602082019050919050565b6000602082019050919050565b6000602082019050919050565b600082825260208201905092915050565b600082825260208201905092915050565b600082825260208201905092915050565b600082825260208201905092915050565b600082825260208201905092915050565b600082825260208201905092915050565b600081905092915050565b6000614d3582614e10565b9150614d4083614e10565b9250817f7fffffffffffffffffffffffffffffffffffffffffffffffffffffffffffffff03831360008312151615614d7b57614d7a614fc4565b5b817f8000000000000000000000000000000000000000000000000000000000000000038312600083121615614db357614db2614fc4565b5b828201905092915050565b6000614dc982614e3a565b9150614dd483614e3a565b925082821015614de757614de6614fc4565b5b828203905092915050565b6000614dfd82614e1a565b9050919050565b60008115159050919050565b6000819050919050565b600073ffffffffffffffffffffffffffffffffffffffff82169050919050565b6000819050919050565b82818337600083830152505050565b60005b83811015614e71578082015181840152602081019050614e56565b83811115614e80576000848401525b50505050565b6000614e9182614e10565b91507f8000000000000000000000000000000000000000000000000000000000000000821415614ec457614ec3614fc4565b5b600182039050919050565b60006002820490506001821680614ee757607f821691505b60208210811415614efb57614efa614ff3565b5b50919050565b614f0a82615051565b810181811067ffffffffffffffff82111715614f2957614f28615022565b5b80604052505050565b6000614f3d82614e10565b91507f7fffffffffffffffffffffffffffffffffffffffffffffffffffffffffffffff821415614f7057614f6f614fc4565b5b600182019050919050565b6000614f8682614e3a565b91507fffffffffffffffffffffffffffffffffffffffffffffffffffffffffffffffff821415614fb957614fb8614fc4565b5b600182019050919050565b7f4e487b7100000000000000000000000000000000000000000000000000000000600052601160045260246000fd5b7f4e487b7100000000000000000000000000000000000000000000000000000000600052602260045260246000fd5b7f4e487b7100000000000000000000000000000000000000000000000000000000600052604160045260246000fd5b6000601f19601f8301169050919050565b7f56616c756520646f6573206e6f74206d617463682053656d657374657246656560008201527f2100000000000000000000000000000000000000000000000000000000000000602082015250565b7f436f7572736520616c726561647920706173736564206f722074616b6573207060008201527f61727420696e2100000000000000000000000000000000000000000000000000602082015250565b7f526571756972656420436f75727365206e6f7420706173736564206f7220746160008201527f6b656e205061727420696e210000000000000000000000000000000000000000602082015250565b7f53747564656e7420686173206e6f74207468652072657175697265642064656760008201527f7265652100000000000000000000000000000000000000000000000000000000602082015250565b7f436f7572736520616c72656164792066756c6c00000000000000000000000000600082015250565b7f436f7572736520616c7265616479207061737365642c20556e7375627363726960008201527f7074696f6e206e6f7420706f737369626c650000000000000000000000000000602082015250565b7f4f6e6c792053747564656e742063616e2063616c6c2074686973210000000000600082015250565b7f53656d65737465722046656520616c7265616479207061796564210000000000600082015250565b7f53747564656e7420646f6573206e6f742068617665207265717569726564206360008201527f6f75727365732100000000000000000000000000000000000000000000000000602082015250565b7f53747564656e74206973206e6f7420696e20746865207265717569726564207360008201527f656d657374657221000000000000000000000000000000000000000000000000602082015250565b7f436f75727365206973206e6f742079657420617661696c61626c652100000000600082015250565b7f4f6e6c792050726f666573736f722063616e2063616c6c207468697321000000600082015250565b61536181614df2565b811461536c57600080fd5b50565b61537881614e04565b811461538357600080fd5b50565b61538f81614e10565b811461539a57600080fd5b50565b6153a681614e3a565b81146153b157600080fd5b5056fea264697066735822122073c2116cf32a7fd5b3a9d1621281ffb927bf2ddf508e44c472a3254bc41a37b364736f6c63430008040033608060405266b1a2bc2ec500006006556040518060400160405280601581526020017f53656d657374657220526567697374726174696f6e00000000000000000000008152506040518060400160405280600281526020017f5352000000000000000000000000000000000000000000000000000000000000815250816000908051906020019062000093929190620000bd565b508060019080519060200190620000ac929190620000bd565b5050506002600881905550620001d2565b828054620000cb906200016d565b90600052602060002090601f016020900481019282620000ef57600085556200013b565b82601f106200010a57805160ff19168380011785556200013b565b828001600101855582156200013b579182015b828111156200013a5782518255916020019190600101906200011d565b5b5090506200014a91906200014e565b5090565b5b80821115620001695760008160009055506001016200014f565b5090565b600060028204905060018216806200018657607f821691505b602082108114156200019d576200019c620001a3565b5b50919050565b7f4e487b7100000000000000000000000000000000000000000000000000000000600052602260045260246000fd5b6127c680620001e26000396000f3fe6080604052600436106101145760003560e01c80636817c76c116100a0578063b88d4fde11610064578063b88d4fde146103c5578063c290d691146103ee578063c87b56dd1461040a578063d5abeb0114610447578063e985e9c51461047257610114565b80636817c76c146102cc57806370a08231146102f757806395d89b4114610334578063a22cb4651461035f578063ada7c4ed1461038857610114565b806318160ddd116100e757806318160ddd146101e757806323b872dd14610212578063346de50a1461023b57806342842e0e146102665780636352211e1461028f57610114565b806301ffc9a71461011957806306fdde0314610156578063081812fc14610181578063095ea7b3146101be575b600080fd5b34801561012557600080fd5b50610140600480360381019061013b9190611d37565b6104af565b60405161014d919061208e565b60405180910390f35b34801561016257600080fd5b5061016b610591565b60405161017891906120a9565b60405180910390f35b34801561018d57600080fd5b506101a860048036038101906101a39190611d89565b610623565b6040516101b59190612027565b60405180910390f35b3480156101ca57600080fd5b506101e560048036038101906101e09190611cfb565b610669565b005b3480156101f357600080fd5b506101fc610781565b604051610209919061222b565b60405180910390f35b34801561021e57600080fd5b5061023960048036038101906102349190611bf5565b610787565b005b34801561024757600080fd5b506102506107e7565b60405161025d919061208e565b60405180910390f35b34801561027257600080fd5b5061028d60048036038101906102889190611bf5565b6107fa565b005b34801561029b57600080fd5b506102b660048036038101906102b19190611d89565b61081a565b6040516102c39190612027565b60405180910390f35b3480156102d857600080fd5b506102e16108a1565b6040516102ee919061222b565b60405180910390f35b34801561030357600080fd5b5061031e60048036038101906103199190611b90565b6108a7565b60405161032b919061222b565b60405180910390f35b34801561034057600080fd5b5061034961095f565b60405161035691906120a9565b60405180910390f35b34801561036b57600080fd5b5061038660048036038101906103819190611cbf565b6109f1565b005b34801561039457600080fd5b506103af60048036038101906103aa9190611b90565b610a07565b6040516103bc919061222b565b60405180910390f35b3480156103d157600080fd5b506103ec60048036038101906103e79190611c44565b610a1f565b005b61040860048036038101906104039190611d89565b610a81565b005b34801561041657600080fd5b50610431600480360381019061042c9190611d89565b610aa2565b60405161043e91906120a9565b60405180910390f35b34801561045357600080fd5b5061045c610b0a565b604051610469919061222b565b60405180910390f35b34801561047e57600080fd5b5061049960048036038101906104949190611bb9565b610b10565b6040516104a6919061208e565b60405180910390f35b60007f80ac58cd000000000000000000000000000000000000000000000000000000007bffffffffffffffffffffffffffffffffffffffffffffffffffffffff1916827bffffffffffffffffffffffffffffffffffffffffffffffffffffffff1916148061057a57507f5b5e139f000000000000000000000000000000000000000000000000000000007bffffffffffffffffffffffffffffffffffffffffffffffffffffffff1916827bffffffffffffffffffffffffffffffffffffffffffffffffffffffff1916145b8061058a575061058982610ba4565b5b9050919050565b6060600080546105a090612395565b80601f01602080910402602001604051908101604052809291908181526020018280546105cc90612395565b80156106195780601f106105ee57610100808354040283529160200191610619565b820191906000526020600020905b8154815290600101906020018083116105fc57829003601f168201915b5050505050905090565b600061062e82610c0e565b6004600083815260200190815260200160002060009054906101000a900473ffffffffffffffffffffffffffffffffffffffff169050919050565b60006106748261081a565b90508073ffffffffffffffffffffffffffffffffffffffff168373ffffffffffffffffffffffffffffffffffffffff1614156106e5576040517f08c379a00000000000000000000000000000000000000000000000000000000081526004016106dc906121eb565b60405180910390fd5b8073ffffffffffffffffffffffffffffffffffffffff16610704610c59565b73ffffffffffffffffffffffffffffffffffffffff16148061073357506107328161072d610c59565b610b10565b5b610772576040517f08c379a00000000000000000000000000000000000000000000000000000000081526004016107699061220b565b60405180910390fd5b61077c8383610c61565b505050565b60075481565b610798610792610c59565b82610d1a565b6107d7576040517f08c379a00000000000000000000000000000000000000000000000000000000081526004016107ce906120cb565b60405180910390fd5b6107e2838383610daf565b505050565b600960009054906101000a900460ff1681565b61081583838360405180602001604052806000815250610a1f565b505050565b600080610826836110a9565b9050600073ffffffffffffffffffffffffffffffffffffffff168173ffffffffffffffffffffffffffffffffffffffff161415610898576040517f08c379a000000000000000000000000000000000000000000000000000000000815260040161088f906121cb565b60405180910390fd5b80915050919050565b60065481565b60008073ffffffffffffffffffffffffffffffffffffffff168273ffffffffffffffffffffffffffffffffffffffff161415610918576040517f08c379a000000000000000000000000000000000000000000000000000000000815260040161090f9061218b565b60405180910390fd5b600360008373ffffffffffffffffffffffffffffffffffffffff1673ffffffffffffffffffffffffffffffffffffffff168152602001908152602001600020549050919050565b60606001805461096e90612395565b80601f016020809104026020016040519081016040528092919081815260200182805461099a90612395565b80156109e75780601f106109bc576101008083540402835291602001916109e7565b820191906000526020600020905b8154815290600101906020018083116109ca57829003601f168201915b5050505050905090565b610a036109fc610c59565b83836110e6565b5050565b600a6020528060005260406000206000915090505481565b610a30610a2a610c59565b83610d1a565b610a6f576040517f08c379a0000000000000000000000000000000000000000000000000000000008152600401610a66906120cb565b60405180910390fd5b610a7b84848484611253565b50505050565b610a9f7341dbfed6894b72d5d2b55c2d9f6faf47462419ef826112af565b50565b6060610aad82610c0e565b6000610ab76112cd565b90506000815111610ad75760405180602001604052806000815250610b02565b80610ae1846112e4565b604051602001610af2929190612003565b6040516020818303038152906040525b915050919050565b60085481565b6000600560008473ffffffffffffffffffffffffffffffffffffffff1673ffffffffffffffffffffffffffffffffffffffff16815260200190815260200160002060008373ffffffffffffffffffffffffffffffffffffffff1673ffffffffffffffffffffffffffffffffffffffff16815260200190815260200160002060009054906101000a900460ff16905092915050565b60007f01ffc9a7000000000000000000000000000000000000000000000000000000007bffffffffffffffffffffffffffffffffffffffffffffffffffffffff1916827bffffffffffffffffffffffffffffffffffffffffffffffffffffffff1916149050919050565b610c1781611408565b610c56576040517f08c379a0000000000000000000000000000000000000000000000000000000008152600401610c4d906121cb565b60405180910390fd5b50565b600033905090565b816004600083815260200190815260200160002060006101000a81548173ffffffffffffffffffffffffffffffffffffffff021916908373ffffffffffffffffffffffffffffffffffffffff160217905550808273ffffffffffffffffffffffffffffffffffffffff16610cd48361081a565b73ffffffffffffffffffffffffffffffffffffffff167f8c5be1e5ebec7d5bd14f71427d1e84f3dd0314c0f7b2291e5b200ac8c7c3b92560405160405180910390a45050565b600080610d268361081a565b90508073ffffffffffffffffffffffffffffffffffffffff168473ffffffffffffffffffffffffffffffffffffffff161480610d685750610d678185610b10565b5b80610da657508373ffffffffffffffffffffffffffffffffffffffff16610d8e84610623565b73ffffffffffffffffffffffffffffffffffffffff16145b91505092915050565b8273ffffffffffffffffffffffffffffffffffffffff16610dcf8261081a565b73ffffffffffffffffffffffffffffffffffffffff1614610e25576040517f08c379a0000000000000000000000000000000000000000000000000000000008152600401610e1c9061210b565b60405180910390fd5b600073ffffffffffffffffffffffffffffffffffffffff168273ffffffffffffffffffffffffffffffffffffffff161415610e95576040517f08c379a0000000000000000000000000000000000000000000000000000000008152600401610e8c9061214b565b60405180910390fd5b610ea28383836001611449565b8273ffffffffffffffffffffffffffffffffffffffff16610ec28261081a565b73ffffffffffffffffffffffffffffffffffffffff1614610f18576040517f08c379a0000000000000000000000000000000000000000000000000000000008152600401610f0f9061210b565b60405180910390fd5b6004600082815260200190815260200160002060006101000a81549073ffffffffffffffffffffffffffffffffffffffff02191690556001600360008573ffffffffffffffffffffffffffffffffffffffff1673ffffffffffffffffffffffffffffffffffffffff168152602001908152602001600020600082825403925050819055506001600360008473ffffffffffffffffffffffffffffffffffffffff1673ffffffffffffffffffffffffffffffffffffffff16815260200190815260200160002060008282540192505081905550816002600083815260200190815260200160002060006101000a81548173ffffffffffffffffffffffffffffffffffffffff021916908373ffffffffffffffffffffffffffffffffffffffff160217905550808273ffffffffffffffffffffffffffffffffffffffff168473ffffffffffffffffffffffffffffffffffffffff167fddf252ad1be2c89b69c2b068fc378daa952ba7f163c4a11628f55a4df523b3ef60405160405180910390a46110a4838383600161144f565b505050565b60006002600083815260200190815260200160002060009054906101000a900473ffffffffffffffffffffffffffffffffffffffff169050919050565b8173ffffffffffffffffffffffffffffffffffffffff168373ffffffffffffffffffffffffffffffffffffffff161415611155576040517f08c379a000000000000000000000000000000000000000000000000000000000815260040161114c9061216b565b60405180910390fd5b80600560008573ffffffffffffffffffffffffffffffffffffffff1673ffffffffffffffffffffffffffffffffffffffff16815260200190815260200160002060008473ffffffffffffffffffffffffffffffffffffffff1673ffffffffffffffffffffffffffffffffffffffff16815260200190815260200160002060006101000a81548160ff0219169083151502179055508173ffffffffffffffffffffffffffffffffffffffff168373ffffffffffffffffffffffffffffffffffffffff167f17307eab39ab6107e8899845ad3d59bd9653f200f220920489ca2b5937696c3183604051611246919061208e565b60405180910390a3505050565b61125e848484610daf565b61126a84848484611455565b6112a9576040517f08c379a00000000000000000000000000000000000000000000000000000000081526004016112a0906120eb565b60405180910390fd5b50505050565b6112c98282604051806020016040528060008152506115ec565b5050565b606060405180602001604052806000815250905090565b6060600060016112f384611647565b01905060008167ffffffffffffffff811115611338577f4e487b7100000000000000000000000000000000000000000000000000000000600052604160045260246000fd5b6040519080825280601f01601f19166020018201604052801561136a5781602001600182028036833780820191505090505b509050600082602001820190505b6001156113fd578080600190039150507f3031323334353637383961626364656600000000000000000000000000000000600a86061a8153600a85816113e7577f4e487b7100000000000000000000000000000000000000000000000000000000600052601260045260246000fd5b04945060008514156113f8576113fd565b611378565b819350505050919050565b60008073ffffffffffffffffffffffffffffffffffffffff1661142a836110a9565b73ffffffffffffffffffffffffffffffffffffffff1614159050919050565b50505050565b50505050565b60006114768473ffffffffffffffffffffffffffffffffffffffff1661187e565b156115df578373ffffffffffffffffffffffffffffffffffffffff1663150b7a0261149f610c59565b8786866040518563ffffffff1660e01b81526004016114c19493929190612042565b602060405180830381600087803b1580156114db57600080fd5b505af192505050801561150c57506040513d601f19601f820116820180604052508101906115099190611d60565b60015b61158f573d806000811461153c576040519150601f19603f3d011682016040523d82523d6000602084013e611541565b606091505b50600081511415611587576040517f08c379a000000000000000000000000000000000000000000000000000000000815260040161157e906120eb565b60405180910390fd5b805181602001fd5b63150b7a0260e01b7bffffffffffffffffffffffffffffffffffffffffffffffffffffffff1916817bffffffffffffffffffffffffffffffffffffffffffffffffffffffff1916149150506115e4565b600190505b949350505050565b6115f683836118a1565b6116036000848484611455565b611642576040517f08c379a0000000000000000000000000000000000000000000000000000000008152600401611639906120eb565b60405180910390fd5b505050565b600080600090507a184f03e93ff9f4daa797ed6e38ed64bf6a1f01000000000000000083106116cb577a184f03e93ff9f4daa797ed6e38ed64bf6a1f01000000000000000083816116c1577f4e487b7100000000000000000000000000000000000000000000000000000000600052601260045260246000fd5b0492506040810190505b6d04ee2d6d415b85acef8100000000831061172e576d04ee2d6d415b85acef81000000008381611724577f4e487b7100000000000000000000000000000000000000000000000000000000600052601260045260246000fd5b0492506020810190505b662386f26fc10000831061178357662386f26fc100008381611779577f4e487b7100000000000000000000000000000000000000000000000000000000600052601260045260246000fd5b0492506010810190505b6305f5e10083106117d2576305f5e10083816117c8577f4e487b7100000000000000000000000000000000000000000000000000000000600052601260045260246000fd5b0492506008810190505b612710831061181d576127108381611813577f4e487b7100000000000000000000000000000000000000000000000000000000600052601260045260246000fd5b0492506004810190505b60648310611866576064838161185c577f4e487b7100000000000000000000000000000000000000000000000000000000600052601260045260246000fd5b0492506002810190505b600a8310611875576001810190505b80915050919050565b6000808273ffffffffffffffffffffffffffffffffffffffff163b119050919050565b600073ffffffffffffffffffffffffffffffffffffffff168273ffffffffffffffffffffffffffffffffffffffff161415611911576040517f08c379a0000000000000000000000000000000000000000000000000000000008152600401611908906121ab565b60405180910390fd5b61191a81611408565b1561195a576040517f08c379a00000000000000000000000000000000000000000000000000000000081526004016119519061212b565b60405180910390fd5b611968600083836001611449565b61197181611408565b156119b1576040517f08c379a00000000000000000000000000000000000000000000000000000000081526004016119a89061212b565b60405180910390fd5b6001600360008473ffffffffffffffffffffffffffffffffffffffff1673ffffffffffffffffffffffffffffffffffffffff16815260200190815260200160002060008282540192505081905550816002600083815260200190815260200160002060006101000a81548173ffffffffffffffffffffffffffffffffffffffff021916908373ffffffffffffffffffffffffffffffffffffffff160217905550808273ffffffffffffffffffffffffffffffffffffffff16600073ffffffffffffffffffffffffffffffffffffffff167fddf252ad1be2c89b69c2b068fc378daa952ba7f163c4a11628f55a4df523b3ef60405160405180910390a4611abb60008383600161144f565b5050565b6000611ad2611acd8461226b565b612246565b905082815260208101848484011115611aea57600080fd5b611af5848285612353565b509392505050565b600081359050611b0c81612734565b92915050565b600081359050611b218161274b565b92915050565b600081359050611b3681612762565b92915050565b600081519050611b4b81612762565b92915050565b600082601f830112611b6257600080fd5b8135611b72848260208601611abf565b91505092915050565b600081359050611b8a81612779565b92915050565b600060208284031215611ba257600080fd5b6000611bb084828501611afd565b91505092915050565b60008060408385031215611bcc57600080fd5b6000611bda85828601611afd565b9250506020611beb85828601611afd565b9150509250929050565b600080600060608486031215611c0a57600080fd5b6000611c1886828701611afd565b9350506020611c2986828701611afd565b9250506040611c3a86828701611b7b565b9150509250925092565b60008060008060808587031215611c5a57600080fd5b6000611c6887828801611afd565b9450506020611c7987828801611afd565b9350506040611c8a87828801611b7b565b925050606085013567ffffffffffffffff811115611ca757600080fd5b611cb387828801611b51565b91505092959194509250565b60008060408385031215611cd257600080fd5b6000611ce085828601611afd565b9250506020611cf185828601611b12565b9150509250929050565b60008060408385031215611d0e57600080fd5b6000611d1c85828601611afd565b9250506020611d2d85828601611b7b565b9150509250929050565b600060208284031215611d4957600080fd5b6000611d5784828501611b27565b91505092915050565b600060208284031215611d7257600080fd5b6000611d8084828501611b3c565b91505092915050565b600060208284031215611d9b57600080fd5b6000611da984828501611b7b565b91505092915050565b611dbb816122df565b82525050565b611dca816122f1565b82525050565b6000611ddb8261229c565b611de581856122b2565b9350611df5818560208601612362565b611dfe81612456565b840191505092915050565b6000611e14826122a7565b611e1e81856122c3565b9350611e2e818560208601612362565b611e3781612456565b840191505092915050565b6000611e4d826122a7565b611e5781856122d4565b9350611e67818560208601612362565b80840191505092915050565b6000611e80602d836122c3565b9150611e8b82612467565b604082019050919050565b6000611ea36032836122c3565b9150611eae826124b6565b604082019050919050565b6000611ec66025836122c3565b9150611ed182612505565b604082019050919050565b6000611ee9601c836122c3565b9150611ef482612554565b602082019050919050565b6000611f0c6024836122c3565b9150611f178261257d565b604082019050919050565b6000611f2f6019836122c3565b9150611f3a826125cc565b602082019050919050565b6000611f526029836122c3565b9150611f5d826125f5565b604082019050919050565b6000611f756020836122c3565b9150611f8082612644565b602082019050919050565b6000611f986018836122c3565b9150611fa38261266d565b602082019050919050565b6000611fbb6021836122c3565b9150611fc682612696565b604082019050919050565b6000611fde603d836122c3565b9150611fe9826126e5565b604082019050919050565b611ffd81612349565b82525050565b600061200f8285611e42565b915061201b8284611e42565b91508190509392505050565b600060208201905061203c6000830184611db2565b92915050565b60006080820190506120576000830187611db2565b6120646020830186611db2565b6120716040830185611ff4565b81810360608301526120838184611dd0565b905095945050505050565b60006020820190506120a36000830184611dc1565b92915050565b600060208201905081810360008301526120c38184611e09565b905092915050565b600060208201905081810360008301526120e481611e73565b9050919050565b6000602082019050818103600083015261210481611e96565b9050919050565b6000602082019050818103600083015261212481611eb9565b9050919050565b6000602082019050818103600083015261214481611edc565b9050919050565b6000602082019050818103600083015261216481611eff565b9050919050565b6000602082019050818103600083015261218481611f22565b9050919050565b600060208201905081810360008301526121a481611f45565b9050919050565b600060208201905081810360008301526121c481611f68565b9050919050565b600060208201905081810360008301526121e481611f8b565b9050919050565b6000602082019050818103600083015261220481611fae565b9050919050565b6000602082019050818103600083015261222481611fd1565b9050919050565b60006020820190506122406000830184611ff4565b92915050565b6000612250612261565b905061225c82826123c7565b919050565b6000604051905090565b600067ffffffffffffffff82111561228657612285612427565b5b61228f82612456565b9050602081019050919050565b600081519050919050565b600081519050919050565b600082825260208201905092915050565b600082825260208201905092915050565b600081905092915050565b60006122ea82612329565b9050919050565b60008115159050919050565b60007fffffffff0000000000000000000000000000000000000000000000000000000082169050919050565b600073ffffffffffffffffffffffffffffffffffffffff82169050919050565b6000819050919050565b82818337600083830152505050565b60005b83811015612380578082015181840152602081019050612365565b8381111561238f576000848401525b50505050565b600060028204905060018216806123ad57607f821691505b602082108114156123c1576123c06123f8565b5b50919050565b6123d082612456565b810181811067ffffffffffffffff821117156123ef576123ee612427565b5b80604052505050565b7f4e487b7100000000000000000000000000000000000000000000000000000000600052602260045260246000fd5b7f4e487b7100000000000000000000000000000000000000000000000000000000600052604160045260246000fd5b6000601f19601f8301169050919050565b7f4552433732313a2063616c6c6572206973206e6f7420746f6b656e206f776e6560008201527f72206f7220617070726f76656400000000000000000000000000000000000000602082015250565b7f4552433732313a207472616e7366657220746f206e6f6e20455243373231526560008201527f63656976657220696d706c656d656e7465720000000000000000000000000000602082015250565b7f4552433732313a207472616e736665722066726f6d20696e636f72726563742060008201527f6f776e6572000000000000000000000000000000000000000000000000000000602082015250565b7f4552433732313a20746f6b656e20616c7265616479206d696e74656400000000600082015250565b7f4552433732313a207472616e7366657220746f20746865207a65726f2061646460008201527f7265737300000000000000000000000000000000000000000000000000000000602082015250565b7f4552433732313a20617070726f766520746f2063616c6c657200000000000000600082015250565b7f4552433732313a2061646472657373207a65726f206973206e6f74206120766160008201527f6c6964206f776e65720000000000000000000000000000000000000000000000602082015250565b7f4552433732313a206d696e7420746f20746865207a65726f2061646472657373600082015250565b7f4552433732313a20696e76616c696420746f6b656e2049440000000000000000600082015250565b7f4552433732313a20617070726f76616c20746f2063757272656e74206f776e6560008201527f7200000000000000000000000000000000000000000000000000000000000000602082015250565b7f4552433732313a20617070726f76652063616c6c6572206973206e6f7420746f60008201527f6b656e206f776e6572206f7220617070726f76656420666f7220616c6c000000602082015250565b61273d816122df565b811461274857600080fd5b50565b612754816122f1565b811461275f57600080fd5b50565b61276b816122fd565b811461277657600080fd5b50565b61278281612349565b811461278d57600080fd5b5056fea2646970667358221220de3c34fec741c823761b60da691f5e639ad1bcfc55c9c14400d36e9a9d6b571964736f6c63430008040033",
  "linkReferences": {},
  "deployedLinkReferences": {}
}