{
  "_format": "hh-sol-artifact-1",
  "contractName": "Studentmngmt",
  "sourceName": "solidity/contracts/Studentmngmt.sol",
  "abi": [
    {
      "inputs": [],
      "stateMutability": "nonpayable",
      "type": "constructor"
    },
    {
      "inputs": [
        {
          "internalType": "int256[]",
          "name": "_requiredCourses",
          "type": "int256[]"
        },
        {
          "internalType": "string",
          "name": "_name",
          "type": "string"
        },
        {
          "internalType": "int256",
          "name": "_memberLimit",
          "type": "int256"
        },
        {
          "internalType": "string",
          "name": "_degree",
          "type": "string"
        },
        {
          "internalType": "int256",
          "name": "_semester",
          "type": "int256"
        },
        {
          "internalType": "bool",
          "name": "_isCourseRequired",
          "type": "bool"
        },
        {
          "internalType": "address",
          "name": "_createdByProf",
          "type": "address"
        },
        {
          "internalType": "bool",
          "name": "_available",
          "type": "bool"
        }
      ],
      "name": "addNewCourse",
      "outputs": [],
      "stateMutability": "nonpayable",
      "type": "function"
    },
    {
      "inputs": [
        {
          "internalType": "address",
          "name": "_profAddress",
          "type": "address"
        },
        {
          "internalType": "string",
          "name": "_fName",
          "type": "string"
        },
        {
          "internalType": "string",
          "name": "_lName",
          "type": "string"
        }
      ],
      "name": "addNewProfessor",
      "outputs": [],
      "stateMutability": "nonpayable",
      "type": "function"
    },
    {
      "inputs": [
        {
          "internalType": "address",
          "name": "_studentAddress",
          "type": "address"
        },
        {
          "internalType": "string",
          "name": "_fName",
          "type": "string"
        },
        {
          "internalType": "string",
          "name": "_lName",
          "type": "string"
        },
        {
          "internalType": "string",
          "name": "_regAddress",
          "type": "string"
        },
        {
          "internalType": "string",
          "name": "_degree",
          "type": "string"
        },
        {
          "internalType": "int256",
          "name": "_semester",
          "type": "int256"
        }
      ],
      "name": "addNewStudent",
      "outputs": [],
      "stateMutability": "nonpayable",
      "type": "function"
    },
    {
      "inputs": [
        {
          "internalType": "address",
          "name": "_studentAddress",
          "type": "address"
        },
        {
          "internalType": "string",
          "name": "_semester",
          "type": "string"
        }
      ],
      "name": "addSemesterToPay",
      "outputs": [],
      "stateMutability": "nonpayable",
      "type": "function"
    },
    {
      "inputs": [],
      "name": "courseCount",
      "outputs": [
        {
          "internalType": "int256",
          "name": "",
          "type": "int256"
        }
      ],
      "stateMutability": "view",
      "type": "function"
    },
    {
      "inputs": [
        {
          "internalType": "int256",
          "name": "",
          "type": "int256"
        }
      ],
      "name": "courses",
      "outputs": [
        {
          "internalType": "int256",
          "name": "ID",
          "type": "int256"
        },
        {
          "internalType": "string",
          "name": "name",
          "type": "string"
        },
        {
          "internalType": "int256",
          "name": "memberLimit",
          "type": "int256"
        },
        {
          "internalType": "int256",
          "name": "memberCount",
          "type": "int256"
        },
        {
          "internalType": "string",
          "name": "degree",
          "type": "string"
        },
        {
          "internalType": "int256",
          "name": "semester",
          "type": "int256"
        },
        {
          "internalType": "bool",
          "name": "isCourseRequired",
          "type": "bool"
        },
        {
          "internalType": "address",
          "name": "createdByProf",
          "type": "address"
        },
        {
          "internalType": "bool",
          "name": "available",
          "type": "bool"
        }
      ],
      "stateMutability": "view",
      "type": "function"
    },
    {
      "inputs": [
        {
          "internalType": "address",
          "name": "",
          "type": "address"
        },
        {
          "internalType": "uint256",
          "name": "",
          "type": "uint256"
        }
      ],
      "name": "eCourses",
      "outputs": [
        {
          "internalType": "int256",
          "name": "ID",
          "type": "int256"
        },
        {
          "internalType": "address",
          "name": "student",
          "type": "address"
        },
        {
          "internalType": "string",
          "name": "mark",
          "type": "string"
        },
        {
          "internalType": "bool",
          "name": "takesPart",
          "type": "bool"
        },
        {
          "internalType": "bool",
          "name": "passed",
          "type": "bool"
        }
      ],
      "stateMutability": "view",
      "type": "function"
    },
    {
      "inputs": [
        {
          "internalType": "address",
          "name": "_studentAddress",
          "type": "address"
        },
        {
          "internalType": "int256",
          "name": "_courseID",
          "type": "int256"
        }
      ],
      "name": "enrollInCourse",
      "outputs": [],
      "stateMutability": "nonpayable",
      "type": "function"
    },
    {
      "inputs": [],
      "name": "getAllCourses",
      "outputs": [
        {
          "components": [
            {
              "internalType": "int256",
              "name": "ID",
              "type": "int256"
            },
            {
              "internalType": "string",
              "name": "name",
              "type": "string"
            },
            {
              "internalType": "int256",
              "name": "memberLimit",
              "type": "int256"
            },
            {
              "internalType": "int256",
              "name": "memberCount",
              "type": "int256"
            },
            {
              "internalType": "string",
              "name": "degree",
              "type": "string"
            },
            {
              "internalType": "int256",
              "name": "semester",
              "type": "int256"
            },
            {
              "internalType": "bool",
              "name": "isCourseRequired",
              "type": "bool"
            },
            {
              "internalType": "address",
              "name": "createdByProf",
              "type": "address"
            },
            {
              "internalType": "bool",
              "name": "available",
              "type": "bool"
            }
          ],
          "internalType": "struct Studentmngmt.Course[]",
          "name": "",
          "type": "tuple[]"
        }
      ],
      "stateMutability": "view",
      "type": "function"
    },
    {
      "inputs": [],
      "name": "getAllProfessorAddresses",
      "outputs": [
        {
          "internalType": "address[]",
          "name": "",
          "type": "address[]"
        }
      ],
      "stateMutability": "view",
      "type": "function"
    },
    {
      "inputs": [],
      "name": "getAllStudentAddresses",
      "outputs": [
        {
          "internalType": "address[]",
          "name": "",
          "type": "address[]"
        }
      ],
      "stateMutability": "view",
      "type": "function"
    },
    {
      "inputs": [
        {
          "internalType": "int256",
          "name": "_courseID",
          "type": "int256"
        }
      ],
      "name": "getCourse",
      "outputs": [
        {
          "components": [
            {
              "internalType": "int256",
              "name": "ID",
              "type": "int256"
            },
            {
              "internalType": "string",
              "name": "name",
              "type": "string"
            },
            {
              "internalType": "int256",
              "name": "memberLimit",
              "type": "int256"
            },
            {
              "internalType": "int256",
              "name": "memberCount",
              "type": "int256"
            },
            {
              "internalType": "string",
              "name": "degree",
              "type": "string"
            },
            {
              "internalType": "int256",
              "name": "semester",
              "type": "int256"
            },
            {
              "internalType": "bool",
              "name": "isCourseRequired",
              "type": "bool"
            },
            {
              "internalType": "address",
              "name": "createdByProf",
              "type": "address"
            },
            {
              "internalType": "bool",
              "name": "available",
              "type": "bool"
            }
          ],
          "internalType": "struct Studentmngmt.Course",
          "name": "",
          "type": "tuple"
        }
      ],
      "stateMutability": "view",
      "type": "function"
    },
    {
      "inputs": [
        {
          "internalType": "int256",
          "name": "_courseID",
          "type": "int256"
        }
      ],
      "name": "getCourseDetails",
      "outputs": [
        {
          "internalType": "int256",
          "name": "",
          "type": "int256"
        },
        {
          "internalType": "string",
          "name": "",
          "type": "string"
        },
        {
          "internalType": "int256",
          "name": "",
          "type": "int256"
        },
        {
          "internalType": "int256",
          "name": "",
          "type": "int256"
        },
        {
          "internalType": "string",
          "name": "",
          "type": "string"
        },
        {
          "internalType": "int256",
          "name": "",
          "type": "int256"
        },
        {
          "internalType": "bool",
          "name": "",
          "type": "bool"
        },
        {
          "internalType": "address",
          "name": "",
          "type": "address"
        },
        {
          "internalType": "bool",
          "name": "",
          "type": "bool"
        }
      ],
      "stateMutability": "view",
      "type": "function"
    },
    {
      "inputs": [
        {
          "internalType": "address",
          "name": "_studentAddress",
          "type": "address"
        }
      ],
      "name": "getEnrolledCourses",
      "outputs": [
        {
          "components": [
            {
              "internalType": "int256",
              "name": "ID",
              "type": "int256"
            },
            {
              "internalType": "address",
              "name": "student",
              "type": "address"
            },
            {
              "internalType": "string",
              "name": "mark",
              "type": "string"
            },
            {
              "internalType": "bool",
              "name": "takesPart",
              "type": "bool"
            },
            {
              "internalType": "bool",
              "name": "passed",
              "type": "bool"
            }
          ],
          "internalType": "struct Studentmngmt.EnrolledCourse[]",
          "name": "",
          "type": "tuple[]"
        }
      ],
      "stateMutability": "view",
      "type": "function"
    },
    {
      "inputs": [
        {
          "internalType": "address",
          "name": "_studentAddress",
          "type": "address"
        }
      ],
      "name": "getSemesterFees",
      "outputs": [
        {
          "components": [
            {
              "internalType": "uint256",
              "name": "tokenID",
              "type": "uint256"
            },
            {
              "internalType": "string",
              "name": "semester",
              "type": "string"
            },
            {
              "internalType": "address",
              "name": "student",
              "type": "address"
            },
            {
              "internalType": "bool",
              "name": "isPayed",
              "type": "bool"
            }
          ],
          "internalType": "struct Studentmngmt.SemesterRegistration[]",
          "name": "",
          "type": "tuple[]"
        }
      ],
      "stateMutability": "view",
      "type": "function"
    },
    {
      "inputs": [
        {
          "internalType": "address",
          "name": "_studentAddress",
          "type": "address"
        }
      ],
      "name": "getStudentDetails",
      "outputs": [
        {
          "internalType": "address",
          "name": "",
          "type": "address"
        },
        {
          "internalType": "string",
          "name": "",
          "type": "string"
        },
        {
          "internalType": "string",
          "name": "",
          "type": "string"
        },
        {
          "internalType": "string",
          "name": "",
          "type": "string"
        },
        {
          "internalType": "string",
          "name": "",
          "type": "string"
        },
        {
          "internalType": "int256",
          "name": "",
          "type": "int256"
        }
      ],
      "stateMutability": "view",
      "type": "function"
    },
    {
      "inputs": [
        {
          "internalType": "address",
          "name": "_studentAddress",
          "type": "address"
        },
        {
          "internalType": "string",
          "name": "_semester",
          "type": "string"
        }
      ],
      "name": "paySemester",
      "outputs": [],
      "stateMutability": "payable",
      "type": "function"
    },
    {
      "inputs": [
        {
          "internalType": "address",
          "name": "",
          "type": "address"
        }
      ],
      "name": "profs",
      "outputs": [
        {
          "internalType": "address",
          "name": "profAddress",
          "type": "address"
        },
        {
          "internalType": "string",
          "name": "fName",
          "type": "string"
        },
        {
          "internalType": "string",
          "name": "lName",
          "type": "string"
        }
      ],
      "stateMutability": "view",
      "type": "function"
    },
    {
      "inputs": [
        {
          "internalType": "int256",
          "name": "",
          "type": "int256"
        },
        {
          "internalType": "uint256",
          "name": "",
          "type": "uint256"
        }
      ],
      "name": "requiredCourses",
      "outputs": [
        {
          "internalType": "int256",
          "name": "",
          "type": "int256"
        }
      ],
      "stateMutability": "view",
      "type": "function"
    },
    {
      "inputs": [
        {
          "internalType": "address",
          "name": "",
          "type": "address"
        },
        {
          "internalType": "uint256",
          "name": "",
          "type": "uint256"
        }
      ],
      "name": "semesterFees",
      "outputs": [
        {
          "internalType": "uint256",
          "name": "tokenID",
          "type": "uint256"
        },
        {
          "internalType": "string",
          "name": "semester",
          "type": "string"
        },
        {
          "internalType": "address",
          "name": "student",
          "type": "address"
        },
        {
          "internalType": "bool",
          "name": "isPayed",
          "type": "bool"
        }
      ],
      "stateMutability": "view",
      "type": "function"
    },
    {
      "inputs": [
        {
          "internalType": "address",
          "name": "",
          "type": "address"
        }
      ],
      "name": "students",
      "outputs": [
        {
          "internalType": "address",
          "name": "studentAddress",
          "type": "address"
        },
        {
          "internalType": "string",
          "name": "fName",
          "type": "string"
        },
        {
          "internalType": "string",
          "name": "lName",
          "type": "string"
        },
        {
          "internalType": "string",
          "name": "regAddress",
          "type": "string"
        },
        {
          "internalType": "string",
          "name": "degree",
          "type": "string"
        },
        {
          "internalType": "int256",
          "name": "semester",
          "type": "int256"
        }
      ],
      "stateMutability": "view",
      "type": "function"
    },
    {
      "inputs": [],
      "name": "tokenCount",
      "outputs": [
        {
          "internalType": "uint256",
          "name": "",
          "type": "uint256"
        }
      ],
      "stateMutability": "view",
      "type": "function"
    },
    {
      "inputs": [
        {
          "internalType": "address",
          "name": "_studentAddress",
          "type": "address"
        },
        {
          "internalType": "int256",
          "name": "_courseID",
          "type": "int256"
        }
      ],
      "name": "unsubscribeFromCourse",
      "outputs": [],
      "stateMutability": "nonpayable",
      "type": "function"
    },
    {
      "inputs": [
        {
          "internalType": "address",
          "name": "_studentAddress",
          "type": "address"
        },
        {
          "internalType": "string",
          "name": "_regAddress",
          "type": "string"
        }
      ],
      "name": "updateRegAddressStudent",
      "outputs": [],
      "stateMutability": "nonpayable",
      "type": "function"
    }
  ],
  "bytecode": "0x6080604052604051620000129062000084565b604051809103906000f0801580156200002f573d6000803e3d6000fd5b50600260006101000a81548173ffffffffffffffffffffffffffffffffffffffff021916908373ffffffffffffffffffffffffffffffffffffffff1602179055503480156200007d57600080fd5b5062000092565b612995806200544a83390190565b6153a880620000a26000396000f3fe60806040526004361061014b5760003560e01c8063770dbe16116100b6578063df8faad51161006f578063df8faad514610510578063e08a99cf14610539578063e70cc6eb14610562578063ee6fdb3f1461058d578063fb7f563a146105d2578063fc3beb1e146105fb5761014b565b8063770dbe16146103a25780639f181b5e146103e7578063a6c807a914610412578063c7ce2a4a14610454578063c839e9b514610491578063d0b371bd146104ce5761014b565b80633b31cf6d116101085780633b31cf6d146102905780633fc780a4146102b957806345667721146102e25780635345c91214610323578063660551591461034e57806366278e39146103795761014b565b806304e48bd114610150578063060c34881461017b5780630993031e146101bb57806313fdb0a8146101f857806314d000ec1461023757806319a3df8314610253575b600080fd5b34801561015c57600080fd5b50610165610624565b60405161017291906149b8565b60405180910390f35b34801561018757600080fd5b506101a2600480360381019061019d9190614021565b61085c565b6040516101b29493929190614c8b565b60405180910390f35b3480156101c757600080fd5b506101e260048036038101906101dd9190613e00565b61095e565b6040516101ef91906149da565b60405180910390f35b34801561020457600080fd5b5061021f600480360381019061021a9190613e00565b610b24565b60405161022e939291906148ab565b60405180910390f35b610251600480360381019061024c9190613e65565b610c7e565b005b34801561025f57600080fd5b5061027a60048036038101906102759190613e00565b6112df565b60405161028791906149fc565b60405180910390f35b34801561029c57600080fd5b506102b760048036038101906102b29190613f38565b61148a565b005b3480156102c557600080fd5b506102e060048036038101906102db9190613e29565b61163f565b005b3480156102ee57600080fd5b5061030960048036038101906103049190614021565b611aff565b60405161031a959493929190614a39565b60405180910390f35b34801561032f57600080fd5b50610338611c14565b6040516103459190614996565b60405180910390f35b34801561035a57600080fd5b50610363611ca2565b6040516103709190614a1e565b60405180910390f35b34801561038557600080fd5b506103a0600480360381019061039b9190613e65565b611ca8565b005b3480156103ae57600080fd5b506103c960048036038101906103c49190614157565b611de5565b6040516103de99989796959493929190614a93565b60405180910390f35b3480156103f357600080fd5b506103fc611f7d565b6040516104099190614c70565b60405180910390f35b34801561041e57600080fd5b5061043960048036038101906104349190613e00565b611f83565b60405161044b969594939291906148f0565b60405180910390f35b34801561046057600080fd5b5061047b60048036038101906104769190614180565b6121ff565b6040516104889190614a1e565b60405180910390f35b34801561049d57600080fd5b506104b860048036038101906104b39190614157565b612230565b6040516104c59190614c4e565b60405180910390f35b3480156104da57600080fd5b506104f560048036038101906104f09190613e00565b612436565b604051610507969594939291906148f0565b60405180910390f35b34801561051c57600080fd5b5061053760048036038101906105329190613e29565b612765565b005b34801561054557600080fd5b50610560600480360381019061055b919061405d565b6131cd565b005b34801561056e57600080fd5b506105776134ee565b6040516105849190614996565b60405180910390f35b34801561059957600080fd5b506105b460048036038101906105af9190614157565b61357c565b6040516105c999989796959493929190614a93565b60405180910390f35b3480156105de57600080fd5b506105f960048036038101906105f49190613eb9565b6137d0565b005b34801561060757600080fd5b50610622600480360381019061061d9190613e65565b61392c565b005b60606005805480602002602001604051908101604052809291908181526020016000905b828210156108535783829060005260206000209060070201604051806101200160405290816000820154815260200160018201805461068690614f9d565b80601f01602080910402602001604051908101604052809291908181526020018280546106b290614f9d565b80156106ff5780601f106106d4576101008083540402835291602001916106ff565b820191906000526020600020905b8154815290600101906020018083116106e257829003601f168201915b50505050508152602001600282015481526020016003820154815260200160048201805461072c90614f9d565b80601f016020809104026020016040519081016040528092919081815260200182805461075890614f9d565b80156107a55780601f1061077a576101008083540402835291602001916107a5565b820191906000526020600020905b81548152906001019060200180831161078857829003601f168201915b50505050508152602001600582015481526020016006820160009054906101000a900460ff161515151581526020016006820160019054906101000a900473ffffffffffffffffffffffffffffffffffffffff1673ffffffffffffffffffffffffffffffffffffffff1673ffffffffffffffffffffffffffffffffffffffff1681526020016006820160159054906101000a900460ff16151515158152505081526020019060010190610648565b50505050905090565b600b602052816000526040600020818154811061087857600080fd5b9060005260206000209060030201600091509150508060000154908060010180546108a290614f9d565b80601f01602080910402602001604051908101604052809291908181526020018280546108ce90614f9d565b801561091b5780601f106108f05761010080835404028352916020019161091b565b820191906000526020600020905b8154815290600101906020018083116108fe57829003601f168201915b5050505050908060020160009054906101000a900473ffffffffffffffffffffffffffffffffffffffff16908060020160149054906101000a900460ff16905084565b6060600960008373ffffffffffffffffffffffffffffffffffffffff1673ffffffffffffffffffffffffffffffffffffffff168152602001908152602001600020805480602002602001604051908101604052809291908181526020016000905b82821015610b1957838290600052602060002090600402016040518060a0016040529081600082015481526020016001820160009054906101000a900473ffffffffffffffffffffffffffffffffffffffff1673ffffffffffffffffffffffffffffffffffffffff1673ffffffffffffffffffffffffffffffffffffffff168152602001600282018054610a5290614f9d565b80601f0160208091040260200160405190810160405280929190818152602001828054610a7e90614f9d565b8015610acb5780601f10610aa057610100808354040283529160200191610acb565b820191906000526020600020905b815481529060010190602001808311610aae57829003601f168201915b505050505081526020016003820160009054906101000a900460ff161515151581526020016003820160019054906101000a900460ff161515151581525050815260200190600101906109bf565b505050509050919050565b60076020528060005260406000206000915090508060000160009054906101000a900473ffffffffffffffffffffffffffffffffffffffff1690806001018054610b6d90614f9d565b80601f0160208091040260200160405190810160405280929190818152602001828054610b9990614f9d565b8015610be65780601f10610bbb57610100808354040283529160200191610be6565b820191906000526020600020905b815481529060010190602001808311610bc957829003601f168201915b505050505090806002018054610bfb90614f9d565b80601f0160208091040260200160405190810160405280929190818152602001828054610c2790614f9d565b8015610c745780601f10610c4957610100808354040283529160200191610c74565b820191906000526020600020905b815481529060010190602001808311610c5757829003601f168201915b5050505050905083565b600073ffffffffffffffffffffffffffffffffffffffff16600660003373ffffffffffffffffffffffffffffffffffffffff1673ffffffffffffffffffffffffffffffffffffffff16815260200190815260200160002060000160009054906101000a900473ffffffffffffffffffffffffffffffffffffffff1673ffffffffffffffffffffffffffffffffffffffff161415610d50576040517f08c379a0000000000000000000000000000000000000000000000000000000008152600401610d4790614bae565b60405180910390fd5b66b1a2bc2ec500003414610d99576040517f08c379a0000000000000000000000000000000000000000000000000000000008152600401610d9090614b2e565b60405180910390fd5b60016000815480929190610dac90615000565b91905055506000600b60008473ffffffffffffffffffffffffffffffffffffffff1673ffffffffffffffffffffffffffffffffffffffff168152602001908152602001600020805480602002602001604051908101604052809291908181526020016000905b82821015610f51578382906000526020600020906003020160405180608001604052908160008201548152602001600182018054610e4f90614f9d565b80601f0160208091040260200160405190810160405280929190818152602001828054610e7b90614f9d565b8015610ec85780601f10610e9d57610100808354040283529160200191610ec8565b820191906000526020600020905b815481529060010190602001808311610eab57829003601f168201915b505050505081526020016002820160009054906101000a900473ffffffffffffffffffffffffffffffffffffffff1673ffffffffffffffffffffffffffffffffffffffff1673ffffffffffffffffffffffffffffffffffffffff1681526020016002820160149054906101000a900460ff16151515158152505081526020019060010190610e12565b50505050905060005b815181101561116757610fb1828281518110610f9f577f4e487b7100000000000000000000000000000000000000000000000000000000600052603260045260246000fd5b60200260200101516020015184613a59565b801561102c57508373ffffffffffffffffffffffffffffffffffffffff16828281518110611008577f4e487b7100000000000000000000000000000000000000000000000000000000600052603260045260246000fd5b60200260200101516040015173ffffffffffffffffffffffffffffffffffffffff16145b156111545781818151811061106a577f4e487b7100000000000000000000000000000000000000000000000000000000600052603260045260246000fd5b602002602001015160600151156110b6576040517f08c379a00000000000000000000000000000000000000000000000000000000081526004016110ad90614bce565b60405180910390fd5b60018282815181106110f1577f4e487b7100000000000000000000000000000000000000000000000000000000600052603260045260246000fd5b60200260200101516060019015159081151581525050600154828281518110611143577f4e487b7100000000000000000000000000000000000000000000000000000000600052603260045260246000fd5b602002602001015160000181815250505b808061115f90615000565b915050610f5a565b50600b60008473ffffffffffffffffffffffffffffffffffffffff1673ffffffffffffffffffffffffffffffffffffffff1681526020019081526020016000208054806111dd577f4e487b7100000000000000000000000000000000000000000000000000000000600052603160045260246000fd5b600190038181906000526020600020906003020160008082016000905560018201600061120a9190613ab2565b6002820160006101000a81549073ffffffffffffffffffffffffffffffffffffffff02191690556002820160146101000a81549060ff021916905550509055600260009054906101000a900473ffffffffffffffffffffffffffffffffffffffff1673ffffffffffffffffffffffffffffffffffffffff1663c4076876846001546040518363ffffffff1660e01b81526004016112a892919061496d565b600060405180830381600087803b1580156112c257600080fd5b505af11580156112d6573d6000803e3d6000fd5b50505050505050565b6060600b60008373ffffffffffffffffffffffffffffffffffffffff1673ffffffffffffffffffffffffffffffffffffffff168152602001908152602001600020805480602002602001604051908101604052809291908181526020016000905b8282101561147f57838290600052602060002090600302016040518060800160405290816000820154815260200160018201805461137d90614f9d565b80601f01602080910402602001604051908101604052809291908181526020018280546113a990614f9d565b80156113f65780601f106113cb576101008083540402835291602001916113f6565b820191906000526020600020905b8154815290600101906020018083116113d957829003601f168201915b505050505081526020016002820160009054906101000a900473ffffffffffffffffffffffffffffffffffffffff1673ffffffffffffffffffffffffffffffffffffffff1673ffffffffffffffffffffffffffffffffffffffff1681526020016002820160149054906101000a900460ff16151515158152505081526020019060010190611340565b505050509050919050565b6040518060c001604052808773ffffffffffffffffffffffffffffffffffffffff16815260200186815260200185815260200184815260200183815260200182815250600660008873ffffffffffffffffffffffffffffffffffffffff1673ffffffffffffffffffffffffffffffffffffffff16815260200190815260200160002060008201518160000160006101000a81548173ffffffffffffffffffffffffffffffffffffffff021916908373ffffffffffffffffffffffffffffffffffffffff160217905550602082015181600101908051906020019061156f929190613af2565b50604082015181600201908051906020019061158c929190613af2565b5060608201518160030190805190602001906115a9929190613af2565b5060808201518160040190805190602001906115c6929190613af2565b5060a082015181600501559050506003869080600181540180825580915050600190039060005260206000200160009091909190916101000a81548173ffffffffffffffffffffffffffffffffffffffff021916908373ffffffffffffffffffffffffffffffffffffffff160217905550505050505050565b600073ffffffffffffffffffffffffffffffffffffffff16600660003373ffffffffffffffffffffffffffffffffffffffff1673ffffffffffffffffffffffffffffffffffffffff16815260200190815260200160002060000160009054906101000a900473ffffffffffffffffffffffffffffffffffffffff1673ffffffffffffffffffffffffffffffffffffffff161415611711576040517f08c379a000000000000000000000000000000000000000000000000000000000815260040161170890614bae565b60405180910390fd5b6000600960008473ffffffffffffffffffffffffffffffffffffffff1673ffffffffffffffffffffffffffffffffffffffff168152602001908152602001600020805480602002602001604051908101604052809291908181526020016000905b828210156118cc57838290600052602060002090600402016040518060a0016040529081600082015481526020016001820160009054906101000a900473ffffffffffffffffffffffffffffffffffffffff1673ffffffffffffffffffffffffffffffffffffffff1673ffffffffffffffffffffffffffffffffffffffff16815260200160028201805461180590614f9d565b80601f016020809104026020016040519081016040528092919081815260200182805461183190614f9d565b801561187e5780601f106118535761010080835404028352916020019161187e565b820191906000526020600020905b81548152906001019060200180831161186157829003601f168201915b505050505081526020016003820160009054906101000a900460ff161515151581526020016003820160019054906101000a900460ff16151515158152505081526020019060010190611772565b50505050905060005b8151811015611a045782828281518110611918577f4e487b7100000000000000000000000000000000000000000000000000000000600052603260045260246000fd5b6020026020010151600001511480156119a057508373ffffffffffffffffffffffffffffffffffffffff1682828151811061197c577f4e487b7100000000000000000000000000000000000000000000000000000000600052603260045260246000fd5b60200260200101516020015173ffffffffffffffffffffffffffffffffffffffff16145b156119f1578181815181106119de577f4e487b7100000000000000000000000000000000000000000000000000000000600052603260045260246000fd5b602002602001016119ed613b78565b8152505b80806119fc90615000565b9150506118d5565b50600960008473ffffffffffffffffffffffffffffffffffffffff1673ffffffffffffffffffffffffffffffffffffffff168152602001908152602001600020805480611a7a577f4e487b7100000000000000000000000000000000000000000000000000000000600052603160045260246000fd5b60019003818190600052602060002090600402016000808201600090556001820160006101000a81549073ffffffffffffffffffffffffffffffffffffffff0219169055600282016000611ace9190613ab2565b6003820160006101000a81549060ff02191690556003820160016101000a81549060ff021916905550509055505050565b60096020528160005260406000208181548110611b1b57600080fd5b9060005260206000209060040201600091509150508060000154908060010160009054906101000a900473ffffffffffffffffffffffffffffffffffffffff1690806002018054611b6b90614f9d565b80601f0160208091040260200160405190810160405280929190818152602001828054611b9790614f9d565b8015611be45780601f10611bb957610100808354040283529160200191611be4565b820191906000526020600020905b815481529060010190602001808311611bc757829003601f168201915b5050505050908060030160009054906101000a900460ff16908060030160019054906101000a900460ff16905085565b60606004805480602002602001604051908101604052809291908181526020018280548015611c9857602002820191906000526020600020905b8160009054906101000a900473ffffffffffffffffffffffffffffffffffffffff1673ffffffffffffffffffffffffffffffffffffffff1681526020019060010190808311611c4e575b5050505050905090565b60005481565b60006040518060800160405280600081526020018381526020018473ffffffffffffffffffffffffffffffffffffffff168152602001600015158152509050600b60008473ffffffffffffffffffffffffffffffffffffffff1673ffffffffffffffffffffffffffffffffffffffff168152602001908152602001600020819080600181540180825580915050600190039060005260206000209060030201600090919091909150600082015181600001556020820151816001019080519060200190611d76929190613af2565b5060408201518160020160006101000a81548173ffffffffffffffffffffffffffffffffffffffff021916908373ffffffffffffffffffffffffffffffffffffffff16021790555060608201518160020160146101000a81548160ff0219169083151502179055505050505050565b6008602052806000526040600020600091509050806000015490806001018054611e0e90614f9d565b80601f0160208091040260200160405190810160405280929190818152602001828054611e3a90614f9d565b8015611e875780601f10611e5c57610100808354040283529160200191611e87565b820191906000526020600020905b815481529060010190602001808311611e6a57829003601f168201915b505050505090806002015490806003015490806004018054611ea890614f9d565b80601f0160208091040260200160405190810160405280929190818152602001828054611ed490614f9d565b8015611f215780601f10611ef657610100808354040283529160200191611f21565b820191906000526020600020905b815481529060010190602001808311611f0457829003601f168201915b5050505050908060050154908060060160009054906101000a900460ff16908060060160019054906101000a900473ffffffffffffffffffffffffffffffffffffffff16908060060160159054906101000a900460ff16905089565b60015481565b60066020528060005260406000206000915090508060000160009054906101000a900473ffffffffffffffffffffffffffffffffffffffff1690806001018054611fcc90614f9d565b80601f0160208091040260200160405190810160405280929190818152602001828054611ff890614f9d565b80156120455780601f1061201a57610100808354040283529160200191612045565b820191906000526020600020905b81548152906001019060200180831161202857829003601f168201915b50505050509080600201805461205a90614f9d565b80601f016020809104026020016040519081016040528092919081815260200182805461208690614f9d565b80156120d35780601f106120a8576101008083540402835291602001916120d3565b820191906000526020600020905b8154815290600101906020018083116120b657829003601f168201915b5050505050908060030180546120e890614f9d565b80601f016020809104026020016040519081016040528092919081815260200182805461211490614f9d565b80156121615780601f1061213657610100808354040283529160200191612161565b820191906000526020600020905b81548152906001019060200180831161214457829003601f168201915b50505050509080600401805461217690614f9d565b80601f01602080910402602001604051908101604052809291908181526020018280546121a290614f9d565b80156121ef5780601f106121c4576101008083540402835291602001916121ef565b820191906000526020600020905b8154815290600101906020018083116121d257829003601f168201915b5050505050908060050154905086565b600a602052816000526040600020818154811061221b57600080fd5b90600052602060002001600091509150505481565b612238613bc1565b60086000838152602001908152602001600020604051806101200160405290816000820154815260200160018201805461227190614f9d565b80601f016020809104026020016040519081016040528092919081815260200182805461229d90614f9d565b80156122ea5780601f106122bf576101008083540402835291602001916122ea565b820191906000526020600020905b8154815290600101906020018083116122cd57829003601f168201915b50505050508152602001600282015481526020016003820154815260200160048201805461231790614f9d565b80601f016020809104026020016040519081016040528092919081815260200182805461234390614f9d565b80156123905780601f1061236557610100808354040283529160200191612390565b820191906000526020600020905b81548152906001019060200180831161237357829003601f168201915b50505050508152602001600582015481526020016006820160009054906101000a900460ff161515151581526020016006820160019054906101000a900473ffffffffffffffffffffffffffffffffffffffff1673ffffffffffffffffffffffffffffffffffffffff1673ffffffffffffffffffffffffffffffffffffffff1681526020016006820160159054906101000a900460ff1615151515815250509050919050565b6000606080606080600080600660008973ffffffffffffffffffffffffffffffffffffffff1673ffffffffffffffffffffffffffffffffffffffff1681526020019081526020016000206040518060c00160405290816000820160009054906101000a900473ffffffffffffffffffffffffffffffffffffffff1673ffffffffffffffffffffffffffffffffffffffff1673ffffffffffffffffffffffffffffffffffffffff1681526020016001820180546124f190614f9d565b80601f016020809104026020016040519081016040528092919081815260200182805461251d90614f9d565b801561256a5780601f1061253f5761010080835404028352916020019161256a565b820191906000526020600020905b81548152906001019060200180831161254d57829003601f168201915b5050505050815260200160028201805461258390614f9d565b80601f01602080910402602001604051908101604052809291908181526020018280546125af90614f9d565b80156125fc5780601f106125d1576101008083540402835291602001916125fc565b820191906000526020600020905b8154815290600101906020018083116125df57829003601f168201915b5050505050815260200160038201805461261590614f9d565b80601f016020809104026020016040519081016040528092919081815260200182805461264190614f9d565b801561268e5780601f106126635761010080835404028352916020019161268e565b820191906000526020600020905b81548152906001019060200180831161267157829003601f168201915b505050505081526020016004820180546126a790614f9d565b80601f01602080910402602001604051908101604052809291908181526020018280546126d390614f9d565b80156127205780601f106126f557610100808354040283529160200191612720565b820191906000526020600020905b81548152906001019060200180831161270357829003601f168201915b5050505050815260200160058201548152505090508781602001518260400151836060015184608001518560a001519650965096509650965096505091939550919395565b600073ffffffffffffffffffffffffffffffffffffffff16600660003373ffffffffffffffffffffffffffffffffffffffff1673ffffffffffffffffffffffffffffffffffffffff16815260200190815260200160002060000160009054906101000a900473ffffffffffffffffffffffffffffffffffffffff1673ffffffffffffffffffffffffffffffffffffffff161415612837576040517f08c379a000000000000000000000000000000000000000000000000000000000815260040161282e90614bae565b60405180910390fd5b81816008600082815260200190815260200160002060060160159054906101000a900460ff1661289c576040517f08c379a000000000000000000000000000000000000000000000000000000000815260040161289390614c2e565b60405180910390fd5b60086000828152602001908152602001600020600301546008600083815260200190815260200160002060020154121561290b576040517f08c379a000000000000000000000000000000000000000000000000000000000815260040161290290614b8e565b60405180910390fd5b612a7d600660008473ffffffffffffffffffffffffffffffffffffffff1673ffffffffffffffffffffffffffffffffffffffff168152602001908152602001600020600401805461295b90614f9d565b80601f016020809104026020016040519081016040528092919081815260200182805461298790614f9d565b80156129d45780601f106129a9576101008083540402835291602001916129d4565b820191906000526020600020905b8154815290600101906020018083116129b757829003601f168201915b50505050506008600084815260200190815260200160002060040180546129fa90614f9d565b80601f0160208091040260200160405190810160405280929190818152602001828054612a2690614f9d565b8015612a735780601f10612a4857610100808354040283529160200191612a73565b820191906000526020600020905b815481529060010190602001808311612a5657829003601f168201915b5050505050613a59565b612abc576040517f08c379a0000000000000000000000000000000000000000000000000000000008152600401612ab390614b6e565b60405180910390fd5b6008600082815260200190815260200160002060050154600660008473ffffffffffffffffffffffffffffffffffffffff1673ffffffffffffffffffffffffffffffffffffffff1681526020019081526020016000206005015414612b56576040517f08c379a0000000000000000000000000000000000000000000000000000000008152600401612b4d90614c0e565b60405180910390fd5b6000600960008473ffffffffffffffffffffffffffffffffffffffff1673ffffffffffffffffffffffffffffffffffffffff168152602001908152602001600020805480602002602001604051908101604052809291908181526020016000905b82821015612d1157838290600052602060002090600402016040518060a0016040529081600082015481526020016001820160009054906101000a900473ffffffffffffffffffffffffffffffffffffffff1673ffffffffffffffffffffffffffffffffffffffff1673ffffffffffffffffffffffffffffffffffffffff168152602001600282018054612c4a90614f9d565b80601f0160208091040260200160405190810160405280929190818152602001828054612c7690614f9d565b8015612cc35780601f10612c9857610100808354040283529160200191612cc3565b820191906000526020600020905b815481529060010190602001808311612ca657829003601f168201915b505050505081526020016003820160009054906101000a900460ff161515151581526020016003820160019054906101000a900460ff16151515158152505081526020019060010190612bb7565b5050505090506008600083815260200190815260200160002060060160009054906101000a900460ff161561300857600081511415612d85576040517f08c379a0000000000000000000000000000000000000000000000000000000008152600401612d7c90614bee565b60405180910390fd5b6000600a6000848152602001908152602001600020805480602002602001604051908101604052809291908181526020018280548015612de457602002820191906000526020600020905b815481526020019060010190808311612dd0575b5050505050905060005b81518110156130055760005b8351811015612ff1578573ffffffffffffffffffffffffffffffffffffffff16848281518110612e53577f4e487b7100000000000000000000000000000000000000000000000000000000600052603260045260246000fd5b60200260200101516020015173ffffffffffffffffffffffffffffffffffffffff16148015612f055750828281518110612eb6577f4e487b7100000000000000000000000000000000000000000000000000000000600052603260045260246000fd5b6020026020010151848281518110612ef7577f4e487b7100000000000000000000000000000000000000000000000000000000600052603260045260246000fd5b602002602001015160000151145b15612fde57838181518110612f43577f4e487b7100000000000000000000000000000000000000000000000000000000600052603260045260246000fd5b6020026020010151606001511580612f9d5750838181518110612f8f577f4e487b7100000000000000000000000000000000000000000000000000000000600052603260045260246000fd5b602002602001015160800151155b15612fdd576040517f08c379a0000000000000000000000000000000000000000000000000000000008152600401612fd490614b4e565b60405180910390fd5b5b8080612fe990615000565b915050612dfa565b508080612ffd90615000565b915050612dee565b50505b600061301385612230565b9050600181606001516130269190614e75565b81606001818152505060006040518060a001604052808781526020018873ffffffffffffffffffffffffffffffffffffffff1681526020016040518060400160405280600381526020017f302e3000000000000000000000000000000000000000000000000000000000008152508152602001600115158152602001600015158152509050600960008873ffffffffffffffffffffffffffffffffffffffff1673ffffffffffffffffffffffffffffffffffffffff1681526020019081526020016000208190806001815401808255809150506001900390600052602060002090600402016000909190919091506000820151816000015560208201518160010160006101000a81548173ffffffffffffffffffffffffffffffffffffffff021916908373ffffffffffffffffffffffffffffffffffffffff1602179055506040820151816002019080519060200190613181929190613af2565b5060608201518160030160006101000a81548160ff02191690831515021790555060808201518160030160016101000a81548160ff021916908315150217905550505050505050505050565b60016000546131dc9190614e75565b60008190555060405180610120016040528060005481526020018881526020018781526020016000815260200186815260200185815260200184151581526020018373ffffffffffffffffffffffffffffffffffffffff1681526020018215158152506008600080548152602001908152602001600020600082015181600001556020820151816001019080519060200190613279929190613af2565b50604082015181600201556060820151816003015560808201518160040190805190602001906132aa929190613af2565b5060a0820151816005015560c08201518160060160006101000a81548160ff02191690831515021790555060e08201518160060160016101000a81548173ffffffffffffffffffffffffffffffffffffffff021916908373ffffffffffffffffffffffffffffffffffffffff1602179055506101008201518160060160156101000a81548160ff02191690831515021790555090505082156133705787600a600080548152602001908152602001600020908051906020019061336e929190613c27565b505b600560405180610120016040528060005481526020018981526020018881526020016000815260200187815260200186815260200185151581526020018473ffffffffffffffffffffffffffffffffffffffff168152602001831515815250908060018154018082558091505060019003906000526020600020906007020160009091909190915060008201518160000155602082015181600101908051906020019061341e929190613af2565b506040820151816002015560608201518160030155608082015181600401908051906020019061344f929190613af2565b5060a0820151816005015560c08201518160060160006101000a81548160ff02191690831515021790555060e08201518160060160016101000a81548173ffffffffffffffffffffffffffffffffffffffff021916908373ffffffffffffffffffffffffffffffffffffffff1602179055506101008201518160060160156101000a81548160ff02191690831515021790555050505050505050505050565b6060600380548060200260200160405190810160405280929190818152602001828054801561357257602002820191906000526020600020905b8160009054906101000a900473ffffffffffffffffffffffffffffffffffffffff1673ffffffffffffffffffffffffffffffffffffffff1681526020019060010190808311613528575b5050505050905090565b6000606060008060606000806000806000600860008c815260200190815260200160002060405180610120016040529081600082015481526020016001820180546135c690614f9d565b80601f01602080910402602001604051908101604052809291908181526020018280546135f290614f9d565b801561363f5780601f106136145761010080835404028352916020019161363f565b820191906000526020600020905b81548152906001019060200180831161362257829003601f168201915b50505050508152602001600282015481526020016003820154815260200160048201805461366c90614f9d565b80601f016020809104026020016040519081016040528092919081815260200182805461369890614f9d565b80156136e55780601f106136ba576101008083540402835291602001916136e5565b820191906000526020600020905b8154815290600101906020018083116136c857829003601f168201915b50505050508152602001600582015481526020016006820160009054906101000a900460ff161515151581526020016006820160019054906101000a900473ffffffffffffffffffffffffffffffffffffffff1673ffffffffffffffffffffffffffffffffffffffff1673ffffffffffffffffffffffffffffffffffffffff1681526020016006820160159054906101000a900460ff16151515158152505090508a81602001518260400151836060015184608001518560a001518660c001518760e00151886101000151995099509950995099509950995099509950509193959799909294969850565b60405180606001604052808473ffffffffffffffffffffffffffffffffffffffff16815260200183815260200182815250600760008573ffffffffffffffffffffffffffffffffffffffff1673ffffffffffffffffffffffffffffffffffffffff16815260200190815260200160002060008201518160000160006101000a81548173ffffffffffffffffffffffffffffffffffffffff021916908373ffffffffffffffffffffffffffffffffffffffff16021790555060208201518160010190805190602001906138a3929190613af2565b5060408201518160020190805190602001906138c0929190613af2565b509050506004839080600181540180825580915050600190039060005260206000200160009091909190916101000a81548173ffffffffffffffffffffffffffffffffffffffff021916908373ffffffffffffffffffffffffffffffffffffffff160217905550505050565b600073ffffffffffffffffffffffffffffffffffffffff16600660003373ffffffffffffffffffffffffffffffffffffffff1673ffffffffffffffffffffffffffffffffffffffff16815260200190815260200160002060000160009054906101000a900473ffffffffffffffffffffffffffffffffffffffff1673ffffffffffffffffffffffffffffffffffffffff1614156139fe576040517f08c379a00000000000000000000000000000000000000000000000000000000081526004016139f590614bae565b60405180910390fd5b80600660008473ffffffffffffffffffffffffffffffffffffffff1673ffffffffffffffffffffffffffffffffffffffff1681526020019081526020016000206003019080519060200190613a54929190613af2565b505050565b600081604051602001613a6c9190614894565b6040516020818303038152906040528051906020012083604051602001613a939190614894565b6040516020818303038152906040528051906020012014905092915050565b508054613abe90614f9d565b6000825580601f10613ad05750613aef565b601f016020900490600052602060002090810190613aee9190613c74565b5b50565b828054613afe90614f9d565b90600052602060002090601f016020900481019282613b205760008555613b67565b82601f10613b3957805160ff1916838001178555613b67565b82800160010185558215613b67579182015b82811115613b66578251825591602001919060010190613b4b565b5b509050613b749190613c74565b5090565b6040518060a0016040528060008152602001600073ffffffffffffffffffffffffffffffffffffffff168152602001606081526020016000151581526020016000151581525090565b604051806101200160405280600081526020016060815260200160008152602001600081526020016060815260200160008152602001600015158152602001600073ffffffffffffffffffffffffffffffffffffffff1681526020016000151581525090565b828054828255906000526020600020908101928215613c63579160200282015b82811115613c62578251825591602001919060010190613c47565b5b509050613c709190613c91565b5090565b5b80821115613c8d576000816000905550600101613c75565b5090565b5b80821115613caa576000816000905550600101613c92565b5090565b6000613cc1613cbc84614cfc565b614cd7565b90508083825260208201905082856020860282011115613ce057600080fd5b60005b85811015613d105781613cf68882613dac565b845260208401935060208301925050600181019050613ce3565b5050509392505050565b6000613d2d613d2884614d28565b614cd7565b905082815260208101848484011115613d4557600080fd5b613d50848285614f5b565b509392505050565b600081359050613d6781615316565b92915050565b600082601f830112613d7e57600080fd5b8135613d8e848260208601613cae565b91505092915050565b600081359050613da68161532d565b92915050565b600081359050613dbb81615344565b92915050565b600082601f830112613dd257600080fd5b8135613de2848260208601613d1a565b91505092915050565b600081359050613dfa8161535b565b92915050565b600060208284031215613e1257600080fd5b6000613e2084828501613d58565b91505092915050565b60008060408385031215613e3c57600080fd5b6000613e4a85828601613d58565b9250506020613e5b85828601613dac565b9150509250929050565b60008060408385031215613e7857600080fd5b6000613e8685828601613d58565b925050602083013567ffffffffffffffff811115613ea357600080fd5b613eaf85828601613dc1565b9150509250929050565b600080600060608486031215613ece57600080fd5b6000613edc86828701613d58565b935050602084013567ffffffffffffffff811115613ef957600080fd5b613f0586828701613dc1565b925050604084013567ffffffffffffffff811115613f2257600080fd5b613f2e86828701613dc1565b9150509250925092565b60008060008060008060c08789031215613f5157600080fd5b6000613f5f89828a01613d58565b965050602087013567ffffffffffffffff811115613f7c57600080fd5b613f8889828a01613dc1565b955050604087013567ffffffffffffffff811115613fa557600080fd5b613fb189828a01613dc1565b945050606087013567ffffffffffffffff811115613fce57600080fd5b613fda89828a01613dc1565b935050608087013567ffffffffffffffff811115613ff757600080fd5b61400389828a01613dc1565b92505060a061401489828a01613dac565b9150509295509295509295565b6000806040838503121561403457600080fd5b600061404285828601613d58565b925050602061405385828601613deb565b9150509250929050565b600080600080600080600080610100898b03121561407a57600080fd5b600089013567ffffffffffffffff81111561409457600080fd5b6140a08b828c01613d6d565b985050602089013567ffffffffffffffff8111156140bd57600080fd5b6140c98b828c01613dc1565b97505060406140da8b828c01613dac565b965050606089013567ffffffffffffffff8111156140f757600080fd5b6141038b828c01613dc1565b95505060806141148b828c01613dac565b94505060a06141258b828c01613d97565b93505060c06141368b828c01613d58565b92505060e06141478b828c01613d97565b9150509295985092959890939650565b60006020828403121561416957600080fd5b600061417784828501613dac565b91505092915050565b6000806040838503121561419357600080fd5b60006141a185828601613dac565b92505060206141b285828601613deb565b9150509250929050565b60006141c88383614210565b60208301905092915050565b60006141e08383614605565b905092915050565b60006141f4838361479d565b905092915050565b60006142088383614813565b905092915050565b61421981614f09565b82525050565b61422881614f09565b82525050565b600061423982614d99565b6142438185614e04565b935061424e83614d59565b8060005b8381101561427f57815161426688826141bc565b975061427183614dd0565b925050600181019050614252565b5085935050505092915050565b600061429782614da4565b6142a18185614e15565b9350836020820285016142b385614d69565b8060005b858110156142ef57848403895281516142d085826141d4565b94506142db83614ddd565b925060208a019950506001810190506142b7565b50829750879550505050505092915050565b600061430c82614daf565b6143168185614e26565b93508360208202850161432885614d79565b8060005b85811015614364578484038952815161434585826141e8565b945061435083614dea565b925060208a0199505060018101905061432c565b50829750879550505050505092915050565b600061438182614dba565b61438b8185614e37565b93508360208202850161439d85614d89565b8060005b858110156143d957848403895281516143ba85826141fc565b94506143c583614df7565b925060208a019950506001810190506143a1565b50829750879550505050505092915050565b6143f481614f1b565b82525050565b61440381614f1b565b82525050565b61441281614f27565b82525050565b61442181614f27565b82525050565b600061443282614dc5565b61443c8185614e48565b935061444c818560208601614f6a565b614455816150d6565b840191505092915050565b600061446b82614dc5565b6144758185614e59565b9350614485818560208601614f6a565b61448e816150d6565b840191505092915050565b60006144a482614dc5565b6144ae8185614e6a565b93506144be818560208601614f6a565b80840191505092915050565b60006144d7602183614e59565b91506144e2826150e7565b604082019050919050565b60006144fa602383614e59565b915061450582615136565b604082019050919050565b600061451d602483614e59565b915061452882615185565b604082019050919050565b6000614540601383614e59565b915061454b826151d4565b602082019050919050565b6000614563601b83614e59565b915061456e826151fd565b602082019050919050565b6000614586601b83614e59565b915061459182615226565b602082019050919050565b60006145a9602783614e59565b91506145b48261524f565b604082019050919050565b60006145cc602883614e59565b91506145d78261529e565b604082019050919050565b60006145ef601c83614e59565b91506145fa826152ed565b602082019050919050565b60006101208301600083015161461e6000860182614409565b50602083015184820360208601526146368282614427565b915050604083015161464b6040860182614409565b50606083015161465e6060860182614409565b50608083015184820360808601526146768282614427565b91505060a083015161468b60a0860182614409565b5060c083015161469e60c08601826143eb565b5060e08301516146b160e0860182614210565b506101008301516146c66101008601826143eb565b508091505092915050565b6000610120830160008301516146ea6000860182614409565b50602083015184820360208601526147028282614427565b91505060408301516147176040860182614409565b50606083015161472a6060860182614409565b50608083015184820360808601526147428282614427565b91505060a083015161475760a0860182614409565b5060c083015161476a60c08601826143eb565b5060e083015161477d60e0860182614210565b506101008301516147926101008601826143eb565b508091505092915050565b600060a0830160008301516147b56000860182614409565b5060208301516147c86020860182614210565b50604083015184820360408601526147e08282614427565b91505060608301516147f560608601826143eb565b50608083015161480860808601826143eb565b508091505092915050565b600060808301600083015161482b6000860182614876565b50602083015184820360208601526148438282614427565b91505060408301516148586040860182614210565b50606083015161486b60608601826143eb565b508091505092915050565b61487f81614f51565b82525050565b61488e81614f51565b82525050565b60006148a08284614499565b915081905092915050565b60006060820190506148c0600083018661421f565b81810360208301526148d28185614460565b905081810360408301526148e68184614460565b9050949350505050565b600060c082019050614905600083018961421f565b81810360208301526149178188614460565b9050818103604083015261492b8187614460565b9050818103606083015261493f8186614460565b905081810360808301526149538185614460565b905061496260a0830184614418565b979650505050505050565b6000604082019050614982600083018561421f565b61498f6020830184614885565b9392505050565b600060208201905081810360008301526149b0818461422e565b905092915050565b600060208201905081810360008301526149d2818461428c565b905092915050565b600060208201905081810360008301526149f48184614301565b905092915050565b60006020820190508181036000830152614a168184614376565b905092915050565b6000602082019050614a336000830184614418565b92915050565b600060a082019050614a4e6000830188614418565b614a5b602083018761421f565b8181036040830152614a6d8186614460565b9050614a7c60608301856143fa565b614a8960808301846143fa565b9695505050505050565b600061012082019050614aa9600083018c614418565b8181036020830152614abb818b614460565b9050614aca604083018a614418565b614ad76060830189614418565b8181036080830152614ae98188614460565b9050614af860a0830187614418565b614b0560c08301866143fa565b614b1260e083018561421f565b614b206101008301846143fa565b9a9950505050505050505050565b60006020820190508181036000830152614b47816144ca565b9050919050565b60006020820190508181036000830152614b67816144ed565b9050919050565b60006020820190508181036000830152614b8781614510565b9050919050565b60006020820190508181036000830152614ba781614533565b9050919050565b60006020820190508181036000830152614bc781614556565b9050919050565b60006020820190508181036000830152614be781614579565b9050919050565b60006020820190508181036000830152614c078161459c565b9050919050565b60006020820190508181036000830152614c27816145bf565b9050919050565b60006020820190508181036000830152614c47816145e2565b9050919050565b60006020820190508181036000830152614c6881846146d1565b905092915050565b6000602082019050614c856000830184614885565b92915050565b6000608082019050614ca06000830187614885565b8181036020830152614cb28186614460565b9050614cc1604083018561421f565b614cce60608301846143fa565b95945050505050565b6000614ce1614cf2565b9050614ced8282614fcf565b919050565b6000604051905090565b600067ffffffffffffffff821115614d1757614d166150a7565b5b602082029050602081019050919050565b600067ffffffffffffffff821115614d4357614d426150a7565b5b614d4c826150d6565b9050602081019050919050565b6000819050602082019050919050565b6000819050602082019050919050565b6000819050602082019050919050565b6000819050602082019050919050565b600081519050919050565b600081519050919050565b600081519050919050565b600081519050919050565b600081519050919050565b6000602082019050919050565b6000602082019050919050565b6000602082019050919050565b6000602082019050919050565b600082825260208201905092915050565b600082825260208201905092915050565b600082825260208201905092915050565b600082825260208201905092915050565b600082825260208201905092915050565b600082825260208201905092915050565b600081905092915050565b6000614e8082614f27565b9150614e8b83614f27565b9250817f7fffffffffffffffffffffffffffffffffffffffffffffffffffffffffffffff03831360008312151615614ec657614ec5615049565b5b817f8000000000000000000000000000000000000000000000000000000000000000038312600083121615614efe57614efd615049565b5b828201905092915050565b6000614f1482614f31565b9050919050565b60008115159050919050565b6000819050919050565b600073ffffffffffffffffffffffffffffffffffffffff82169050919050565b6000819050919050565b82818337600083830152505050565b60005b83811015614f88578082015181840152602081019050614f6d565b83811115614f97576000848401525b50505050565b60006002820490506001821680614fb557607f821691505b60208210811415614fc957614fc8615078565b5b50919050565b614fd8826150d6565b810181811067ffffffffffffffff82111715614ff757614ff66150a7565b5b80604052505050565b600061500b82614f51565b91507fffffffffffffffffffffffffffffffffffffffffffffffffffffffffffffffff82141561503e5761503d615049565b5b600182019050919050565b7f4e487b7100000000000000000000000000000000000000000000000000000000600052601160045260246000fd5b7f4e487b7100000000000000000000000000000000000000000000000000000000600052602260045260246000fd5b7f4e487b7100000000000000000000000000000000000000000000000000000000600052604160045260246000fd5b6000601f19601f8301169050919050565b7f56616c756520646f6573206e6f74206d617463682053656d657374657246656560008201527f2100000000000000000000000000000000000000000000000000000000000000602082015250565b7f436f75727365206e6f7420706173736564206f722074616b656e20506172742060008201527f696e210000000000000000000000000000000000000000000000000000000000602082015250565b7f53747564656e7420686173206e6f74207468652072657175697265642064656760008201527f7265652100000000000000000000000000000000000000000000000000000000602082015250565b7f436f7572736520616c72656164792066756c6c00000000000000000000000000600082015250565b7f4f6e6c792053747564656e742063616e2063616c6c2074686973210000000000600082015250565b7f53656d65737465722046656520616c7265616479207061796564210000000000600082015250565b7f53747564656e7420646f6573206e6f742068617665207265717569726564206360008201527f6f75727365732100000000000000000000000000000000000000000000000000602082015250565b7f53747564656e74206973206e6f7420696e20746865207265717569726564207360008201527f656d657374657221000000000000000000000000000000000000000000000000602082015250565b7f436f75727365206973206e6f742079657420617661696c61626c652100000000600082015250565b61531f81614f09565b811461532a57600080fd5b50565b61533681614f1b565b811461534157600080fd5b50565b61534d81614f27565b811461535857600080fd5b50565b61536481614f51565b811461536f57600080fd5b5056fea2646970667358221220c3ec75fe1480fd23704e09595cec58584710f746a4ca8718a35c49e9e9b8021a64736f6c63430008040033608060405266b1a2bc2ec500006006556040518060400160405280601581526020017f53656d657374657220526567697374726174696f6e00000000000000000000008152506040518060400160405280600281526020017f5352000000000000000000000000000000000000000000000000000000000000815250816000908051906020019062000093929190620000bd565b508060019080519060200190620000ac929190620000bd565b5050506002600881905550620001d2565b828054620000cb906200016d565b90600052602060002090601f016020900481019282620000ef57600085556200013b565b82601f106200010a57805160ff19168380011785556200013b565b828001600101855582156200013b579182015b828111156200013a5782518255916020019190600101906200011d565b5b5090506200014a91906200014e565b5090565b5b80821115620001695760008160009055506001016200014f565b5090565b600060028204905060018216806200018657607f821691505b602082108114156200019d576200019c620001a3565b5b50919050565b7f4e487b7100000000000000000000000000000000000000000000000000000000600052602260045260246000fd5b6127b380620001e26000396000f3fe6080604052600436106101145760003560e01c80636817c76c116100a0578063b88d4fde11610064578063b88d4fde146103c5578063c4076876146103ee578063c87b56dd1461040a578063d5abeb0114610447578063e985e9c51461047257610114565b80636817c76c146102cc57806370a08231146102f757806395d89b4114610334578063a22cb4651461035f578063ada7c4ed1461038857610114565b806318160ddd116100e757806318160ddd146101e757806323b872dd14610212578063346de50a1461023b57806342842e0e146102665780636352211e1461028f57610114565b806301ffc9a71461011957806306fdde0314610156578063081812fc14610181578063095ea7b3146101be575b600080fd5b34801561012557600080fd5b50610140600480360381019061013b9190611d24565b6104af565b60405161014d919061207b565b60405180910390f35b34801561016257600080fd5b5061016b610591565b6040516101789190612096565b60405180910390f35b34801561018d57600080fd5b506101a860048036038101906101a39190611d76565b610623565b6040516101b59190612014565b60405180910390f35b3480156101ca57600080fd5b506101e560048036038101906101e09190611ce8565b610669565b005b3480156101f357600080fd5b506101fc610781565b6040516102099190612218565b60405180910390f35b34801561021e57600080fd5b5061023960048036038101906102349190611be2565b610787565b005b34801561024757600080fd5b506102506107e7565b60405161025d919061207b565b60405180910390f35b34801561027257600080fd5b5061028d60048036038101906102889190611be2565b6107fa565b005b34801561029b57600080fd5b506102b660048036038101906102b19190611d76565b61081a565b6040516102c39190612014565b60405180910390f35b3480156102d857600080fd5b506102e16108a1565b6040516102ee9190612218565b60405180910390f35b34801561030357600080fd5b5061031e60048036038101906103199190611b7d565b6108a7565b60405161032b9190612218565b60405180910390f35b34801561034057600080fd5b5061034961095f565b6040516103569190612096565b60405180910390f35b34801561036b57600080fd5b5061038660048036038101906103819190611cac565b6109f1565b005b34801561039457600080fd5b506103af60048036038101906103aa9190611b7d565b610a07565b6040516103bc9190612218565b60405180910390f35b3480156103d157600080fd5b506103ec60048036038101906103e79190611c31565b610a1f565b005b61040860048036038101906104039190611ce8565b610a81565b005b34801561041657600080fd5b50610431600480360381019061042c9190611d76565b610a8f565b60405161043e9190612096565b60405180910390f35b34801561045357600080fd5b5061045c610af7565b6040516104699190612218565b60405180910390f35b34801561047e57600080fd5b5061049960048036038101906104949190611ba6565b610afd565b6040516104a6919061207b565b60405180910390f35b60007f80ac58cd000000000000000000000000000000000000000000000000000000007bffffffffffffffffffffffffffffffffffffffffffffffffffffffff1916827bffffffffffffffffffffffffffffffffffffffffffffffffffffffff1916148061057a57507f5b5e139f000000000000000000000000000000000000000000000000000000007bffffffffffffffffffffffffffffffffffffffffffffffffffffffff1916827bffffffffffffffffffffffffffffffffffffffffffffffffffffffff1916145b8061058a575061058982610b91565b5b9050919050565b6060600080546105a090612382565b80601f01602080910402602001604051908101604052809291908181526020018280546105cc90612382565b80156106195780601f106105ee57610100808354040283529160200191610619565b820191906000526020600020905b8154815290600101906020018083116105fc57829003601f168201915b5050505050905090565b600061062e82610bfb565b6004600083815260200190815260200160002060009054906101000a900473ffffffffffffffffffffffffffffffffffffffff169050919050565b60006106748261081a565b90508073ffffffffffffffffffffffffffffffffffffffff168373ffffffffffffffffffffffffffffffffffffffff1614156106e5576040517f08c379a00000000000000000000000000000000000000000000000000000000081526004016106dc906121d8565b60405180910390fd5b8073ffffffffffffffffffffffffffffffffffffffff16610704610c46565b73ffffffffffffffffffffffffffffffffffffffff16148061073357506107328161072d610c46565b610afd565b5b610772576040517f08c379a0000000000000000000000000000000000000000000000000000000008152600401610769906121f8565b60405180910390fd5b61077c8383610c4e565b505050565b60075481565b610798610792610c46565b82610d07565b6107d7576040517f08c379a00000000000000000000000000000000000000000000000000000000081526004016107ce906120b8565b60405180910390fd5b6107e2838383610d9c565b505050565b600960009054906101000a900460ff1681565b61081583838360405180602001604052806000815250610a1f565b505050565b60008061082683611096565b9050600073ffffffffffffffffffffffffffffffffffffffff168173ffffffffffffffffffffffffffffffffffffffff161415610898576040517f08c379a000000000000000000000000000000000000000000000000000000000815260040161088f906121b8565b60405180910390fd5b80915050919050565b60065481565b60008073ffffffffffffffffffffffffffffffffffffffff168273ffffffffffffffffffffffffffffffffffffffff161415610918576040517f08c379a000000000000000000000000000000000000000000000000000000000815260040161090f90612178565b60405180910390fd5b600360008373ffffffffffffffffffffffffffffffffffffffff1673ffffffffffffffffffffffffffffffffffffffff168152602001908152602001600020549050919050565b60606001805461096e90612382565b80601f016020809104026020016040519081016040528092919081815260200182805461099a90612382565b80156109e75780601f106109bc576101008083540402835291602001916109e7565b820191906000526020600020905b8154815290600101906020018083116109ca57829003601f168201915b5050505050905090565b610a036109fc610c46565b83836110d3565b5050565b600a6020528060005260406000206000915090505481565b610a30610a2a610c46565b83610d07565b610a6f576040517f08c379a0000000000000000000000000000000000000000000000000000000008152600401610a66906120b8565b60405180910390fd5b610a7b84848484611240565b50505050565b610a8b828261129c565b5050565b6060610a9a82610bfb565b6000610aa46112ba565b90506000815111610ac45760405180602001604052806000815250610aef565b80610ace846112d1565b604051602001610adf929190611ff0565b6040516020818303038152906040525b915050919050565b60085481565b6000600560008473ffffffffffffffffffffffffffffffffffffffff1673ffffffffffffffffffffffffffffffffffffffff16815260200190815260200160002060008373ffffffffffffffffffffffffffffffffffffffff1673ffffffffffffffffffffffffffffffffffffffff16815260200190815260200160002060009054906101000a900460ff16905092915050565b60007f01ffc9a7000000000000000000000000000000000000000000000000000000007bffffffffffffffffffffffffffffffffffffffffffffffffffffffff1916827bffffffffffffffffffffffffffffffffffffffffffffffffffffffff1916149050919050565b610c04816113f5565b610c43576040517f08c379a0000000000000000000000000000000000000000000000000000000008152600401610c3a906121b8565b60405180910390fd5b50565b600033905090565b816004600083815260200190815260200160002060006101000a81548173ffffffffffffffffffffffffffffffffffffffff021916908373ffffffffffffffffffffffffffffffffffffffff160217905550808273ffffffffffffffffffffffffffffffffffffffff16610cc18361081a565b73ffffffffffffffffffffffffffffffffffffffff167f8c5be1e5ebec7d5bd14f71427d1e84f3dd0314c0f7b2291e5b200ac8c7c3b92560405160405180910390a45050565b600080610d138361081a565b90508073ffffffffffffffffffffffffffffffffffffffff168473ffffffffffffffffffffffffffffffffffffffff161480610d555750610d548185610afd565b5b80610d9357508373ffffffffffffffffffffffffffffffffffffffff16610d7b84610623565b73ffffffffffffffffffffffffffffffffffffffff16145b91505092915050565b8273ffffffffffffffffffffffffffffffffffffffff16610dbc8261081a565b73ffffffffffffffffffffffffffffffffffffffff1614610e12576040517f08c379a0000000000000000000000000000000000000000000000000000000008152600401610e09906120f8565b60405180910390fd5b600073ffffffffffffffffffffffffffffffffffffffff168273ffffffffffffffffffffffffffffffffffffffff161415610e82576040517f08c379a0000000000000000000000000000000000000000000000000000000008152600401610e7990612138565b60405180910390fd5b610e8f8383836001611436565b8273ffffffffffffffffffffffffffffffffffffffff16610eaf8261081a565b73ffffffffffffffffffffffffffffffffffffffff1614610f05576040517f08c379a0000000000000000000000000000000000000000000000000000000008152600401610efc906120f8565b60405180910390fd5b6004600082815260200190815260200160002060006101000a81549073ffffffffffffffffffffffffffffffffffffffff02191690556001600360008573ffffffffffffffffffffffffffffffffffffffff1673ffffffffffffffffffffffffffffffffffffffff168152602001908152602001600020600082825403925050819055506001600360008473ffffffffffffffffffffffffffffffffffffffff1673ffffffffffffffffffffffffffffffffffffffff16815260200190815260200160002060008282540192505081905550816002600083815260200190815260200160002060006101000a81548173ffffffffffffffffffffffffffffffffffffffff021916908373ffffffffffffffffffffffffffffffffffffffff160217905550808273ffffffffffffffffffffffffffffffffffffffff168473ffffffffffffffffffffffffffffffffffffffff167fddf252ad1be2c89b69c2b068fc378daa952ba7f163c4a11628f55a4df523b3ef60405160405180910390a4611091838383600161143c565b505050565b60006002600083815260200190815260200160002060009054906101000a900473ffffffffffffffffffffffffffffffffffffffff169050919050565b8173ffffffffffffffffffffffffffffffffffffffff168373ffffffffffffffffffffffffffffffffffffffff161415611142576040517f08c379a000000000000000000000000000000000000000000000000000000000815260040161113990612158565b60405180910390fd5b80600560008573ffffffffffffffffffffffffffffffffffffffff1673ffffffffffffffffffffffffffffffffffffffff16815260200190815260200160002060008473ffffffffffffffffffffffffffffffffffffffff1673ffffffffffffffffffffffffffffffffffffffff16815260200190815260200160002060006101000a81548160ff0219169083151502179055508173ffffffffffffffffffffffffffffffffffffffff168373ffffffffffffffffffffffffffffffffffffffff167f17307eab39ab6107e8899845ad3d59bd9653f200f220920489ca2b5937696c3183604051611233919061207b565b60405180910390a3505050565b61124b848484610d9c565b61125784848484611442565b611296576040517f08c379a000000000000000000000000000000000000000000000000000000000815260040161128d906120d8565b60405180910390fd5b50505050565b6112b68282604051806020016040528060008152506115d9565b5050565b606060405180602001604052806000815250905090565b6060600060016112e084611634565b01905060008167ffffffffffffffff811115611325577f4e487b7100000000000000000000000000000000000000000000000000000000600052604160045260246000fd5b6040519080825280601f01601f1916602001820160405280156113575781602001600182028036833780820191505090505b509050600082602001820190505b6001156113ea578080600190039150507f3031323334353637383961626364656600000000000000000000000000000000600a86061a8153600a85816113d4577f4e487b7100000000000000000000000000000000000000000000000000000000600052601260045260246000fd5b04945060008514156113e5576113ea565b611365565b819350505050919050565b60008073ffffffffffffffffffffffffffffffffffffffff1661141783611096565b73ffffffffffffffffffffffffffffffffffffffff1614159050919050565b50505050565b50505050565b60006114638473ffffffffffffffffffffffffffffffffffffffff1661186b565b156115cc578373ffffffffffffffffffffffffffffffffffffffff1663150b7a0261148c610c46565b8786866040518563ffffffff1660e01b81526004016114ae949392919061202f565b602060405180830381600087803b1580156114c857600080fd5b505af19250505080156114f957506040513d601f19601f820116820180604052508101906114f69190611d4d565b60015b61157c573d8060008114611529576040519150601f19603f3d011682016040523d82523d6000602084013e61152e565b606091505b50600081511415611574576040517f08c379a000000000000000000000000000000000000000000000000000000000815260040161156b906120d8565b60405180910390fd5b805181602001fd5b63150b7a0260e01b7bffffffffffffffffffffffffffffffffffffffffffffffffffffffff1916817bffffffffffffffffffffffffffffffffffffffffffffffffffffffff1916149150506115d1565b600190505b949350505050565b6115e3838361188e565b6115f06000848484611442565b61162f576040517f08c379a0000000000000000000000000000000000000000000000000000000008152600401611626906120d8565b60405180910390fd5b505050565b600080600090507a184f03e93ff9f4daa797ed6e38ed64bf6a1f01000000000000000083106116b8577a184f03e93ff9f4daa797ed6e38ed64bf6a1f01000000000000000083816116ae577f4e487b7100000000000000000000000000000000000000000000000000000000600052601260045260246000fd5b0492506040810190505b6d04ee2d6d415b85acef8100000000831061171b576d04ee2d6d415b85acef81000000008381611711577f4e487b7100000000000000000000000000000000000000000000000000000000600052601260045260246000fd5b0492506020810190505b662386f26fc10000831061177057662386f26fc100008381611766577f4e487b7100000000000000000000000000000000000000000000000000000000600052601260045260246000fd5b0492506010810190505b6305f5e10083106117bf576305f5e10083816117b5577f4e487b7100000000000000000000000000000000000000000000000000000000600052601260045260246000fd5b0492506008810190505b612710831061180a576127108381611800577f4e487b7100000000000000000000000000000000000000000000000000000000600052601260045260246000fd5b0492506004810190505b606483106118535760648381611849577f4e487b7100000000000000000000000000000000000000000000000000000000600052601260045260246000fd5b0492506002810190505b600a8310611862576001810190505b80915050919050565b6000808273ffffffffffffffffffffffffffffffffffffffff163b119050919050565b600073ffffffffffffffffffffffffffffffffffffffff168273ffffffffffffffffffffffffffffffffffffffff1614156118fe576040517f08c379a00000000000000000000000000000000000000000000000000000000081526004016118f590612198565b60405180910390fd5b611907816113f5565b15611947576040517f08c379a000000000000000000000000000000000000000000000000000000000815260040161193e90612118565b60405180910390fd5b611955600083836001611436565b61195e816113f5565b1561199e576040517f08c379a000000000000000000000000000000000000000000000000000000000815260040161199590612118565b60405180910390fd5b6001600360008473ffffffffffffffffffffffffffffffffffffffff1673ffffffffffffffffffffffffffffffffffffffff16815260200190815260200160002060008282540192505081905550816002600083815260200190815260200160002060006101000a81548173ffffffffffffffffffffffffffffffffffffffff021916908373ffffffffffffffffffffffffffffffffffffffff160217905550808273ffffffffffffffffffffffffffffffffffffffff16600073ffffffffffffffffffffffffffffffffffffffff167fddf252ad1be2c89b69c2b068fc378daa952ba7f163c4a11628f55a4df523b3ef60405160405180910390a4611aa860008383600161143c565b5050565b6000611abf611aba84612258565b612233565b905082815260208101848484011115611ad757600080fd5b611ae2848285612340565b509392505050565b600081359050611af981612721565b92915050565b600081359050611b0e81612738565b92915050565b600081359050611b238161274f565b92915050565b600081519050611b388161274f565b92915050565b600082601f830112611b4f57600080fd5b8135611b5f848260208601611aac565b91505092915050565b600081359050611b7781612766565b92915050565b600060208284031215611b8f57600080fd5b6000611b9d84828501611aea565b91505092915050565b60008060408385031215611bb957600080fd5b6000611bc785828601611aea565b9250506020611bd885828601611aea565b9150509250929050565b600080600060608486031215611bf757600080fd5b6000611c0586828701611aea565b9350506020611c1686828701611aea565b9250506040611c2786828701611b68565b9150509250925092565b60008060008060808587031215611c4757600080fd5b6000611c5587828801611aea565b9450506020611c6687828801611aea565b9350506040611c7787828801611b68565b925050606085013567ffffffffffffffff811115611c9457600080fd5b611ca087828801611b3e565b91505092959194509250565b60008060408385031215611cbf57600080fd5b6000611ccd85828601611aea565b9250506020611cde85828601611aff565b9150509250929050565b60008060408385031215611cfb57600080fd5b6000611d0985828601611aea565b9250506020611d1a85828601611b68565b9150509250929050565b600060208284031215611d3657600080fd5b6000611d4484828501611b14565b91505092915050565b600060208284031215611d5f57600080fd5b6000611d6d84828501611b29565b91505092915050565b600060208284031215611d8857600080fd5b6000611d9684828501611b68565b91505092915050565b611da8816122cc565b82525050565b611db7816122de565b82525050565b6000611dc882612289565b611dd2818561229f565b9350611de281856020860161234f565b611deb81612443565b840191505092915050565b6000611e0182612294565b611e0b81856122b0565b9350611e1b81856020860161234f565b611e2481612443565b840191505092915050565b6000611e3a82612294565b611e4481856122c1565b9350611e5481856020860161234f565b80840191505092915050565b6000611e6d602d836122b0565b9150611e7882612454565b604082019050919050565b6000611e906032836122b0565b9150611e9b826124a3565b604082019050919050565b6000611eb36025836122b0565b9150611ebe826124f2565b604082019050919050565b6000611ed6601c836122b0565b9150611ee182612541565b602082019050919050565b6000611ef96024836122b0565b9150611f048261256a565b604082019050919050565b6000611f1c6019836122b0565b9150611f27826125b9565b602082019050919050565b6000611f3f6029836122b0565b9150611f4a826125e2565b604082019050919050565b6000611f626020836122b0565b9150611f6d82612631565b602082019050919050565b6000611f856018836122b0565b9150611f908261265a565b602082019050919050565b6000611fa86021836122b0565b9150611fb382612683565b604082019050919050565b6000611fcb603d836122b0565b9150611fd6826126d2565b604082019050919050565b611fea81612336565b82525050565b6000611ffc8285611e2f565b91506120088284611e2f565b91508190509392505050565b60006020820190506120296000830184611d9f565b92915050565b60006080820190506120446000830187611d9f565b6120516020830186611d9f565b61205e6040830185611fe1565b81810360608301526120708184611dbd565b905095945050505050565b60006020820190506120906000830184611dae565b92915050565b600060208201905081810360008301526120b08184611df6565b905092915050565b600060208201905081810360008301526120d181611e60565b9050919050565b600060208201905081810360008301526120f181611e83565b9050919050565b6000602082019050818103600083015261211181611ea6565b9050919050565b6000602082019050818103600083015261213181611ec9565b9050919050565b6000602082019050818103600083015261215181611eec565b9050919050565b6000602082019050818103600083015261217181611f0f565b9050919050565b6000602082019050818103600083015261219181611f32565b9050919050565b600060208201905081810360008301526121b181611f55565b9050919050565b600060208201905081810360008301526121d181611f78565b9050919050565b600060208201905081810360008301526121f181611f9b565b9050919050565b6000602082019050818103600083015261221181611fbe565b9050919050565b600060208201905061222d6000830184611fe1565b92915050565b600061223d61224e565b905061224982826123b4565b919050565b6000604051905090565b600067ffffffffffffffff82111561227357612272612414565b5b61227c82612443565b9050602081019050919050565b600081519050919050565b600081519050919050565b600082825260208201905092915050565b600082825260208201905092915050565b600081905092915050565b60006122d782612316565b9050919050565b60008115159050919050565b60007fffffffff0000000000000000000000000000000000000000000000000000000082169050919050565b600073ffffffffffffffffffffffffffffffffffffffff82169050919050565b6000819050919050565b82818337600083830152505050565b60005b8381101561236d578082015181840152602081019050612352565b8381111561237c576000848401525b50505050565b6000600282049050600182168061239a57607f821691505b602082108114156123ae576123ad6123e5565b5b50919050565b6123bd82612443565b810181811067ffffffffffffffff821117156123dc576123db612414565b5b80604052505050565b7f4e487b7100000000000000000000000000000000000000000000000000000000600052602260045260246000fd5b7f4e487b7100000000000000000000000000000000000000000000000000000000600052604160045260246000fd5b6000601f19601f8301169050919050565b7f4552433732313a2063616c6c6572206973206e6f7420746f6b656e206f776e6560008201527f72206f7220617070726f76656400000000000000000000000000000000000000602082015250565b7f4552433732313a207472616e7366657220746f206e6f6e20455243373231526560008201527f63656976657220696d706c656d656e7465720000000000000000000000000000602082015250565b7f4552433732313a207472616e736665722066726f6d20696e636f72726563742060008201527f6f776e6572000000000000000000000000000000000000000000000000000000602082015250565b7f4552433732313a20746f6b656e20616c7265616479206d696e74656400000000600082015250565b7f4552433732313a207472616e7366657220746f20746865207a65726f2061646460008201527f7265737300000000000000000000000000000000000000000000000000000000602082015250565b7f4552433732313a20617070726f766520746f2063616c6c657200000000000000600082015250565b7f4552433732313a2061646472657373207a65726f206973206e6f74206120766160008201527f6c6964206f776e65720000000000000000000000000000000000000000000000602082015250565b7f4552433732313a206d696e7420746f20746865207a65726f2061646472657373600082015250565b7f4552433732313a20696e76616c696420746f6b656e2049440000000000000000600082015250565b7f4552433732313a20617070726f76616c20746f2063757272656e74206f776e6560008201527f7200000000000000000000000000000000000000000000000000000000000000602082015250565b7f4552433732313a20617070726f76652063616c6c6572206973206e6f7420746f60008201527f6b656e206f776e6572206f7220617070726f76656420666f7220616c6c000000602082015250565b61272a816122cc565b811461273557600080fd5b50565b612741816122de565b811461274c57600080fd5b50565b612758816122ea565b811461276357600080fd5b50565b61276f81612336565b811461277a57600080fd5b5056fea2646970667358221220114b5d766b2015d09f1a1a1ebea6b22af9eb588fa487e1b09ffe71192c3f8ad964736f6c63430008040033",
  "linkReferences": {},
  "deployedLinkReferences": {}
}