{
  "_format": "hh-sol-artifact-1",
  "contractName": "Studentmngmt",
  "sourceName": "solidity/contracts/Studentmngmt.sol",
  "abi": [
    {
      "inputs": [],
      "stateMutability": "nonpayable",
      "type": "constructor"
    },
    {
      "inputs": [
        {
          "internalType": "int256[]",
          "name": "_requiredCourses",
          "type": "int256[]"
        },
        {
          "internalType": "string",
          "name": "_name",
          "type": "string"
        },
        {
          "internalType": "int256",
          "name": "_memberLimit",
          "type": "int256"
        },
        {
          "internalType": "string",
          "name": "_degree",
          "type": "string"
        },
        {
          "internalType": "int256",
          "name": "_semester",
          "type": "int256"
        },
        {
          "internalType": "bool",
          "name": "_isCourseRequired",
          "type": "bool"
        },
        {
          "internalType": "address",
          "name": "_createdByProf",
          "type": "address"
        },
        {
          "internalType": "bool",
          "name": "_available",
          "type": "bool"
        }
      ],
      "name": "addNewCourse",
      "outputs": [],
      "stateMutability": "nonpayable",
      "type": "function"
    },
    {
      "inputs": [
        {
          "internalType": "address",
          "name": "_profAddress",
          "type": "address"
        },
        {
          "internalType": "string",
          "name": "_fName",
          "type": "string"
        },
        {
          "internalType": "string",
          "name": "_lName",
          "type": "string"
        }
      ],
      "name": "addNewProfessor",
      "outputs": [],
      "stateMutability": "nonpayable",
      "type": "function"
    },
    {
      "inputs": [
        {
          "internalType": "address",
          "name": "_studentAddress",
          "type": "address"
        },
        {
          "internalType": "string",
          "name": "_fName",
          "type": "string"
        },
        {
          "internalType": "string",
          "name": "_lName",
          "type": "string"
        },
        {
          "internalType": "string",
          "name": "_regAddress",
          "type": "string"
        },
        {
          "internalType": "string",
          "name": "_degree",
          "type": "string"
        },
        {
          "internalType": "int256",
          "name": "_semester",
          "type": "int256"
        }
      ],
      "name": "addNewStudent",
      "outputs": [],
      "stateMutability": "nonpayable",
      "type": "function"
    },
    {
      "inputs": [
        {
          "internalType": "address",
          "name": "_student",
          "type": "address"
        },
        {
          "internalType": "string",
          "name": "_semester",
          "type": "string"
        }
      ],
      "name": "addSemesterToPay",
      "outputs": [],
      "stateMutability": "nonpayable",
      "type": "function"
    },
    {
      "inputs": [],
      "name": "courseCount",
      "outputs": [
        {
          "internalType": "int256",
          "name": "",
          "type": "int256"
        }
      ],
      "stateMutability": "view",
      "type": "function"
    },
    {
      "inputs": [
        {
          "internalType": "int256",
          "name": "",
          "type": "int256"
        }
      ],
      "name": "courses",
      "outputs": [
        {
          "internalType": "int256",
          "name": "ID",
          "type": "int256"
        },
        {
          "internalType": "string",
          "name": "name",
          "type": "string"
        },
        {
          "internalType": "int256",
          "name": "memberLimit",
          "type": "int256"
        },
        {
          "internalType": "int256",
          "name": "memberCount",
          "type": "int256"
        },
        {
          "internalType": "string",
          "name": "degree",
          "type": "string"
        },
        {
          "internalType": "int256",
          "name": "semester",
          "type": "int256"
        },
        {
          "internalType": "bool",
          "name": "isCourseRequired",
          "type": "bool"
        },
        {
          "internalType": "address",
          "name": "createdByProf",
          "type": "address"
        },
        {
          "internalType": "bool",
          "name": "available",
          "type": "bool"
        }
      ],
      "stateMutability": "view",
      "type": "function"
    },
    {
      "inputs": [
        {
          "internalType": "address",
          "name": "",
          "type": "address"
        },
        {
          "internalType": "uint256",
          "name": "",
          "type": "uint256"
        }
      ],
      "name": "eCourses",
      "outputs": [
        {
          "internalType": "int256",
          "name": "ID",
          "type": "int256"
        },
        {
          "internalType": "address",
          "name": "student",
          "type": "address"
        },
        {
          "internalType": "string",
          "name": "mark",
          "type": "string"
        },
        {
          "internalType": "bool",
          "name": "takesPart",
          "type": "bool"
        },
        {
          "internalType": "bool",
          "name": "passed",
          "type": "bool"
        }
      ],
      "stateMutability": "view",
      "type": "function"
    },
    {
      "inputs": [
        {
          "internalType": "int256",
          "name": "_courseID",
          "type": "int256"
        }
      ],
      "name": "enrollInCourse",
      "outputs": [],
      "stateMutability": "nonpayable",
      "type": "function"
    },
    {
      "inputs": [],
      "name": "getAllCourses",
      "outputs": [
        {
          "components": [
            {
              "internalType": "int256",
              "name": "ID",
              "type": "int256"
            },
            {
              "internalType": "string",
              "name": "name",
              "type": "string"
            },
            {
              "internalType": "int256",
              "name": "memberLimit",
              "type": "int256"
            },
            {
              "internalType": "int256",
              "name": "memberCount",
              "type": "int256"
            },
            {
              "internalType": "string",
              "name": "degree",
              "type": "string"
            },
            {
              "internalType": "int256",
              "name": "semester",
              "type": "int256"
            },
            {
              "internalType": "bool",
              "name": "isCourseRequired",
              "type": "bool"
            },
            {
              "internalType": "address",
              "name": "createdByProf",
              "type": "address"
            },
            {
              "internalType": "bool",
              "name": "available",
              "type": "bool"
            }
          ],
          "internalType": "struct Studentmngmt.Course[]",
          "name": "",
          "type": "tuple[]"
        }
      ],
      "stateMutability": "view",
      "type": "function"
    },
    {
      "inputs": [],
      "name": "getAllProfessorAddresses",
      "outputs": [
        {
          "internalType": "address[]",
          "name": "",
          "type": "address[]"
        }
      ],
      "stateMutability": "view",
      "type": "function"
    },
    {
      "inputs": [],
      "name": "getAllStudentAddresses",
      "outputs": [
        {
          "internalType": "address[]",
          "name": "",
          "type": "address[]"
        }
      ],
      "stateMutability": "view",
      "type": "function"
    },
    {
      "inputs": [
        {
          "internalType": "address",
          "name": "_student",
          "type": "address"
        }
      ],
      "name": "getEnrolledCourses",
      "outputs": [
        {
          "components": [
            {
              "internalType": "int256",
              "name": "ID",
              "type": "int256"
            },
            {
              "internalType": "address",
              "name": "student",
              "type": "address"
            },
            {
              "internalType": "string",
              "name": "mark",
              "type": "string"
            },
            {
              "internalType": "bool",
              "name": "takesPart",
              "type": "bool"
            },
            {
              "internalType": "bool",
              "name": "passed",
              "type": "bool"
            }
          ],
          "internalType": "struct Studentmngmt.EnrolledCourse[]",
          "name": "",
          "type": "tuple[]"
        }
      ],
      "stateMutability": "view",
      "type": "function"
    },
    {
      "inputs": [
        {
          "internalType": "address",
          "name": "_student",
          "type": "address"
        }
      ],
      "name": "getSemesterFees",
      "outputs": [
        {
          "components": [
            {
              "internalType": "uint256",
              "name": "tokenID",
              "type": "uint256"
            },
            {
              "internalType": "string",
              "name": "semester",
              "type": "string"
            },
            {
              "internalType": "address",
              "name": "student",
              "type": "address"
            },
            {
              "internalType": "bool",
              "name": "isPayed",
              "type": "bool"
            }
          ],
          "internalType": "struct Studentmngmt.SemesterRegistration[]",
          "name": "",
          "type": "tuple[]"
        }
      ],
      "stateMutability": "view",
      "type": "function"
    },
    {
      "inputs": [
        {
          "internalType": "address",
          "name": "_student",
          "type": "address"
        }
      ],
      "name": "getStudentDetails",
      "outputs": [
        {
          "internalType": "string",
          "name": "",
          "type": "string"
        },
        {
          "internalType": "string",
          "name": "",
          "type": "string"
        },
        {
          "internalType": "string",
          "name": "",
          "type": "string"
        },
        {
          "internalType": "string",
          "name": "",
          "type": "string"
        },
        {
          "internalType": "int256",
          "name": "",
          "type": "int256"
        }
      ],
      "stateMutability": "view",
      "type": "function"
    },
    {
      "inputs": [
        {
          "internalType": "string",
          "name": "_semester",
          "type": "string"
        }
      ],
      "name": "paySemester",
      "outputs": [],
      "stateMutability": "payable",
      "type": "function"
    },
    {
      "inputs": [
        {
          "internalType": "address",
          "name": "",
          "type": "address"
        }
      ],
      "name": "profs",
      "outputs": [
        {
          "internalType": "address",
          "name": "profAddress",
          "type": "address"
        },
        {
          "internalType": "string",
          "name": "fName",
          "type": "string"
        },
        {
          "internalType": "string",
          "name": "lName",
          "type": "string"
        }
      ],
      "stateMutability": "view",
      "type": "function"
    },
    {
      "inputs": [
        {
          "internalType": "int256",
          "name": "",
          "type": "int256"
        },
        {
          "internalType": "uint256",
          "name": "",
          "type": "uint256"
        }
      ],
      "name": "requiredCourses",
      "outputs": [
        {
          "internalType": "int256",
          "name": "",
          "type": "int256"
        }
      ],
      "stateMutability": "view",
      "type": "function"
    },
    {
      "inputs": [
        {
          "internalType": "address",
          "name": "",
          "type": "address"
        },
        {
          "internalType": "uint256",
          "name": "",
          "type": "uint256"
        }
      ],
      "name": "semesterFees",
      "outputs": [
        {
          "internalType": "uint256",
          "name": "tokenID",
          "type": "uint256"
        },
        {
          "internalType": "string",
          "name": "semester",
          "type": "string"
        },
        {
          "internalType": "address",
          "name": "student",
          "type": "address"
        },
        {
          "internalType": "bool",
          "name": "isPayed",
          "type": "bool"
        }
      ],
      "stateMutability": "view",
      "type": "function"
    },
    {
      "inputs": [
        {
          "internalType": "address",
          "name": "",
          "type": "address"
        }
      ],
      "name": "students",
      "outputs": [
        {
          "internalType": "address",
          "name": "studentAddress",
          "type": "address"
        },
        {
          "internalType": "string",
          "name": "fName",
          "type": "string"
        },
        {
          "internalType": "string",
          "name": "lName",
          "type": "string"
        },
        {
          "internalType": "string",
          "name": "regAddress",
          "type": "string"
        },
        {
          "internalType": "string",
          "name": "degree",
          "type": "string"
        },
        {
          "internalType": "int256",
          "name": "semester",
          "type": "int256"
        }
      ],
      "stateMutability": "view",
      "type": "function"
    },
    {
      "inputs": [],
      "name": "tokenCount",
      "outputs": [
        {
          "internalType": "uint256",
          "name": "",
          "type": "uint256"
        }
      ],
      "stateMutability": "view",
      "type": "function"
    },
    {
      "inputs": [
        {
          "internalType": "int256",
          "name": "_courseID",
          "type": "int256"
        }
      ],
      "name": "unsubscribeFromCourse",
      "outputs": [],
      "stateMutability": "nonpayable",
      "type": "function"
    },
    {
      "inputs": [
        {
          "internalType": "address",
          "name": "_student",
          "type": "address"
        },
        {
          "internalType": "int256",
          "name": "_courseID",
          "type": "int256"
        },
        {
          "internalType": "string",
          "name": "_mark",
          "type": "string"
        }
      ],
      "name": "updateMarkOfStudent",
      "outputs": [],
      "stateMutability": "nonpayable",
      "type": "function"
    },
    {
      "inputs": [
        {
          "internalType": "string",
          "name": "_regAddress",
          "type": "string"
        }
      ],
      "name": "updateRegAddressStudent",
      "outputs": [],
      "stateMutability": "nonpayable",
      "type": "function"
    }
  ],
  "bytecode": "0x6080604052604051620000129062000084565b604051809103906000f0801580156200002f573d6000803e3d6000fd5b50600260006101000a81548173ffffffffffffffffffffffffffffffffffffffff021916908373ffffffffffffffffffffffffffffffffffffffff1602179055503480156200007d57600080fd5b5062000092565b6129958062005be983390190565b615b4780620000a26000396000f3fe6080604052600436106101405760003560e01c806366055159116100b6578063a6c807a91161006f578063a6c807a914610482578063c7ce2a4a146104c4578063d0b371bd14610501578063e08a99cf14610542578063e70cc6eb1461056b578063fb7f563a1461059657610140565b8063660551591461037957806366278e39146103a4578063770dbe16146103cd5780638d48f7d2146104125780639d4c2aa71461042e5780639f181b5e1461045757610140565b8063279109591161010857806327910959146102695780633b31cf6d14610292578063420c017d146102bb57806345667721146102e457806351c1a771146103255780635345c9121461034e57610140565b806304e48bd114610145578063060c3488146101705780630993031e146101b057806313fdb0a8146101ed57806319a3df831461022c575b600080fd5b34801561015157600080fd5b5061015a6105bf565b6040516101679190614f1d565b60405180910390f35b34801561017c57600080fd5b50610197600480360381019061019291906145a8565b6107f7565b6040516101a7949392919061529d565b60405180910390f35b3480156101bc57600080fd5b506101d760048036038101906101d2919061435c565b6108f9565b6040516101e49190614f3f565b60405180910390f35b3480156101f957600080fd5b50610214600480360381019061020f919061435c565b610abf565b60405161022393929190614e10565b60405180910390f35b34801561023857600080fd5b50610253600480360381019061024e919061435c565b610c19565b6040516102609190614f61565b60405180910390f35b34801561027557600080fd5b50610290600480360381019061028b91906146de565b610e96565b005b34801561029e57600080fd5b506102b960048036038101906102b491906144bf565b611553565b005b3480156102c757600080fd5b506102e260048036038101906102dd9190614743565b611708565b005b3480156102f057600080fd5b5061030b600480360381019061030691906145a8565b611834565b60405161031c959493929190614f9e565b60405180910390f35b34801561033157600080fd5b5061034c600480360381019061034791906146de565b611949565b005b34801561035a57600080fd5b5061036361258b565b6040516103709190614efb565b60405180910390f35b34801561038557600080fd5b5061038e612619565b60405161039b9190614f83565b60405180910390f35b3480156103b057600080fd5b506103cb60048036038101906103c691906143ec565b61261f565b005b3480156103d957600080fd5b506103f460048036038101906103ef91906146de565b612847565b60405161040999989796959493929190614ff8565b60405180910390f35b61042c60048036038101906104279190614743565b6129df565b005b34801561043a57600080fd5b5061045560048036038101906104509190614385565b61301d565b005b34801561046357600080fd5b5061046c613461565b6040516104799190615282565b60405180910390f35b34801561048e57600080fd5b506104a960048036038101906104a4919061435c565b613467565b6040516104bb96959493929190614e55565b60405180910390f35b3480156104d057600080fd5b506104eb60048036038101906104e69190614707565b6136e3565b6040516104f89190614f83565b60405180910390f35b34801561050d57600080fd5b506105286004803603810190610523919061435c565b613714565b604051610539959493929190615093565b60405180910390f35b34801561054e57600080fd5b50610569600480360381019061056491906145e4565b613a3e565b005b34801561057757600080fd5b50610580613e31565b60405161058d9190614efb565b60405180910390f35b3480156105a257600080fd5b506105bd60048036038101906105b89190614440565b613ebf565b005b60606005805480602002602001604051908101604052809291908181526020016000905b828210156107ee578382906000526020600020906007020160405180610120016040529081600082015481526020016001820180546106219061562c565b80601f016020809104026020016040519081016040528092919081815260200182805461064d9061562c565b801561069a5780601f1061066f5761010080835404028352916020019161069a565b820191906000526020600020905b81548152906001019060200180831161067d57829003601f168201915b5050505050815260200160028201548152602001600382015481526020016004820180546106c79061562c565b80601f01602080910402602001604051908101604052809291908181526020018280546106f39061562c565b80156107405780601f1061071557610100808354040283529160200191610740565b820191906000526020600020905b81548152906001019060200180831161072357829003601f168201915b50505050508152602001600582015481526020016006820160009054906101000a900460ff161515151581526020016006820160019054906101000a900473ffffffffffffffffffffffffffffffffffffffff1673ffffffffffffffffffffffffffffffffffffffff1673ffffffffffffffffffffffffffffffffffffffff1681526020016006820160159054906101000a900460ff161515151581525050815260200190600101906105e3565b50505050905090565b600b602052816000526040600020818154811061081357600080fd5b90600052602060002090600302016000915091505080600001549080600101805461083d9061562c565b80601f01602080910402602001604051908101604052809291908181526020018280546108699061562c565b80156108b65780601f1061088b576101008083540402835291602001916108b6565b820191906000526020600020905b81548152906001019060200180831161089957829003601f168201915b5050505050908060020160009054906101000a900473ffffffffffffffffffffffffffffffffffffffff16908060020160149054906101000a900460ff16905084565b6060600960008373ffffffffffffffffffffffffffffffffffffffff1673ffffffffffffffffffffffffffffffffffffffff168152602001908152602001600020805480602002602001604051908101604052809291908181526020016000905b82821015610ab457838290600052602060002090600402016040518060a0016040529081600082015481526020016001820160009054906101000a900473ffffffffffffffffffffffffffffffffffffffff1673ffffffffffffffffffffffffffffffffffffffff1673ffffffffffffffffffffffffffffffffffffffff1681526020016002820180546109ed9061562c565b80601f0160208091040260200160405190810160405280929190818152602001828054610a199061562c565b8015610a665780601f10610a3b57610100808354040283529160200191610a66565b820191906000526020600020905b815481529060010190602001808311610a4957829003601f168201915b505050505081526020016003820160009054906101000a900460ff161515151581526020016003820160019054906101000a900460ff1615151515815250508152602001906001019061095a565b505050509050919050565b60076020528060005260406000206000915090508060000160009054906101000a900473ffffffffffffffffffffffffffffffffffffffff1690806001018054610b089061562c565b80601f0160208091040260200160405190810160405280929190818152602001828054610b349061562c565b8015610b815780601f10610b5657610100808354040283529160200191610b81565b820191906000526020600020905b815481529060010190602001808311610b6457829003601f168201915b505050505090806002018054610b969061562c565b80601f0160208091040260200160405190810160405280929190818152602001828054610bc29061562c565b8015610c0f5780601f10610be457610100808354040283529160200191610c0f565b820191906000526020600020905b815481529060010190602001808311610bf257829003601f168201915b5050505050905083565b6060600073ffffffffffffffffffffffffffffffffffffffff16600660003373ffffffffffffffffffffffffffffffffffffffff1673ffffffffffffffffffffffffffffffffffffffff16815260200190815260200160002060000160009054906101000a900473ffffffffffffffffffffffffffffffffffffffff1673ffffffffffffffffffffffffffffffffffffffff161415610ced576040517f08c379a0000000000000000000000000000000000000000000000000000000008152600401610ce4906151c2565b60405180910390fd5b600b60008373ffffffffffffffffffffffffffffffffffffffff1673ffffffffffffffffffffffffffffffffffffffff168152602001908152602001600020805480602002602001604051908101604052809291908181526020016000905b82821015610e8b578382906000526020600020906003020160405180608001604052908160008201548152602001600182018054610d899061562c565b80601f0160208091040260200160405190810160405280929190818152602001828054610db59061562c565b8015610e025780601f10610dd757610100808354040283529160200191610e02565b820191906000526020600020905b815481529060010190602001808311610de557829003601f168201915b505050505081526020016002820160009054906101000a900473ffffffffffffffffffffffffffffffffffffffff1673ffffffffffffffffffffffffffffffffffffffff1673ffffffffffffffffffffffffffffffffffffffff1681526020016002820160149054906101000a900460ff16151515158152505081526020019060010190610d4c565b505050509050919050565b600073ffffffffffffffffffffffffffffffffffffffff16600660003373ffffffffffffffffffffffffffffffffffffffff1673ffffffffffffffffffffffffffffffffffffffff16815260200190815260200160002060000160009054906101000a900473ffffffffffffffffffffffffffffffffffffffff1673ffffffffffffffffffffffffffffffffffffffff161415610f68576040517f08c379a0000000000000000000000000000000000000000000000000000000008152600401610f5f906151c2565b60405180910390fd5b6000600960003373ffffffffffffffffffffffffffffffffffffffff1673ffffffffffffffffffffffffffffffffffffffff168152602001908152602001600020805480602002602001604051908101604052809291908181526020016000905b8282101561112357838290600052602060002090600402016040518060a0016040529081600082015481526020016001820160009054906101000a900473ffffffffffffffffffffffffffffffffffffffff1673ffffffffffffffffffffffffffffffffffffffff1673ffffffffffffffffffffffffffffffffffffffff16815260200160028201805461105c9061562c565b80601f01602080910402602001604051908101604052809291908181526020018280546110889061562c565b80156110d55780601f106110aa576101008083540402835291602001916110d5565b820191906000526020600020905b8154815290600101906020018083116110b857829003601f168201915b505050505081526020016003820160009054906101000a900460ff161515151581526020016003820160019054906101000a900460ff16151515158152505081526020019060010190610fc9565b50505050905060005b8151811015611379578282828151811061116f577f4e487b7100000000000000000000000000000000000000000000000000000000600052603260045260246000fd5b6020026020010151600001511480156111f757503373ffffffffffffffffffffffffffffffffffffffff168282815181106111d3577f4e487b7100000000000000000000000000000000000000000000000000000000600052603260045260246000fd5b60200260200101516020015173ffffffffffffffffffffffffffffffffffffffff16145b1561136657818181518110611235577f4e487b7100000000000000000000000000000000000000000000000000000000600052603260045260246000fd5b60200260200101516080015115611281576040517f08c379a0000000000000000000000000000000000000000000000000000000008152600401611278906151a2565b60405180910390fd5b6008600084815260200190815260200160002060030160008154809291906112a8906155e3565b919050555060056001846112bc919061551b565b815481106112f3577f4e487b7100000000000000000000000000000000000000000000000000000000600052603260045260246000fd5b90600052602060002090600702016003016000815480929190611315906155e3565b9190505550818181518110611353577f4e487b7100000000000000000000000000000000000000000000000000000000600052603260045260246000fd5b60200260200101611362614074565b8152505b8080611371906156d8565b91505061112c565b5060058054806113b2577f4e487b7100000000000000000000000000000000000000000000000000000000600052603160045260246000fd5b60019003818190600052602060002090600702016000808201600090556001820160006113df91906140bd565b600282016000905560038201600090556004820160006113ff91906140bd565b60058201600090556006820160006101000a81549060ff02191690556006820160016101000a81549073ffffffffffffffffffffffffffffffffffffffff02191690556006820160156101000a81549060ff021916905550509055600960003373ffffffffffffffffffffffffffffffffffffffff1673ffffffffffffffffffffffffffffffffffffffff1681526020019081526020016000208054806114cf577f4e487b7100000000000000000000000000000000000000000000000000000000600052603160045260246000fd5b60019003818190600052602060002090600402016000808201600090556001820160006101000a81549073ffffffffffffffffffffffffffffffffffffffff021916905560028201600061152391906140bd565b6003820160006101000a81549060ff02191690556003820160016101000a81549060ff0219169055505090555050565b6040518060c001604052808773ffffffffffffffffffffffffffffffffffffffff16815260200186815260200185815260200184815260200183815260200182815250600660008873ffffffffffffffffffffffffffffffffffffffff1673ffffffffffffffffffffffffffffffffffffffff16815260200190815260200160002060008201518160000160006101000a81548173ffffffffffffffffffffffffffffffffffffffff021916908373ffffffffffffffffffffffffffffffffffffffff16021790555060208201518160010190805190602001906116389291906140fd565b5060408201518160020190805190602001906116559291906140fd565b5060608201518160030190805190602001906116729291906140fd565b50608082015181600401908051906020019061168f9291906140fd565b5060a082015181600501559050506003869080600181540180825580915050600190039060005260206000200160009091909190916101000a81548173ffffffffffffffffffffffffffffffffffffffff021916908373ffffffffffffffffffffffffffffffffffffffff160217905550505050505050565b600073ffffffffffffffffffffffffffffffffffffffff16600660003373ffffffffffffffffffffffffffffffffffffffff1673ffffffffffffffffffffffffffffffffffffffff16815260200190815260200160002060000160009054906101000a900473ffffffffffffffffffffffffffffffffffffffff1673ffffffffffffffffffffffffffffffffffffffff1614156117da576040517f08c379a00000000000000000000000000000000000000000000000000000000081526004016117d1906151c2565b60405180910390fd5b80600660003373ffffffffffffffffffffffffffffffffffffffff1673ffffffffffffffffffffffffffffffffffffffff16815260200190815260200160002060030190805190602001906118309291906140fd565b5050565b6009602052816000526040600020818154811061185057600080fd5b9060005260206000209060040201600091509150508060000154908060010160009054906101000a900473ffffffffffffffffffffffffffffffffffffffff16908060020180546118a09061562c565b80601f01602080910402602001604051908101604052809291908181526020018280546118cc9061562c565b80156119195780601f106118ee57610100808354040283529160200191611919565b820191906000526020600020905b8154815290600101906020018083116118fc57829003601f168201915b5050505050908060030160009054906101000a900460ff16908060030160019054906101000a900460ff16905085565b600073ffffffffffffffffffffffffffffffffffffffff16600660003373ffffffffffffffffffffffffffffffffffffffff1673ffffffffffffffffffffffffffffffffffffffff16815260200190815260200160002060000160009054906101000a900473ffffffffffffffffffffffffffffffffffffffff1673ffffffffffffffffffffffffffffffffffffffff161415611a1b576040517f08c379a0000000000000000000000000000000000000000000000000000000008152600401611a12906151c2565b60405180910390fd5b806008600082815260200190815260200160002060060160159054906101000a900460ff16611a7f576040517f08c379a0000000000000000000000000000000000000000000000000000000008152600401611a7690615242565b60405180910390fd5b600860008281526020019081526020016000206003015460086000838152602001908152602001600020600201541215611aee576040517f08c379a0000000000000000000000000000000000000000000000000000000008152600401611ae590615182565b60405180910390fd5b611c60600660003373ffffffffffffffffffffffffffffffffffffffff1673ffffffffffffffffffffffffffffffffffffffff1681526020019081526020016000206004018054611b3e9061562c565b80601f0160208091040260200160405190810160405280929190818152602001828054611b6a9061562c565b8015611bb75780601f10611b8c57610100808354040283529160200191611bb7565b820191906000526020600020905b815481529060010190602001808311611b9a57829003601f168201915b5050505050600860008481526020019081526020016000206004018054611bdd9061562c565b80601f0160208091040260200160405190810160405280929190818152602001828054611c099061562c565b8015611c565780601f10611c2b57610100808354040283529160200191611c56565b820191906000526020600020905b815481529060010190602001808311611c3957829003601f168201915b505050505061401b565b611c9f576040517f08c379a0000000000000000000000000000000000000000000000000000000008152600401611c9690615162565b60405180910390fd5b6008600082815260200190815260200160002060050154600660003373ffffffffffffffffffffffffffffffffffffffff1673ffffffffffffffffffffffffffffffffffffffff1681526020019081526020016000206005015414611d39576040517f08c379a0000000000000000000000000000000000000000000000000000000008152600401611d3090615222565b60405180910390fd5b6000600960003373ffffffffffffffffffffffffffffffffffffffff1673ffffffffffffffffffffffffffffffffffffffff168152602001908152602001600020805480602002602001604051908101604052809291908181526020016000905b82821015611ef457838290600052602060002090600402016040518060a0016040529081600082015481526020016001820160009054906101000a900473ffffffffffffffffffffffffffffffffffffffff1673ffffffffffffffffffffffffffffffffffffffff1673ffffffffffffffffffffffffffffffffffffffff168152602001600282018054611e2d9061562c565b80601f0160208091040260200160405190810160405280929190818152602001828054611e599061562c565b8015611ea65780601f10611e7b57610100808354040283529160200191611ea6565b820191906000526020600020905b815481529060010190602001808311611e8957829003601f168201915b505050505081526020016003820160009054906101000a900460ff161515151581526020016003820160019054906101000a900460ff16151515158152505081526020019060010190611d9a565b5050505090506008600083815260200190815260200160002060060160009054906101000a900460ff161561227757600081511415611f68576040517f08c379a0000000000000000000000000000000000000000000000000000000008152600401611f5f90615202565b60405180910390fd5b6000600a6000848152602001908152602001600020805480602002602001604051908101604052809291908181526020018280548015611fc757602002820191906000526020600020905b815481526020019060010190808311611fb3575b5050505050905060005b81518110156122745760005b8351811015612260573373ffffffffffffffffffffffffffffffffffffffff16848281518110612036577f4e487b7100000000000000000000000000000000000000000000000000000000600052603260045260246000fd5b60200260200101516020015173ffffffffffffffffffffffffffffffffffffffff161480156120e85750828281518110612099577f4e487b7100000000000000000000000000000000000000000000000000000000600052603260045260246000fd5b60200260200101518482815181106120da577f4e487b7100000000000000000000000000000000000000000000000000000000600052603260045260246000fd5b602002602001015160000151145b156121c557838181518110612126577f4e487b7100000000000000000000000000000000000000000000000000000000600052603260045260246000fd5b60200260200101516060015115806121805750838181518110612172577f4e487b7100000000000000000000000000000000000000000000000000000000600052603260045260246000fd5b602002602001015160800151155b156121c0576040517f08c379a00000000000000000000000000000000000000000000000000000000081526004016121b790615142565b60405180910390fd5b61224d565b848482815181106121ff577f4e487b7100000000000000000000000000000000000000000000000000000000600052603260045260246000fd5b602002602001015160000151141561224c576040517f08c379a000000000000000000000000000000000000000000000000000000000815260040161224390615122565b60405180910390fd5b5b8080612258906156d8565b915050611fdd565b50808061226c906156d8565b915050611fd1565b50505b60086000848152602001908152602001600020600301600081548092919061229e9061568f565b919050555060056001846122b2919061551b565b815481106122e9577f4e487b7100000000000000000000000000000000000000000000000000000000600052603260045260246000fd5b9060005260206000209060070201600301600081548092919061230b9061568f565b91905055506005805480612348577f4e487b7100000000000000000000000000000000000000000000000000000000600052603160045260246000fd5b600190038181906000526020600020906007020160008082016000905560018201600061237591906140bd565b6002820160009055600382016000905560048201600061239591906140bd565b60058201600090556006820160006101000a81549060ff02191690556006820160016101000a81549073ffffffffffffffffffffffffffffffffffffffff02191690556006820160156101000a81549060ff02191690555050905560006040518060a001604052808581526020013373ffffffffffffffffffffffffffffffffffffffff1681526020016040518060400160405280600381526020017f302e3000000000000000000000000000000000000000000000000000000000008152508152602001600115158152602001600015158152509050600960003373ffffffffffffffffffffffffffffffffffffffff1673ffffffffffffffffffffffffffffffffffffffff1681526020019081526020016000208190806001815401808255809150506001900390600052602060002090600402016000909190919091506000820151816000015560208201518160010160006101000a81548173ffffffffffffffffffffffffffffffffffffffff021916908373ffffffffffffffffffffffffffffffffffffffff16021790555060408201518160020190805190602001906125429291906140fd565b5060608201518160030160006101000a81548160ff02191690831515021790555060808201518160030160016101000a81548160ff021916908315150217905550505050505050565b6060600480548060200260200160405190810160405280929190818152602001828054801561260f57602002820191906000526020600020905b8160009054906101000a900473ffffffffffffffffffffffffffffffffffffffff1673ffffffffffffffffffffffffffffffffffffffff16815260200190600101908083116125c5575b5050505050905090565b60005481565b600073ffffffffffffffffffffffffffffffffffffffff16600760003373ffffffffffffffffffffffffffffffffffffffff1673ffffffffffffffffffffffffffffffffffffffff16815260200190815260200160002060000160009054906101000a900473ffffffffffffffffffffffffffffffffffffffff1673ffffffffffffffffffffffffffffffffffffffff1614156126f1576040517f08c379a00000000000000000000000000000000000000000000000000000000081526004016126e890615262565b60405180910390fd5b60016000815480929190612704906156d8565b91905055506000604051806080016040528060015481526020018381526020018473ffffffffffffffffffffffffffffffffffffffff168152602001600015158152509050600b60008473ffffffffffffffffffffffffffffffffffffffff1673ffffffffffffffffffffffffffffffffffffffff1681526020019081526020016000208190806001815401808255809150506001900390600052602060002090600302016000909190919091506000820151816000015560208201518160010190805190602001906127d89291906140fd565b5060408201518160020160006101000a81548173ffffffffffffffffffffffffffffffffffffffff021916908373ffffffffffffffffffffffffffffffffffffffff16021790555060608201518160020160146101000a81548160ff0219169083151502179055505050505050565b60086020528060005260406000206000915090508060000154908060010180546128709061562c565b80601f016020809104026020016040519081016040528092919081815260200182805461289c9061562c565b80156128e95780601f106128be576101008083540402835291602001916128e9565b820191906000526020600020905b8154815290600101906020018083116128cc57829003601f168201915b50505050509080600201549080600301549080600401805461290a9061562c565b80601f01602080910402602001604051908101604052809291908181526020018280546129369061562c565b80156129835780601f1061295857610100808354040283529160200191612983565b820191906000526020600020905b81548152906001019060200180831161296657829003601f168201915b5050505050908060050154908060060160009054906101000a900460ff16908060060160019054906101000a900473ffffffffffffffffffffffffffffffffffffffff16908060060160159054906101000a900460ff16905089565b600073ffffffffffffffffffffffffffffffffffffffff16600660003373ffffffffffffffffffffffffffffffffffffffff1673ffffffffffffffffffffffffffffffffffffffff16815260200190815260200160002060000160009054906101000a900473ffffffffffffffffffffffffffffffffffffffff1673ffffffffffffffffffffffffffffffffffffffff161415612ab1576040517f08c379a0000000000000000000000000000000000000000000000000000000008152600401612aa8906151c2565b60405180910390fd5b66b1a2bc2ec500003414612afa576040517f08c379a0000000000000000000000000000000000000000000000000000000008152600401612af190615102565b60405180910390fd5b6000600b60003373ffffffffffffffffffffffffffffffffffffffff1673ffffffffffffffffffffffffffffffffffffffff168152602001908152602001600020805480602002602001604051908101604052809291908181526020016000905b82821015612c9a578382906000526020600020906003020160405180608001604052908160008201548152602001600182018054612b989061562c565b80601f0160208091040260200160405190810160405280929190818152602001828054612bc49061562c565b8015612c115780601f10612be657610100808354040283529160200191612c11565b820191906000526020600020905b815481529060010190602001808311612bf457829003601f168201915b505050505081526020016002820160009054906101000a900473ffffffffffffffffffffffffffffffffffffffff1673ffffffffffffffffffffffffffffffffffffffff1673ffffffffffffffffffffffffffffffffffffffff1681526020016002820160149054906101000a900460ff16151515158152505081526020019060010190612b5b565b50505050905060005b8151811015612f3757612cfa828281518110612ce8577f4e487b7100000000000000000000000000000000000000000000000000000000600052603260045260246000fd5b6020026020010151602001518461401b565b8015612d7557503373ffffffffffffffffffffffffffffffffffffffff16828281518110612d51577f4e487b7100000000000000000000000000000000000000000000000000000000600052603260045260246000fd5b60200260200101516040015173ffffffffffffffffffffffffffffffffffffffff16145b15612f2457818181518110612db3577f4e487b7100000000000000000000000000000000000000000000000000000000600052603260045260246000fd5b60200260200101516060015115612dff576040517f08c379a0000000000000000000000000000000000000000000000000000000008152600401612df6906151e2565b60405180910390fd5b6001828281518110612e3a577f4e487b7100000000000000000000000000000000000000000000000000000000600052603260045260246000fd5b60200260200101516060019015159081151581525050600260009054906101000a900473ffffffffffffffffffffffffffffffffffffffff1673ffffffffffffffffffffffffffffffffffffffff1663c407687633848481518110612ec8577f4e487b7100000000000000000000000000000000000000000000000000000000600052603260045260246000fd5b6020026020010151600001516040518363ffffffff1660e01b8152600401612ef1929190614ed2565b600060405180830381600087803b158015612f0b57600080fd5b505af1158015612f1f573d6000803e3d6000fd5b505050505b8080612f2f906156d8565b915050612ca3565b50600b60003373ffffffffffffffffffffffffffffffffffffffff1673ffffffffffffffffffffffffffffffffffffffff168152602001908152602001600020805480612fad577f4e487b7100000000000000000000000000000000000000000000000000000000600052603160045260246000fd5b6001900381819060005260206000209060030201600080820160009055600182016000612fda91906140bd565b6002820160006101000a81549073ffffffffffffffffffffffffffffffffffffffff02191690556002820160146101000a81549060ff0219169055505090555050565b600073ffffffffffffffffffffffffffffffffffffffff16600760003373ffffffffffffffffffffffffffffffffffffffff1673ffffffffffffffffffffffffffffffffffffffff16815260200190815260200160002060000160009054906101000a900473ffffffffffffffffffffffffffffffffffffffff1673ffffffffffffffffffffffffffffffffffffffff1614156130ef576040517f08c379a00000000000000000000000000000000000000000000000000000000081526004016130e690615262565b60405180910390fd5b6000600960003373ffffffffffffffffffffffffffffffffffffffff1673ffffffffffffffffffffffffffffffffffffffff168152602001908152602001600020805480602002602001604051908101604052809291908181526020016000905b828210156132aa57838290600052602060002090600402016040518060a0016040529081600082015481526020016001820160009054906101000a900473ffffffffffffffffffffffffffffffffffffffff1673ffffffffffffffffffffffffffffffffffffffff1673ffffffffffffffffffffffffffffffffffffffff1681526020016002820180546131e39061562c565b80601f016020809104026020016040519081016040528092919081815260200182805461320f9061562c565b801561325c5780601f106132315761010080835404028352916020019161325c565b820191906000526020600020905b81548152906001019060200180831161323f57829003601f168201915b505050505081526020016003820160009054906101000a900460ff161515151581526020016003820160019054906101000a900460ff16151515158152505081526020019060010190613150565b50505050905060005b815181101561336557838282815181106132f6577f4e487b7100000000000000000000000000000000000000000000000000000000600052603260045260246000fd5b60200260200101516000015114156133525782828281518110613342577f4e487b7100000000000000000000000000000000000000000000000000000000600052603260045260246000fd5b6020026020010151604001819052505b808061335d906156d8565b9150506132b3565b50600960003373ffffffffffffffffffffffffffffffffffffffff1673ffffffffffffffffffffffffffffffffffffffff1681526020019081526020016000208054806133db577f4e487b7100000000000000000000000000000000000000000000000000000000600052603160045260246000fd5b60019003818190600052602060002090600402016000808201600090556001820160006101000a81549073ffffffffffffffffffffffffffffffffffffffff021916905560028201600061342f91906140bd565b6003820160006101000a81549060ff02191690556003820160016101000a81549060ff02191690555050905550505050565b60015481565b60066020528060005260406000206000915090508060000160009054906101000a900473ffffffffffffffffffffffffffffffffffffffff16908060010180546134b09061562c565b80601f01602080910402602001604051908101604052809291908181526020018280546134dc9061562c565b80156135295780601f106134fe57610100808354040283529160200191613529565b820191906000526020600020905b81548152906001019060200180831161350c57829003601f168201915b50505050509080600201805461353e9061562c565b80601f016020809104026020016040519081016040528092919081815260200182805461356a9061562c565b80156135b75780601f1061358c576101008083540402835291602001916135b7565b820191906000526020600020905b81548152906001019060200180831161359a57829003601f168201915b5050505050908060030180546135cc9061562c565b80601f01602080910402602001604051908101604052809291908181526020018280546135f89061562c565b80156136455780601f1061361a57610100808354040283529160200191613645565b820191906000526020600020905b81548152906001019060200180831161362857829003601f168201915b50505050509080600401805461365a9061562c565b80601f01602080910402602001604051908101604052809291908181526020018280546136869061562c565b80156136d35780601f106136a8576101008083540402835291602001916136d3565b820191906000526020600020905b8154815290600101906020018083116136b657829003601f168201915b5050505050908060050154905086565b600a60205281600052604060002081815481106136ff57600080fd5b90600052602060002001600091509150505481565b606080606080600080600660008873ffffffffffffffffffffffffffffffffffffffff1673ffffffffffffffffffffffffffffffffffffffff1681526020019081526020016000206040518060c00160405290816000820160009054906101000a900473ffffffffffffffffffffffffffffffffffffffff1673ffffffffffffffffffffffffffffffffffffffff1673ffffffffffffffffffffffffffffffffffffffff1681526020016001820180546137cd9061562c565b80601f01602080910402602001604051908101604052809291908181526020018280546137f99061562c565b80156138465780601f1061381b57610100808354040283529160200191613846565b820191906000526020600020905b81548152906001019060200180831161382957829003601f168201915b5050505050815260200160028201805461385f9061562c565b80601f016020809104026020016040519081016040528092919081815260200182805461388b9061562c565b80156138d85780601f106138ad576101008083540402835291602001916138d8565b820191906000526020600020905b8154815290600101906020018083116138bb57829003601f168201915b505050505081526020016003820180546138f19061562c565b80601f016020809104026020016040519081016040528092919081815260200182805461391d9061562c565b801561396a5780601f1061393f5761010080835404028352916020019161396a565b820191906000526020600020905b81548152906001019060200180831161394d57829003601f168201915b505050505081526020016004820180546139839061562c565b80601f01602080910402602001604051908101604052809291908181526020018280546139af9061562c565b80156139fc5780601f106139d1576101008083540402835291602001916139fc565b820191906000526020600020905b8154815290600101906020018083116139df57829003601f168201915b50505050508152602001600582015481525050905080602001518160400151826060015183608001518460a00151955095509550955095505091939590929450565b600073ffffffffffffffffffffffffffffffffffffffff16600760003373ffffffffffffffffffffffffffffffffffffffff1673ffffffffffffffffffffffffffffffffffffffff16815260200190815260200160002060000160009054906101000a900473ffffffffffffffffffffffffffffffffffffffff1673ffffffffffffffffffffffffffffffffffffffff161415613b10576040517f08c379a0000000000000000000000000000000000000000000000000000000008152600401613b0790615262565b60405180910390fd5b6001600054613b1f9190615487565b60008190555060405180610120016040528060005481526020018881526020018781526020016000815260200186815260200185815260200184151581526020018373ffffffffffffffffffffffffffffffffffffffff1681526020018215158152506008600080548152602001908152602001600020600082015181600001556020820151816001019080519060200190613bbc9291906140fd565b5060408201518160020155606082015181600301556080820151816004019080519060200190613bed9291906140fd565b5060a0820151816005015560c08201518160060160006101000a81548160ff02191690831515021790555060e08201518160060160016101000a81548173ffffffffffffffffffffffffffffffffffffffff021916908373ffffffffffffffffffffffffffffffffffffffff1602179055506101008201518160060160156101000a81548160ff0219169083151502179055509050508215613cb35787600a6000805481526020019081526020016000209080519060200190613cb1929190614183565b505b600560405180610120016040528060005481526020018981526020018881526020016000815260200187815260200186815260200185151581526020018473ffffffffffffffffffffffffffffffffffffffff1681526020018315158152509080600181540180825580915050600190039060005260206000209060070201600090919091909150600082015181600001556020820151816001019080519060200190613d619291906140fd565b5060408201518160020155606082015181600301556080820151816004019080519060200190613d929291906140fd565b5060a0820151816005015560c08201518160060160006101000a81548160ff02191690831515021790555060e08201518160060160016101000a81548173ffffffffffffffffffffffffffffffffffffffff021916908373ffffffffffffffffffffffffffffffffffffffff1602179055506101008201518160060160156101000a81548160ff02191690831515021790555050505050505050505050565b60606003805480602002602001604051908101604052809291908181526020018280548015613eb557602002820191906000526020600020905b8160009054906101000a900473ffffffffffffffffffffffffffffffffffffffff1673ffffffffffffffffffffffffffffffffffffffff1681526020019060010190808311613e6b575b5050505050905090565b60405180606001604052808473ffffffffffffffffffffffffffffffffffffffff16815260200183815260200182815250600760008573ffffffffffffffffffffffffffffffffffffffff1673ffffffffffffffffffffffffffffffffffffffff16815260200190815260200160002060008201518160000160006101000a81548173ffffffffffffffffffffffffffffffffffffffff021916908373ffffffffffffffffffffffffffffffffffffffff1602179055506020820151816001019080519060200190613f929291906140fd565b506040820151816002019080519060200190613faf9291906140fd565b509050506004839080600181540180825580915050600190039060005260206000200160009091909190916101000a81548173ffffffffffffffffffffffffffffffffffffffff021916908373ffffffffffffffffffffffffffffffffffffffff160217905550505050565b60008160405160200161402e9190614df9565b60405160208183030381529060405280519060200120836040516020016140559190614df9565b6040516020818303038152906040528051906020012014905092915050565b6040518060a0016040528060008152602001600073ffffffffffffffffffffffffffffffffffffffff168152602001606081526020016000151581526020016000151581525090565b5080546140c99061562c565b6000825580601f106140db57506140fa565b601f0160209004906000526020600020908101906140f991906141d0565b5b50565b8280546141099061562c565b90600052602060002090601f01602090048101928261412b5760008555614172565b82601f1061414457805160ff1916838001178555614172565b82800160010185558215614172579182015b82811115614171578251825591602001919060010190614156565b5b50905061417f91906141d0565b5090565b8280548282559060005260206000209081019282156141bf579160200282015b828111156141be5782518255916020019190600101906141a3565b5b5090506141cc91906141ed565b5090565b5b808211156141e95760008160009055506001016141d1565b5090565b5b808211156142065760008160009055506001016141ee565b5090565b600061421d6142188461530e565b6152e9565b9050808382526020820190508285602086028201111561423c57600080fd5b60005b8581101561426c57816142528882614308565b84526020840193506020830192505060018101905061423f565b5050509392505050565b60006142896142848461533a565b6152e9565b9050828152602081018484840111156142a157600080fd5b6142ac8482856155a1565b509392505050565b6000813590506142c381615ab5565b92915050565b600082601f8301126142da57600080fd5b81356142ea84826020860161420a565b91505092915050565b60008135905061430281615acc565b92915050565b60008135905061431781615ae3565b92915050565b600082601f83011261432e57600080fd5b813561433e848260208601614276565b91505092915050565b60008135905061435681615afa565b92915050565b60006020828403121561436e57600080fd5b600061437c848285016142b4565b91505092915050565b60008060006060848603121561439a57600080fd5b60006143a8868287016142b4565b93505060206143b986828701614308565b925050604084013567ffffffffffffffff8111156143d657600080fd5b6143e28682870161431d565b9150509250925092565b600080604083850312156143ff57600080fd5b600061440d858286016142b4565b925050602083013567ffffffffffffffff81111561442a57600080fd5b6144368582860161431d565b9150509250929050565b60008060006060848603121561445557600080fd5b6000614463868287016142b4565b935050602084013567ffffffffffffffff81111561448057600080fd5b61448c8682870161431d565b925050604084013567ffffffffffffffff8111156144a957600080fd5b6144b58682870161431d565b9150509250925092565b60008060008060008060c087890312156144d857600080fd5b60006144e689828a016142b4565b965050602087013567ffffffffffffffff81111561450357600080fd5b61450f89828a0161431d565b955050604087013567ffffffffffffffff81111561452c57600080fd5b61453889828a0161431d565b945050606087013567ffffffffffffffff81111561455557600080fd5b61456189828a0161431d565b935050608087013567ffffffffffffffff81111561457e57600080fd5b61458a89828a0161431d565b92505060a061459b89828a01614308565b9150509295509295509295565b600080604083850312156145bb57600080fd5b60006145c9858286016142b4565b92505060206145da85828601614347565b9150509250929050565b600080600080600080600080610100898b03121561460157600080fd5b600089013567ffffffffffffffff81111561461b57600080fd5b6146278b828c016142c9565b985050602089013567ffffffffffffffff81111561464457600080fd5b6146508b828c0161431d565b97505060406146618b828c01614308565b965050606089013567ffffffffffffffff81111561467e57600080fd5b61468a8b828c0161431d565b955050608061469b8b828c01614308565b94505060a06146ac8b828c016142f3565b93505060c06146bd8b828c016142b4565b92505060e06146ce8b828c016142f3565b9150509295985092959890939650565b6000602082840312156146f057600080fd5b60006146fe84828501614308565b91505092915050565b6000806040838503121561471a57600080fd5b600061472885828601614308565b925050602061473985828601614347565b9150509250929050565b60006020828403121561475557600080fd5b600082013567ffffffffffffffff81111561476f57600080fd5b61477b8482850161431d565b91505092915050565b600061479083836147d8565b60208301905092915050565b60006147a88383614c36565b905092915050565b60006147bc8383614d02565b905092915050565b60006147d08383614d78565b905092915050565b6147e18161554f565b82525050565b6147f08161554f565b82525050565b6000614801826153ab565b61480b8185615416565b93506148168361536b565b8060005b8381101561484757815161482e8882614784565b9750614839836153e2565b92505060018101905061481a565b5085935050505092915050565b600061485f826153b6565b6148698185615427565b93508360208202850161487b8561537b565b8060005b858110156148b75784840389528151614898858261479c565b94506148a3836153ef565b925060208a0199505060018101905061487f565b50829750879550505050505092915050565b60006148d4826153c1565b6148de8185615438565b9350836020820285016148f08561538b565b8060005b8581101561492c578484038952815161490d85826147b0565b9450614918836153fc565b925060208a019950506001810190506148f4565b50829750879550505050505092915050565b6000614949826153cc565b6149538185615449565b9350836020820285016149658561539b565b8060005b858110156149a1578484038952815161498285826147c4565b945061498d83615409565b925060208a01995050600181019050614969565b50829750879550505050505092915050565b6149bc81615561565b82525050565b6149cb81615561565b82525050565b6149da8161556d565b82525050565b6149e98161556d565b82525050565b60006149fa826153d7565b614a04818561545a565b9350614a148185602086016155b0565b614a1d816157ae565b840191505092915050565b6000614a33826153d7565b614a3d818561546b565b9350614a4d8185602086016155b0565b614a56816157ae565b840191505092915050565b6000614a6c826153d7565b614a76818561547c565b9350614a868185602086016155b0565b80840191505092915050565b6000614a9f60218361546b565b9150614aaa826157bf565b604082019050919050565b6000614ac260278361546b565b9150614acd8261580e565b604082019050919050565b6000614ae5602c8361546b565b9150614af08261585d565b604082019050919050565b6000614b0860248361546b565b9150614b13826158ac565b604082019050919050565b6000614b2b60138361546b565b9150614b36826158fb565b602082019050919050565b6000614b4e60328361546b565b9150614b5982615924565b604082019050919050565b6000614b71601b8361546b565b9150614b7c82615973565b602082019050919050565b6000614b94601b8361546b565b9150614b9f8261599c565b602082019050919050565b6000614bb760278361546b565b9150614bc2826159c5565b604082019050919050565b6000614bda60288361546b565b9150614be582615a14565b604082019050919050565b6000614bfd601c8361546b565b9150614c0882615a63565b602082019050919050565b6000614c20601d8361546b565b9150614c2b82615a8c565b602082019050919050565b600061012083016000830151614c4f60008601826149d1565b5060208301518482036020860152614c6782826149ef565b9150506040830151614c7c60408601826149d1565b506060830151614c8f60608601826149d1565b5060808301518482036080860152614ca782826149ef565b91505060a0830151614cbc60a08601826149d1565b5060c0830151614ccf60c08601826149b3565b5060e0830151614ce260e08601826147d8565b50610100830151614cf76101008601826149b3565b508091505092915050565b600060a083016000830151614d1a60008601826149d1565b506020830151614d2d60208601826147d8565b5060408301518482036040860152614d4582826149ef565b9150506060830151614d5a60608601826149b3565b506080830151614d6d60808601826149b3565b508091505092915050565b6000608083016000830151614d906000860182614ddb565b5060208301518482036020860152614da882826149ef565b9150506040830151614dbd60408601826147d8565b506060830151614dd060608601826149b3565b508091505092915050565b614de481615597565b82525050565b614df381615597565b82525050565b6000614e058284614a61565b915081905092915050565b6000606082019050614e2560008301866147e7565b8181036020830152614e378185614a28565b90508181036040830152614e4b8184614a28565b9050949350505050565b600060c082019050614e6a60008301896147e7565b8181036020830152614e7c8188614a28565b90508181036040830152614e908187614a28565b90508181036060830152614ea48186614a28565b90508181036080830152614eb88185614a28565b9050614ec760a08301846149e0565b979650505050505050565b6000604082019050614ee760008301856147e7565b614ef46020830184614dea565b9392505050565b60006020820190508181036000830152614f1581846147f6565b905092915050565b60006020820190508181036000830152614f378184614854565b905092915050565b60006020820190508181036000830152614f5981846148c9565b905092915050565b60006020820190508181036000830152614f7b818461493e565b905092915050565b6000602082019050614f9860008301846149e0565b92915050565b600060a082019050614fb360008301886149e0565b614fc060208301876147e7565b8181036040830152614fd28186614a28565b9050614fe160608301856149c2565b614fee60808301846149c2565b9695505050505050565b60006101208201905061500e600083018c6149e0565b8181036020830152615020818b614a28565b905061502f604083018a6149e0565b61503c60608301896149e0565b818103608083015261504e8188614a28565b905061505d60a08301876149e0565b61506a60c08301866149c2565b61507760e08301856147e7565b6150856101008301846149c2565b9a9950505050505050505050565b600060a08201905081810360008301526150ad8188614a28565b905081810360208301526150c18187614a28565b905081810360408301526150d58186614a28565b905081810360608301526150e98185614a28565b90506150f860808301846149e0565b9695505050505050565b6000602082019050818103600083015261511b81614a92565b9050919050565b6000602082019050818103600083015261513b81614ab5565b9050919050565b6000602082019050818103600083015261515b81614ad8565b9050919050565b6000602082019050818103600083015261517b81614afb565b9050919050565b6000602082019050818103600083015261519b81614b1e565b9050919050565b600060208201905081810360008301526151bb81614b41565b9050919050565b600060208201905081810360008301526151db81614b64565b9050919050565b600060208201905081810360008301526151fb81614b87565b9050919050565b6000602082019050818103600083015261521b81614baa565b9050919050565b6000602082019050818103600083015261523b81614bcd565b9050919050565b6000602082019050818103600083015261525b81614bf0565b9050919050565b6000602082019050818103600083015261527b81614c13565b9050919050565b60006020820190506152976000830184614dea565b92915050565b60006080820190506152b26000830187614dea565b81810360208301526152c48186614a28565b90506152d360408301856147e7565b6152e060608301846149c2565b95945050505050565b60006152f3615304565b90506152ff828261565e565b919050565b6000604051905090565b600067ffffffffffffffff8211156153295761532861577f565b5b602082029050602081019050919050565b600067ffffffffffffffff8211156153555761535461577f565b5b61535e826157ae565b9050602081019050919050565b6000819050602082019050919050565b6000819050602082019050919050565b6000819050602082019050919050565b6000819050602082019050919050565b600081519050919050565b600081519050919050565b600081519050919050565b600081519050919050565b600081519050919050565b6000602082019050919050565b6000602082019050919050565b6000602082019050919050565b6000602082019050919050565b600082825260208201905092915050565b600082825260208201905092915050565b600082825260208201905092915050565b600082825260208201905092915050565b600082825260208201905092915050565b600082825260208201905092915050565b600081905092915050565b60006154928261556d565b915061549d8361556d565b9250817f7fffffffffffffffffffffffffffffffffffffffffffffffffffffffffffffff038313600083121516156154d8576154d7615721565b5b817f80000000000000000000000000000000000000000000000000000000000000000383126000831216156155105761550f615721565b5b828201905092915050565b600061552682615597565b915061553183615597565b92508282101561554457615543615721565b5b828203905092915050565b600061555a82615577565b9050919050565b60008115159050919050565b6000819050919050565b600073ffffffffffffffffffffffffffffffffffffffff82169050919050565b6000819050919050565b82818337600083830152505050565b60005b838110156155ce5780820151818401526020810190506155b3565b838111156155dd576000848401525b50505050565b60006155ee8261556d565b91507f800000000000000000000000000000000000000000000000000000000000000082141561562157615620615721565b5b600182039050919050565b6000600282049050600182168061564457607f821691505b6020821081141561565857615657615750565b5b50919050565b615667826157ae565b810181811067ffffffffffffffff821117156156865761568561577f565b5b80604052505050565b600061569a8261556d565b91507f7fffffffffffffffffffffffffffffffffffffffffffffffffffffffffffffff8214156156cd576156cc615721565b5b600182019050919050565b60006156e382615597565b91507fffffffffffffffffffffffffffffffffffffffffffffffffffffffffffffffff82141561571657615715615721565b5b600182019050919050565b7f4e487b7100000000000000000000000000000000000000000000000000000000600052601160045260246000fd5b7f4e487b7100000000000000000000000000000000000000000000000000000000600052602260045260246000fd5b7f4e487b7100000000000000000000000000000000000000000000000000000000600052604160045260246000fd5b6000601f19601f8301169050919050565b7f56616c756520646f6573206e6f74206d617463682053656d657374657246656560008201527f2100000000000000000000000000000000000000000000000000000000000000602082015250565b7f436f7572736520616c726561647920706173736564206f722074616b6573207060008201527f61727420696e2100000000000000000000000000000000000000000000000000602082015250565b7f526571756972656420436f75727365206e6f7420706173736564206f7220746160008201527f6b656e205061727420696e210000000000000000000000000000000000000000602082015250565b7f53747564656e7420686173206e6f74207468652072657175697265642064656760008201527f7265652100000000000000000000000000000000000000000000000000000000602082015250565b7f436f7572736520616c72656164792066756c6c00000000000000000000000000600082015250565b7f436f7572736520616c7265616479207061737365642c20556e7375627363726960008201527f7074696f6e206e6f7420706f737369626c650000000000000000000000000000602082015250565b7f4f6e6c792053747564656e742063616e2063616c6c2074686973210000000000600082015250565b7f53656d65737465722046656520616c7265616479207061796564210000000000600082015250565b7f53747564656e7420646f6573206e6f742068617665207265717569726564206360008201527f6f75727365732100000000000000000000000000000000000000000000000000602082015250565b7f53747564656e74206973206e6f7420696e20746865207265717569726564207360008201527f656d657374657221000000000000000000000000000000000000000000000000602082015250565b7f436f75727365206973206e6f742079657420617661696c61626c652100000000600082015250565b7f4f6e6c792050726f666573736f722063616e2063616c6c207468697321000000600082015250565b615abe8161554f565b8114615ac957600080fd5b50565b615ad581615561565b8114615ae057600080fd5b50565b615aec8161556d565b8114615af757600080fd5b50565b615b0381615597565b8114615b0e57600080fd5b5056fea26469706673582212208c9d4cb1668462c7faaaebdd50bac8636f5805e05162410db18cac6f6c40d51664736f6c63430008040033608060405266b1a2bc2ec500006006556040518060400160405280601581526020017f53656d657374657220526567697374726174696f6e00000000000000000000008152506040518060400160405280600281526020017f5352000000000000000000000000000000000000000000000000000000000000815250816000908051906020019062000093929190620000bd565b508060019080519060200190620000ac929190620000bd565b5050506002600881905550620001d2565b828054620000cb906200016d565b90600052602060002090601f016020900481019282620000ef57600085556200013b565b82601f106200010a57805160ff19168380011785556200013b565b828001600101855582156200013b579182015b828111156200013a5782518255916020019190600101906200011d565b5b5090506200014a91906200014e565b5090565b5b80821115620001695760008160009055506001016200014f565b5090565b600060028204905060018216806200018657607f821691505b602082108114156200019d576200019c620001a3565b5b50919050565b7f4e487b7100000000000000000000000000000000000000000000000000000000600052602260045260246000fd5b6127b380620001e26000396000f3fe6080604052600436106101145760003560e01c80636817c76c116100a0578063b88d4fde11610064578063b88d4fde146103c5578063c4076876146103ee578063c87b56dd1461040a578063d5abeb0114610447578063e985e9c51461047257610114565b80636817c76c146102cc57806370a08231146102f757806395d89b4114610334578063a22cb4651461035f578063ada7c4ed1461038857610114565b806318160ddd116100e757806318160ddd146101e757806323b872dd14610212578063346de50a1461023b57806342842e0e146102665780636352211e1461028f57610114565b806301ffc9a71461011957806306fdde0314610156578063081812fc14610181578063095ea7b3146101be575b600080fd5b34801561012557600080fd5b50610140600480360381019061013b9190611d24565b6104af565b60405161014d919061207b565b60405180910390f35b34801561016257600080fd5b5061016b610591565b6040516101789190612096565b60405180910390f35b34801561018d57600080fd5b506101a860048036038101906101a39190611d76565b610623565b6040516101b59190612014565b60405180910390f35b3480156101ca57600080fd5b506101e560048036038101906101e09190611ce8565b610669565b005b3480156101f357600080fd5b506101fc610781565b6040516102099190612218565b60405180910390f35b34801561021e57600080fd5b5061023960048036038101906102349190611be2565b610787565b005b34801561024757600080fd5b506102506107e7565b60405161025d919061207b565b60405180910390f35b34801561027257600080fd5b5061028d60048036038101906102889190611be2565b6107fa565b005b34801561029b57600080fd5b506102b660048036038101906102b19190611d76565b61081a565b6040516102c39190612014565b60405180910390f35b3480156102d857600080fd5b506102e16108a1565b6040516102ee9190612218565b60405180910390f35b34801561030357600080fd5b5061031e60048036038101906103199190611b7d565b6108a7565b60405161032b9190612218565b60405180910390f35b34801561034057600080fd5b5061034961095f565b6040516103569190612096565b60405180910390f35b34801561036b57600080fd5b5061038660048036038101906103819190611cac565b6109f1565b005b34801561039457600080fd5b506103af60048036038101906103aa9190611b7d565b610a07565b6040516103bc9190612218565b60405180910390f35b3480156103d157600080fd5b506103ec60048036038101906103e79190611c31565b610a1f565b005b61040860048036038101906104039190611ce8565b610a81565b005b34801561041657600080fd5b50610431600480360381019061042c9190611d76565b610a8f565b60405161043e9190612096565b60405180910390f35b34801561045357600080fd5b5061045c610af7565b6040516104699190612218565b60405180910390f35b34801561047e57600080fd5b5061049960048036038101906104949190611ba6565b610afd565b6040516104a6919061207b565b60405180910390f35b60007f80ac58cd000000000000000000000000000000000000000000000000000000007bffffffffffffffffffffffffffffffffffffffffffffffffffffffff1916827bffffffffffffffffffffffffffffffffffffffffffffffffffffffff1916148061057a57507f5b5e139f000000000000000000000000000000000000000000000000000000007bffffffffffffffffffffffffffffffffffffffffffffffffffffffff1916827bffffffffffffffffffffffffffffffffffffffffffffffffffffffff1916145b8061058a575061058982610b91565b5b9050919050565b6060600080546105a090612382565b80601f01602080910402602001604051908101604052809291908181526020018280546105cc90612382565b80156106195780601f106105ee57610100808354040283529160200191610619565b820191906000526020600020905b8154815290600101906020018083116105fc57829003601f168201915b5050505050905090565b600061062e82610bfb565b6004600083815260200190815260200160002060009054906101000a900473ffffffffffffffffffffffffffffffffffffffff169050919050565b60006106748261081a565b90508073ffffffffffffffffffffffffffffffffffffffff168373ffffffffffffffffffffffffffffffffffffffff1614156106e5576040517f08c379a00000000000000000000000000000000000000000000000000000000081526004016106dc906121d8565b60405180910390fd5b8073ffffffffffffffffffffffffffffffffffffffff16610704610c46565b73ffffffffffffffffffffffffffffffffffffffff16148061073357506107328161072d610c46565b610afd565b5b610772576040517f08c379a0000000000000000000000000000000000000000000000000000000008152600401610769906121f8565b60405180910390fd5b61077c8383610c4e565b505050565b60075481565b610798610792610c46565b82610d07565b6107d7576040517f08c379a00000000000000000000000000000000000000000000000000000000081526004016107ce906120b8565b60405180910390fd5b6107e2838383610d9c565b505050565b600960009054906101000a900460ff1681565b61081583838360405180602001604052806000815250610a1f565b505050565b60008061082683611096565b9050600073ffffffffffffffffffffffffffffffffffffffff168173ffffffffffffffffffffffffffffffffffffffff161415610898576040517f08c379a000000000000000000000000000000000000000000000000000000000815260040161088f906121b8565b60405180910390fd5b80915050919050565b60065481565b60008073ffffffffffffffffffffffffffffffffffffffff168273ffffffffffffffffffffffffffffffffffffffff161415610918576040517f08c379a000000000000000000000000000000000000000000000000000000000815260040161090f90612178565b60405180910390fd5b600360008373ffffffffffffffffffffffffffffffffffffffff1673ffffffffffffffffffffffffffffffffffffffff168152602001908152602001600020549050919050565b60606001805461096e90612382565b80601f016020809104026020016040519081016040528092919081815260200182805461099a90612382565b80156109e75780601f106109bc576101008083540402835291602001916109e7565b820191906000526020600020905b8154815290600101906020018083116109ca57829003601f168201915b5050505050905090565b610a036109fc610c46565b83836110d3565b5050565b600a6020528060005260406000206000915090505481565b610a30610a2a610c46565b83610d07565b610a6f576040517f08c379a0000000000000000000000000000000000000000000000000000000008152600401610a66906120b8565b60405180910390fd5b610a7b84848484611240565b50505050565b610a8b828261129c565b5050565b6060610a9a82610bfb565b6000610aa46112ba565b90506000815111610ac45760405180602001604052806000815250610aef565b80610ace846112d1565b604051602001610adf929190611ff0565b6040516020818303038152906040525b915050919050565b60085481565b6000600560008473ffffffffffffffffffffffffffffffffffffffff1673ffffffffffffffffffffffffffffffffffffffff16815260200190815260200160002060008373ffffffffffffffffffffffffffffffffffffffff1673ffffffffffffffffffffffffffffffffffffffff16815260200190815260200160002060009054906101000a900460ff16905092915050565b60007f01ffc9a7000000000000000000000000000000000000000000000000000000007bffffffffffffffffffffffffffffffffffffffffffffffffffffffff1916827bffffffffffffffffffffffffffffffffffffffffffffffffffffffff1916149050919050565b610c04816113f5565b610c43576040517f08c379a0000000000000000000000000000000000000000000000000000000008152600401610c3a906121b8565b60405180910390fd5b50565b600033905090565b816004600083815260200190815260200160002060006101000a81548173ffffffffffffffffffffffffffffffffffffffff021916908373ffffffffffffffffffffffffffffffffffffffff160217905550808273ffffffffffffffffffffffffffffffffffffffff16610cc18361081a565b73ffffffffffffffffffffffffffffffffffffffff167f8c5be1e5ebec7d5bd14f71427d1e84f3dd0314c0f7b2291e5b200ac8c7c3b92560405160405180910390a45050565b600080610d138361081a565b90508073ffffffffffffffffffffffffffffffffffffffff168473ffffffffffffffffffffffffffffffffffffffff161480610d555750610d548185610afd565b5b80610d9357508373ffffffffffffffffffffffffffffffffffffffff16610d7b84610623565b73ffffffffffffffffffffffffffffffffffffffff16145b91505092915050565b8273ffffffffffffffffffffffffffffffffffffffff16610dbc8261081a565b73ffffffffffffffffffffffffffffffffffffffff1614610e12576040517f08c379a0000000000000000000000000000000000000000000000000000000008152600401610e09906120f8565b60405180910390fd5b600073ffffffffffffffffffffffffffffffffffffffff168273ffffffffffffffffffffffffffffffffffffffff161415610e82576040517f08c379a0000000000000000000000000000000000000000000000000000000008152600401610e7990612138565b60405180910390fd5b610e8f8383836001611436565b8273ffffffffffffffffffffffffffffffffffffffff16610eaf8261081a565b73ffffffffffffffffffffffffffffffffffffffff1614610f05576040517f08c379a0000000000000000000000000000000000000000000000000000000008152600401610efc906120f8565b60405180910390fd5b6004600082815260200190815260200160002060006101000a81549073ffffffffffffffffffffffffffffffffffffffff02191690556001600360008573ffffffffffffffffffffffffffffffffffffffff1673ffffffffffffffffffffffffffffffffffffffff168152602001908152602001600020600082825403925050819055506001600360008473ffffffffffffffffffffffffffffffffffffffff1673ffffffffffffffffffffffffffffffffffffffff16815260200190815260200160002060008282540192505081905550816002600083815260200190815260200160002060006101000a81548173ffffffffffffffffffffffffffffffffffffffff021916908373ffffffffffffffffffffffffffffffffffffffff160217905550808273ffffffffffffffffffffffffffffffffffffffff168473ffffffffffffffffffffffffffffffffffffffff167fddf252ad1be2c89b69c2b068fc378daa952ba7f163c4a11628f55a4df523b3ef60405160405180910390a4611091838383600161143c565b505050565b60006002600083815260200190815260200160002060009054906101000a900473ffffffffffffffffffffffffffffffffffffffff169050919050565b8173ffffffffffffffffffffffffffffffffffffffff168373ffffffffffffffffffffffffffffffffffffffff161415611142576040517f08c379a000000000000000000000000000000000000000000000000000000000815260040161113990612158565b60405180910390fd5b80600560008573ffffffffffffffffffffffffffffffffffffffff1673ffffffffffffffffffffffffffffffffffffffff16815260200190815260200160002060008473ffffffffffffffffffffffffffffffffffffffff1673ffffffffffffffffffffffffffffffffffffffff16815260200190815260200160002060006101000a81548160ff0219169083151502179055508173ffffffffffffffffffffffffffffffffffffffff168373ffffffffffffffffffffffffffffffffffffffff167f17307eab39ab6107e8899845ad3d59bd9653f200f220920489ca2b5937696c3183604051611233919061207b565b60405180910390a3505050565b61124b848484610d9c565b61125784848484611442565b611296576040517f08c379a000000000000000000000000000000000000000000000000000000000815260040161128d906120d8565b60405180910390fd5b50505050565b6112b68282604051806020016040528060008152506115d9565b5050565b606060405180602001604052806000815250905090565b6060600060016112e084611634565b01905060008167ffffffffffffffff811115611325577f4e487b7100000000000000000000000000000000000000000000000000000000600052604160045260246000fd5b6040519080825280601f01601f1916602001820160405280156113575781602001600182028036833780820191505090505b509050600082602001820190505b6001156113ea578080600190039150507f3031323334353637383961626364656600000000000000000000000000000000600a86061a8153600a85816113d4577f4e487b7100000000000000000000000000000000000000000000000000000000600052601260045260246000fd5b04945060008514156113e5576113ea565b611365565b819350505050919050565b60008073ffffffffffffffffffffffffffffffffffffffff1661141783611096565b73ffffffffffffffffffffffffffffffffffffffff1614159050919050565b50505050565b50505050565b60006114638473ffffffffffffffffffffffffffffffffffffffff1661186b565b156115cc578373ffffffffffffffffffffffffffffffffffffffff1663150b7a0261148c610c46565b8786866040518563ffffffff1660e01b81526004016114ae949392919061202f565b602060405180830381600087803b1580156114c857600080fd5b505af19250505080156114f957506040513d601f19601f820116820180604052508101906114f69190611d4d565b60015b61157c573d8060008114611529576040519150601f19603f3d011682016040523d82523d6000602084013e61152e565b606091505b50600081511415611574576040517f08c379a000000000000000000000000000000000000000000000000000000000815260040161156b906120d8565b60405180910390fd5b805181602001fd5b63150b7a0260e01b7bffffffffffffffffffffffffffffffffffffffffffffffffffffffff1916817bffffffffffffffffffffffffffffffffffffffffffffffffffffffff1916149150506115d1565b600190505b949350505050565b6115e3838361188e565b6115f06000848484611442565b61162f576040517f08c379a0000000000000000000000000000000000000000000000000000000008152600401611626906120d8565b60405180910390fd5b505050565b600080600090507a184f03e93ff9f4daa797ed6e38ed64bf6a1f01000000000000000083106116b8577a184f03e93ff9f4daa797ed6e38ed64bf6a1f01000000000000000083816116ae577f4e487b7100000000000000000000000000000000000000000000000000000000600052601260045260246000fd5b0492506040810190505b6d04ee2d6d415b85acef8100000000831061171b576d04ee2d6d415b85acef81000000008381611711577f4e487b7100000000000000000000000000000000000000000000000000000000600052601260045260246000fd5b0492506020810190505b662386f26fc10000831061177057662386f26fc100008381611766577f4e487b7100000000000000000000000000000000000000000000000000000000600052601260045260246000fd5b0492506010810190505b6305f5e10083106117bf576305f5e10083816117b5577f4e487b7100000000000000000000000000000000000000000000000000000000600052601260045260246000fd5b0492506008810190505b612710831061180a576127108381611800577f4e487b7100000000000000000000000000000000000000000000000000000000600052601260045260246000fd5b0492506004810190505b606483106118535760648381611849577f4e487b7100000000000000000000000000000000000000000000000000000000600052601260045260246000fd5b0492506002810190505b600a8310611862576001810190505b80915050919050565b6000808273ffffffffffffffffffffffffffffffffffffffff163b119050919050565b600073ffffffffffffffffffffffffffffffffffffffff168273ffffffffffffffffffffffffffffffffffffffff1614156118fe576040517f08c379a00000000000000000000000000000000000000000000000000000000081526004016118f590612198565b60405180910390fd5b611907816113f5565b15611947576040517f08c379a000000000000000000000000000000000000000000000000000000000815260040161193e90612118565b60405180910390fd5b611955600083836001611436565b61195e816113f5565b1561199e576040517f08c379a000000000000000000000000000000000000000000000000000000000815260040161199590612118565b60405180910390fd5b6001600360008473ffffffffffffffffffffffffffffffffffffffff1673ffffffffffffffffffffffffffffffffffffffff16815260200190815260200160002060008282540192505081905550816002600083815260200190815260200160002060006101000a81548173ffffffffffffffffffffffffffffffffffffffff021916908373ffffffffffffffffffffffffffffffffffffffff160217905550808273ffffffffffffffffffffffffffffffffffffffff16600073ffffffffffffffffffffffffffffffffffffffff167fddf252ad1be2c89b69c2b068fc378daa952ba7f163c4a11628f55a4df523b3ef60405160405180910390a4611aa860008383600161143c565b5050565b6000611abf611aba84612258565b612233565b905082815260208101848484011115611ad757600080fd5b611ae2848285612340565b509392505050565b600081359050611af981612721565b92915050565b600081359050611b0e81612738565b92915050565b600081359050611b238161274f565b92915050565b600081519050611b388161274f565b92915050565b600082601f830112611b4f57600080fd5b8135611b5f848260208601611aac565b91505092915050565b600081359050611b7781612766565b92915050565b600060208284031215611b8f57600080fd5b6000611b9d84828501611aea565b91505092915050565b60008060408385031215611bb957600080fd5b6000611bc785828601611aea565b9250506020611bd885828601611aea565b9150509250929050565b600080600060608486031215611bf757600080fd5b6000611c0586828701611aea565b9350506020611c1686828701611aea565b9250506040611c2786828701611b68565b9150509250925092565b60008060008060808587031215611c4757600080fd5b6000611c5587828801611aea565b9450506020611c6687828801611aea565b9350506040611c7787828801611b68565b925050606085013567ffffffffffffffff811115611c9457600080fd5b611ca087828801611b3e565b91505092959194509250565b60008060408385031215611cbf57600080fd5b6000611ccd85828601611aea565b9250506020611cde85828601611aff565b9150509250929050565b60008060408385031215611cfb57600080fd5b6000611d0985828601611aea565b9250506020611d1a85828601611b68565b9150509250929050565b600060208284031215611d3657600080fd5b6000611d4484828501611b14565b91505092915050565b600060208284031215611d5f57600080fd5b6000611d6d84828501611b29565b91505092915050565b600060208284031215611d8857600080fd5b6000611d9684828501611b68565b91505092915050565b611da8816122cc565b82525050565b611db7816122de565b82525050565b6000611dc882612289565b611dd2818561229f565b9350611de281856020860161234f565b611deb81612443565b840191505092915050565b6000611e0182612294565b611e0b81856122b0565b9350611e1b81856020860161234f565b611e2481612443565b840191505092915050565b6000611e3a82612294565b611e4481856122c1565b9350611e5481856020860161234f565b80840191505092915050565b6000611e6d602d836122b0565b9150611e7882612454565b604082019050919050565b6000611e906032836122b0565b9150611e9b826124a3565b604082019050919050565b6000611eb36025836122b0565b9150611ebe826124f2565b604082019050919050565b6000611ed6601c836122b0565b9150611ee182612541565b602082019050919050565b6000611ef96024836122b0565b9150611f048261256a565b604082019050919050565b6000611f1c6019836122b0565b9150611f27826125b9565b602082019050919050565b6000611f3f6029836122b0565b9150611f4a826125e2565b604082019050919050565b6000611f626020836122b0565b9150611f6d82612631565b602082019050919050565b6000611f856018836122b0565b9150611f908261265a565b602082019050919050565b6000611fa86021836122b0565b9150611fb382612683565b604082019050919050565b6000611fcb603d836122b0565b9150611fd6826126d2565b604082019050919050565b611fea81612336565b82525050565b6000611ffc8285611e2f565b91506120088284611e2f565b91508190509392505050565b60006020820190506120296000830184611d9f565b92915050565b60006080820190506120446000830187611d9f565b6120516020830186611d9f565b61205e6040830185611fe1565b81810360608301526120708184611dbd565b905095945050505050565b60006020820190506120906000830184611dae565b92915050565b600060208201905081810360008301526120b08184611df6565b905092915050565b600060208201905081810360008301526120d181611e60565b9050919050565b600060208201905081810360008301526120f181611e83565b9050919050565b6000602082019050818103600083015261211181611ea6565b9050919050565b6000602082019050818103600083015261213181611ec9565b9050919050565b6000602082019050818103600083015261215181611eec565b9050919050565b6000602082019050818103600083015261217181611f0f565b9050919050565b6000602082019050818103600083015261219181611f32565b9050919050565b600060208201905081810360008301526121b181611f55565b9050919050565b600060208201905081810360008301526121d181611f78565b9050919050565b600060208201905081810360008301526121f181611f9b565b9050919050565b6000602082019050818103600083015261221181611fbe565b9050919050565b600060208201905061222d6000830184611fe1565b92915050565b600061223d61224e565b905061224982826123b4565b919050565b6000604051905090565b600067ffffffffffffffff82111561227357612272612414565b5b61227c82612443565b9050602081019050919050565b600081519050919050565b600081519050919050565b600082825260208201905092915050565b600082825260208201905092915050565b600081905092915050565b60006122d782612316565b9050919050565b60008115159050919050565b60007fffffffff0000000000000000000000000000000000000000000000000000000082169050919050565b600073ffffffffffffffffffffffffffffffffffffffff82169050919050565b6000819050919050565b82818337600083830152505050565b60005b8381101561236d578082015181840152602081019050612352565b8381111561237c576000848401525b50505050565b6000600282049050600182168061239a57607f821691505b602082108114156123ae576123ad6123e5565b5b50919050565b6123bd82612443565b810181811067ffffffffffffffff821117156123dc576123db612414565b5b80604052505050565b7f4e487b7100000000000000000000000000000000000000000000000000000000600052602260045260246000fd5b7f4e487b7100000000000000000000000000000000000000000000000000000000600052604160045260246000fd5b6000601f19601f8301169050919050565b7f4552433732313a2063616c6c6572206973206e6f7420746f6b656e206f776e6560008201527f72206f7220617070726f76656400000000000000000000000000000000000000602082015250565b7f4552433732313a207472616e7366657220746f206e6f6e20455243373231526560008201527f63656976657220696d706c656d656e7465720000000000000000000000000000602082015250565b7f4552433732313a207472616e736665722066726f6d20696e636f72726563742060008201527f6f776e6572000000000000000000000000000000000000000000000000000000602082015250565b7f4552433732313a20746f6b656e20616c7265616479206d696e74656400000000600082015250565b7f4552433732313a207472616e7366657220746f20746865207a65726f2061646460008201527f7265737300000000000000000000000000000000000000000000000000000000602082015250565b7f4552433732313a20617070726f766520746f2063616c6c657200000000000000600082015250565b7f4552433732313a2061646472657373207a65726f206973206e6f74206120766160008201527f6c6964206f776e65720000000000000000000000000000000000000000000000602082015250565b7f4552433732313a206d696e7420746f20746865207a65726f2061646472657373600082015250565b7f4552433732313a20696e76616c696420746f6b656e2049440000000000000000600082015250565b7f4552433732313a20617070726f76616c20746f2063757272656e74206f776e6560008201527f7200000000000000000000000000000000000000000000000000000000000000602082015250565b7f4552433732313a20617070726f76652063616c6c6572206973206e6f7420746f60008201527f6b656e206f776e6572206f7220617070726f76656420666f7220616c6c000000602082015250565b61272a816122cc565b811461273557600080fd5b50565b612741816122de565b811461274c57600080fd5b50565b612758816122ea565b811461276357600080fd5b50565b61276f81612336565b811461277a57600080fd5b5056fea26469706673582212203b774967de62c9b285c62133beb8bfdc4620475adfbd1e75d0f9f978ccc9a7e164736f6c63430008040033",
  "linkReferences": {},
  "deployedLinkReferences": {}
}